:020000040800F2
:10000000280D0020010100082D260008891600088F
:1000100029260008290F00083F3B000800000000C7
:1000200000000000000000000000000099350008FA
:10003000B91000080000000065330008AD36000864
:100040001B0100081B0100081B0100081B01000820
:100050001B0100081B0100081B0100081B01000810
:100060001B0100081B0100081B0100081B01000800
:100070001B0100081B0100081B0100081B010008F0
:100080001B0100081B0100081B0100081B010008E0
:100090001B0100081B0100081B01000839130008A0
:1000A0001B0100081B0100081B0100081B010008C0
:1000B0001B0100081B0100081B0100081B010008B0
:1000C0001B0100081B0100081B0100081B010008A0
:1000D0001B0100089D380008253900081B01000895
:1000E0001B0100081B0100081B010008DFF80CD0F1
:1000F00000F036FC00480047F14C0008280D0020B5
:100100000648804706480047FEE7FEE7FEE7FEE7B1
:10011000FEE7FEE7FEE7FEE7FEE7FEE7B136000892
:10012000ED000008A0F14101192900D820307047E6
:1001300040EA01039B0703D009E008C9121F08C069
:10014000042AFAD203E011F8013B00F8013B521EE9
:10015000F9D27047D2B201E000F8012B491EFBD260
:1001600070470022F6E710B513460A4604461946C2
:10017000FFF7F0FF204610BD421E12F8013F002B92
:10018000FBD111F8013B02F8013B002BF9D170477C
:1001900030B505462A460B4612F8010B13F8014B01
:1001A00008B1A042F8D01CB1002802D06D1CF1E7C4
:1001B000284630BDCAB2401E10F8011F8A4202D044
:1001C0000029F9D100207047421C10F8011B0029BA
:1001D000FBD1801A704710B5044600E0401C03783C
:1001E000002BFBD100E0401C521E04D311F8013B50
:1001F0000370002BF7D100210170204610BD03468B
:1002000011F8012B00F8012B002AF9D1184670478C
:1002100030B505460020034600E05B1C934205D242
:10022000EC5CC85C201A01D1002CF6D130BD80EA0C
:10023000010210B502F00043400022D04A001FD056
:10024000010E01EB1261C0F35600C2F3560240F4F6
:10025000000042F40002A0FB022000047F391404D5
:1002600000D0401C50EA124001D44000491EC2B2E6
:100270000C0604EBD010401C4008802A02D003E09A
:10028000002010BD20F00100002900DA00201843F2
:1002900010BD30B480EA010202F0004530F00042A7
:1002A00021F0004013D090B1C30DD40DC2F316015C
:1002B000C0F31600E41A41F4000140F400027D345A
:1002C000914201D3641C00E04900002C02DA30BCEA
:1002D000002070474FF400000023914201D3891A97
:1002E000034340084FEA4101F7D151B1914202D195
:1002F0004FF0004105E002D24FF0010101E06FF044
:10030000010103EBC450284430BC00F0F7B92DE9DB
:10031000FE4F804681EA0300C00F0C46009021F09A
:10032000004123F00045B8EB0200A94105D2404648
:10033000214690461C460B46024623F000401043DF
:1003400047D0270DC7F30A00C3F30A510290401AA1
:10035000019040286BDAC3F3130040F4801B00982F
:10036000924620B10023D2EB030A63EB0B0B0198FA
:100370005946C0F14002504600F08FF906460D463E
:1003800050465946019A00F0A7F910EB0800614168
:10039000002487EA115284EAE7731A4340D0009A96
:1003A00062B3019A012A4FEA075215DC001B61EB88
:1003B00002014FF0004202EA0752CDE90042001C60
:1003C00041F5801132462B4600F0DEF903B0BDE85E
:1003D000F08F40462146F9E7001B61EB0201001C4B
:1003E00041F5801300185B412018A2F5001747EB78
:1003F000030140EAD570B6196D4111E06D084FEA6E
:10040000360645EAC0754FEA0752001B61EB020150
:10041000001C41F5801149084FEA30000019514194
:1004200032462B4603B0BDE8F04F00F09EB900986D
:10043000012240000023D0EB020263EBE07300983E
:1004400021464FEAE074B8EB000061EB0401E9E7F4
:1004500083F000435BE781F0004158E72DE9FE4F50
:1004600081EA030404F0004421F0004100944FF0BD
:10047000000B23F0004350EA01045ED052EA03046B
:100480005BD0C3F30A54C1F30A552C44A4F2F334ED
:100490000194A0FB0254C1F3130141F48011C3F392
:1004A000130343F4801301FB024400FB034E840A50
:1004B000970A44EA815447EA8357A4FB07680295E8
:1004C0008D0A05FB07854FEA932C04FB0C54270586
:1004D000029D4FEA065847EA1637B5EB08056EEB62
:1004E000070C870E920E47EA811742EA8312A7FB98
:1004F0000201B6EB0B0164EB00042B0D43EA0C3355
:100500005E1844EB1C50DA465146E7FB0201C5F386
:1005100013044FEA0B3343EA14534FEA0432019CAD
:1005200043EA0603A4F10C040294009CCDE900B454
:1005300000F02AF903B0BDE8F08F00200146F9E78A
:10054000C10F80EAE0700844CA079623002100F03A
:10055000DEB80EB5C10F80EAE0700844CA0700217A
:1005600040F233438DE80E000A460B4600F00CF9CA
:1005700003B000BD20F00040C10DC0F3160040F4F0
:1005800000007F2901DA00207047962903DCC1F1C1
:100590009601C840704796398840704770B5C1F3DE
:1005A0000A5201F000450024C1F3130140F2FF3369
:1005B00041F480119A4201DA002070BD40F23343C9
:1005C0009A42A2F2334203DC524200F075F800E096
:1005D00090402C43F1D0404270BD000030B5041E65
:1005E00071F1000404DB4FF00044404264EB010170
:1005F000141E73F1000405DB1C464FF00043524209
:1006000063EB0403994208BF904230BD30B50B46FE
:10061000014600202022012409E021FA02F59D4232
:1006200005D303FA02F5491B04FA02F52844151E06
:10063000A2F10102F1DC30BD2DE9F05F054600209A
:1006400092469B4688460646814640241BE0284643
:1006500041464746224600F02FF853465A46C01AF4
:10066000914110D311461846224600F016F82D1A73
:1006700067EB01084F4622460120002100F00DF8EB
:1006800017EB00094E41201EA4F10104DFDC4846AF
:1006900031462A464346BDE8F09F202A04DB203A33
:1006A00000FA02F1002070479140C2F1200320FAC5
:1006B00003F3194390407047202A04DB203A21FAC3
:1006C00002F00021704721FA02F3D040C2F120026B
:1006D0009140084319467047202A06DBCB17203A81
:1006E00041FA02F043EAE07306E041FA02F3D04037
:1006F000C2F1200291400843194670470029A8BF63
:100700007047401C490008BF20F00100704710B43A
:10071000B0FA80FC00FA0CF050EA010404BF10BCEF
:10072000704749B1CCF1200421FA04F411FA0CF11C
:1007300018BF012121430843A3EB0C01CB1D4FEA55
:1007400000614FEA102042BF002010BC704700EB50
:10075000C35010440029A4BF10BC7047401C49007E
:1007600008BF20F0010010BC704710B5141E73F1D3
:10077000000408DA401C41F1000192185B411A4361
:1007800001D120F0010010BD2DE9F04D92469B46AD
:1007900011B1B1FA81F202E0B0FA80F22032904653
:1007A000FFF77BFF04460F4640EA0A0041EA0B01CF
:1007B00053465A46084313D0114653EA010019D054
:1007C000C8F140025046FFF777FF05460E465046F7
:1007D00059464246FFF761FF084305D0012004E077
:1007E00020463946BDE8F08D0020054346EAE07614
:1007F0002C4337430A986305E40AA0EB0800002263
:10080000FD0A44EA47540A3002D500200146E9E7D0
:10081000010510196941DDE9084500196941BDE884
:10082000F04DA2E72DE9F04D81EA030404F0004BFE
:1008300021F0004514464FF0000A23F0004150EA31
:10084000050220D054EA01021DD0C5F30A57024622
:10085000C5F31303C1F31300C1F30A5640F4801526
:1008600043F48013A7EB0608101BD64608F2FD38A8
:1008700073EB050002D308F1010801E092185B4117
:10088000B8F1000F03DA00200146BDE8F08D00202A
:100890004FF48011064684460EE0171B73EB0507E4
:1008A00005D3121B63EB050306434CEA010C490810
:1008B0004FEA300092185B4150EA0107EDD152EA4D
:1008C000030012D082EA040083EA0501084305D040
:1008D000101BAB4106D20122002306E000224FF09C
:1008E000004302E06FF0010253101AEB06004CEBDC
:1008F000085110EB0A0041EB0B01BDE8F04DFFF78A
:1009000034BF70B521F0004303430CD0C1F30A5546
:100910000024D5EB040564EB0403D617AD1AB341EC
:1009200002DB0020014670BD201841EB025170BD72
:10093000C1F30A52C1F3130140F2FF3341F48011B5
:100940009A4202DA00200146704740F233439A424D
:10095000A2F2334202DC5242FFF7AEBEFFF79DBE69
:10096000064C074D06E0E06840F0010394E80700FC
:1009700098471034AC42F6D3FFF7BCFB106E00086A
:10098000306E00082DE9F04D00231A461B1A8A41EB
:1009900003DB00200146BDE8F08DC1F30A52C1F32C
:1009A000130141F480154FF0000BD10702D100185C
:1009B0006D41521E0027044640F2FF11384601EBFC
:1009C000620A3E468046024600204FF48011FFF73F
:1009D00073FEC2197141BB1846EB0100B4EB030C66
:1009E00075EB000C04D3E41A65EB000517460E46C0
:1009F000241908F101006D4180463428E3DDF9191E
:100A000046EB0600091BA84103D24FF0FF32134604
:100A100001E0002213461BEB070046EB0A51BDE83C
:100A2000F04DFFF7A2BE21B1826842F00102826060
:100A300003E0826822F001028260704701460020D4
:100A40008A6802F004020AB1012000E00020704729
:100A50000146C86C80B270470246002013680B4004
:100A60000BB1012000E000207047014600208A6899
:100A700002F008020AB1012000E0002070470000E7
:100A800030B502460020002350680F4C20400D79FD
:100A90000C6844EA05242043506090680B4C2040C9
:100AA000D1E902542C434D7944EA45042043906037
:100AB000D06A20F470000C7C641EE4B2234340EA48
:100AC0000350D06230BD0000FFFEF0FFFDF7F1FFE4
:100AD000F0B504460D4600200021092D11DDE06827
:100AE000A5F10A0606EB4607072606FA07F1884332
:100AF000A5F10A0606EB460603FA06F10843E06094
:100B00000CE0206905EB4507072606FA07F1884344
:100B100005EB450603FA06F108432061072A0FDAC0
:100B2000606B561E06EB86071F2606FA07F1884300
:100B3000561E06EB860605FA06F10843606322E0BE
:100B40000D2A0FDA206BD61F06EB86071F2606FA42
:100B500007F18843D61F06EB860605FA06F108431F
:100B6000206310E0E06AA2F10D0606EB86071F265F
:100B700006FA07F18843A2F10D0606EB860605FA90
:100B800006F10843E062F0BD816841F00801816030
:100B9000704721B1826842F4A002826003E082685B
:100BA00022F4A00282607047816841F004018160F4
:100BB0007047000010B501210648FFF7EAFF00BFAB
:100BC00002210448FFF748FF0028F9D00148FFF749
:100BD0003FFF10BD0024014000B587B0012148024D
:100BE00002F038FC0121042002F034FC4FF40040F4
:100BF00002F014FC00208DF81B000120ADF8180055
:100C000003208DF81A0006A9194800F057FC0523A7
:100C1000012200211748FFF75BFF0020019004909C
:100C20004FF46020039000208DF809008DF8080033
:100C300001208DF8140001A90E48FFF721FF0121C2
:100C40000C48FFF7F0FE0B48FFF79EFF00BF094876
:100C5000FFF70BFF0128FAD00648FFF7A5FF00BFFA
:100C60000448FFF7EBFE0128FAD007B000BD0000F2
:100C700000080140002401402DE9F047074689465D
:100C80009046DDF820C00021002200240026002527
:100C9000002004460246014645E0002601E0491CCA
:100CA000761C614502D2585C2028F8D0614500D1FD
:100CB0003BE0ACEB0100022807D3585C0D2804D1BF
:100CC000481C185C0A2800D12CE0585C0A2800D186
:100CD00028E01EB16FF02B00BDE8F087585C3D287E
:100CE00006D1601C0446022802D96FF02B00F3E7FE
:100CF000585C7F2806DC585CDFF8E4A01AF8000096
:100D00007F2802D16FF02B00E6E7585CDFF8D0A017
:100D10001AF80000402803DA14B16FF02B00DBE76B
:100D2000521C00BF491C6145B7D300BF1AB900204F
:100D3000C8F80000D0E7D00800EB40004FEA400AB6
:100D400002F0070000EB40004000C01D0AEBD0029B
:100D5000121B0FB1914504D2C8F800206FF0290092
:100D6000BAE703240020064602463D4631E01878E3
:100D70000D2805D018780A2802D01878202800D12C
:100D800025E01878DFF858A01AF80000402801D1B3
:100D9000012000E00020241A1878DFF844A01AF897
:100DA000000066F39F100646501C024604280DD131
:100DB000002214B1300C05F8010B012C02D9300AC5
:100DC00005F8010B022C01D905F8016B00BF491E83
:100DD0005B1C0029CBD1E81BC8F8000000207BE792
:100DE000B06C00082DE9F04F07468946099C0025A4
:100DF0000026AC46A846AA4600211CB90020106077
:100E0000BDE8F08F0320B4FBF0F04FF0030BB4FB10
:100E1000FBFE0BFB1E4BBBF1000F02D04FF0010B92
:100E200001E04FF0000B00EB0B06B6F1804F05D34D
:100E30004FF0FF3010606FF02900E1E7B600701C42
:100E4000814500D327B9701C10606FF02900D7E7E7
:100E50000320B4FBF0F000EB40060025394629E002
:100E600013F801CB13F8018B13F801AB2D484FEAAF
:100E70009C0B10F80B0001F8010B4FEA0C1000EB73
:100E8000281000F03F00DFF89CB01BF8000001F8CC
:100E9000010B4FEA880000EBAA1000F03F001BF89E
:100EA000000001F8010B0AF03F001BF8000001F8F8
:100EB000010BED1CB542D3D3A5422DD213F801CBC3
:100EC000681CA04202D213F8010B00E0002080460B
:100ED0001448CCF3850B10F80B0001F8010B4FEA16
:100EE0000C1000EB281000F03F00DFF838B01BF8C2
:100EF000000001F8010B681CA04207D23F2000EA65
:100F000088001BF8000001F8010B02E03D2001F809
:100F1000010B3D2001F8010BC81B10600020087078
:100F200000BF6DE7706C000800BFFEE708B5012147
:100F3000042002F08FFA04208DF803002020ADF881
:100F4000000003208DF802006946024800F0B6FA5E
:100F500008BD00000008014008B50121042002F08E
:100F600079FA10208DF803002020ADF8000003204E
:100F70008DF802006946024800F0A0FA08BD0000A2
:100F80000008014070B50024FFF7E6FF20212A4841
:100F900000F071FB122003F051FD2021264800F0E3
:100FA0006CFB142003F070FDFFF7C0FF142003F06A
:100FB0006BFD2021204800F055FB002829D104E0DA
:100FC000012003F061FD601CC4B220211A4800F02A
:100FD00049FB08B9642CF3DB002404E0012003F092
:100FE00053FD601CC4B22021134800F03BFB0128D4
:100FF00001D1642CF2DB0024002505E000F020F88C
:101000000E494855681CC5B2052DF7DB322003F0A8
:101010003BFD0A480078094949780844074989781E
:1010200008440649C978461804480079B04201D1FD
:10103000012070BD0020FCE7000801403C000020BA
:101040002DE9F0410025002400262DE004E00120D8
:1010500003F01AFD601CC4B22021164800F002FB08
:1010600008B9642CF3DB0024282003F00DFD2021B7
:10107000104800F0F7FA012801D1012700E000270D
:1010800004E0012003F000FD601CC4B220210948E7
:1010900000F0E8FA012801D1642CF2DB0024680694
:1010A000050E3D43701CC6B2082ECFDB2846BDE8B6
:1010B000F0810000000801407047000010B54FF4B7
:1010C00000710348FFF74DF800200249088010BD69
:1010D000280100204200002070B50546002400BF12
:1010E00000F010F980B90DA10E48FFF751F8044641
:1010F00054B13A212046FFF75DF8044614B1641C50
:10110000204670BD0020FCE7052003F097FC280076
:10111000A5F101018DB2E3D100BFF2E74950442CA3
:10112000000000002801002010B5FFF7C7FF4FF4B2
:10113000FA7003F083FC20A1214802F002FD03E0D5
:101140004FF4FA7003F07AFC1EA11FA000F08CF897
:101150000028F5D11EA11A4802F0F3FC03E04FF479
:10116000FA7003F06BFC17A11CA000F07DF80028BA
:10117000F5D11EA1124802F0E4FC03E04FF4FA702E
:1011800003F05CFC0FA11DA000F06EF80028F5D163
:101190001EA10B4802F0D5FC03E04FF4FA7003F0F7
:1011A0004DFC1DA11EA000F05FF80028F5D128A17C
:1011B000034802F0C6FC10BD312E2041540D0A0038
:1011C000003801404F4B000041540D0A0000000060
:1011D000322E2043574D4F44450D0A0041542B43B6
:1011E000574D4F44453D310D0A000000332E20413C
:1011F000542B4357444843500D0A000041542B439D
:1012000057444843503D312C310D0A00342E2043C1
:10121000574A41500D0A0000474F542049500000E2
:1012200041542B43574A41503D224C4150544F505A
:101230002D304B4734385531422033313631222C52
:1012400022303037722C573035220D0A0000000052
:10125000352E204553503832363620496E69742079
:101260004F4B0D0A000000002DE9F04104460D46E9
:10127000C8262046FEF7A8FF87B23A4621460D4809
:1012800002F083FC0FE000F03DF848B929460A4817
:10129000FEF77EFF20B1FFF711FF0020BDE8F081CF
:1012A0000A2003F0CBFB3000A6F10101CEB2EAD157
:1012B0000120F3E7004400402801002030B589B048
:1012C00004460D46FFF7FAFE2A4608A101A802F0DF
:1012D000C7FD0AA101A8FFF7C7FF20B92A4621468A
:1012E000074802F052FC09B030BD000041542B43C6
:1012F000495053454E443D25640D0A003E00000010
:10130000004400400A48008808B901207047084896
:10131000008808490988884203D1002004490880D0
:10132000F4E703480088034908800120EEE7000045
:10133000420000204400002010B54FF4807000F0FF
:101340003FF848B102F010F84FF4807000F02CF82C
:101350004FF4807000F02EF810BD0EB50121084644
:1013600002F078F80821012000F088F84FF480702E
:10137000019000208DF808000C208DF80900012054
:101380008DF80A0001A800F02FF817208DF8000052
:1013900002208DF801008DF8020001208DF8030075
:1013A000684601F045F90EBD01490860704700002C
:1013B0001404014001490860704700001404014012
:1013C000014600200022074B1B6803EA0102054B7F
:1013D00014331B680B4013B10AB1012000E0002058
:1013E0007047000000040140002123498279002A4F
:1013F0003AD00A46126803689A430B461A600A1DDF
:10140000126803689A430B1D1A60027911440A6836
:1014100003681A430A60184A0832126803689A433C
:10142000154B08331A601A1D126803689A43124B51
:101430000C331A604279102A0ED11A1F1268036801
:101440001A430D4B08331A601A1D126803681A43B9
:10145000094B0C331A600DE00749427911440A68C0
:1014600003681A430A6005E0027911440A680368B8
:101470009A430A60704700000004014030B5002222
:101480008B071C0F0F2303FA04F20B4B8C1053F83D
:1014900024309343084C8D1044F8253023468C109B
:1014A00053F824308C07240F00FA04F42343024C31
:1014B0008D1044F8253030BD080001402DE9F04181
:1014C000024600250026002000230024002791F872
:1014D00003C00CF00F0591F803C00CF0100CBCF128
:1014E000000F03D091F802C04CEA050591F800C046
:1014F000BCF1000F31D0146800202BE04FF0010C3C
:101500000CFA00F3B1F800C00CEA03069E4220D1A9
:1015100083004FF00F0C0CFA03F7BC4305FA03FCF1
:101520004CEA040491F803C0BCF1280F06D14FF037
:10153000010C0CFA00FCC2F814C00AE091F803C0D8
:10154000BCF1480F05D14FF0010C0CFA00FCC2F8B9
:1015500010C0401C0828D1D31460B1F800C0BCF101
:10156000FF0F34DD546800202EE000F1080C4FF02E
:10157000010808FA0CF3B1F800C00CEA03069E4219
:1015800021D183004FF00F0C0CFA03F7BC4305FA8E
:1015900003FC4CEA040491F803C0BCF1280F05D108
:1015A00000F1080C08FA0CF8C2F8148091F803C096
:1015B000BCF1480F07D100F1080C4FF0010808FA00
:1015C0000CF8C2F81080401C0828CED35460BDE847
:1015D000F0810000F0B50A46002300240021002518
:1015E00000F00046B6F1004F02D11D4EF16901E056
:1015F0001B4E7168C0F3034583B200F44016B6F584
:10160000401F08D121F07061154E766826F0706693
:10161000134F7E6012E000F48016B6F5801F06D1ED
:10162000032606FA05F4A14341F0706106E0460D79
:10163000360103FA06F6B14341F0706122B1460D5E
:10164000360103FA06F6314300F00046B6F1004FCA
:1016500002D1034EF16101E0014E7160F0BD000066
:10166000000001400246002093680B400BB10120AE
:1016700000E00020704741617047016170470AB186
:10168000016100E04161704700BFFEE708B501213C
:10169000092001F0DFFE01211D48FFF79BFF80209C
:1016A000ADF8000010208DF8030003208DF8020033
:1016B00069461848FFF702FF2020ADF80000694690
:1016C0001448FFF7FBFE1020ADF8000069461148F2
:1016D000FFF7F4FE0820ADF8000069460D48FFF75B
:1016E000EDFE4020ADF8000048208DF8030069466B
:1016F0000848FFF7E3FE4FF48070ADF800000420C7
:101700008DF8030069460348FFF7D8FE08BD0000C6
:1017100000023000000C014070B5CAB04FF48C726A
:10172000294904A8FEF704FD28A30FCB8DE80F007C
:101730000126002441E000F095F808B900263EE0BB
:101740001DF80410C12000F0F1F90021C32000F0C1
:10175000EDF90421082000F0E9F9012003F06EF909
:101760000021082000F0E2F9012003F067F90025CC
:1017700012E004EB840004A901EB8000405D00B995
:101780000CE004EB840004AA02EB8000415D05201C
:1017900000F0CCF9681CC5B2142DEADB00BF294665
:1017A000B92000F0C3F9FF21B22000F0BFF90421F5
:1017B000372000F0BBF9601CC4B20E2CBBDB00BFAD
:1017C00030464AB070BD00006865000800010203A1
:1017D00004050618191A1B1C1D24000010B543210E
:1017E000352000F0A3F909211C2000F09FF92021E9
:1017F000BD2000F09BF90121082000F097F9052099
:1018000003F01CF90021082000F090F9052003F0F6
:1018100015F900F027F808B9002010BDFF21B2200B
:1018200000F084F90621372000F080F9052003F04C
:1018300005F90621372000F079F9052003F0FEF8BC
:101840000B211C2000F072F91021292000F06EF904
:101850000021BD2000F06AF90120DEE710B500F09C
:101860001DF810BD70B5002600250CE0B22000F078
:10187000B3F80446212C01D1012606E0142003F020
:10188000DDF8681CC5B2052DF0DB00BF304670BD29
:1018900010B5C52000F0A0F810BD000010B508205C
:1018A0001949087000F032F80021BD2000F03EF91F
:1018B0004821172000F03AF9052003F0BFF88021F5
:1018C0003C2000F033F907213E2000F02FF9FF21E2
:1018D000382000F02BF907213A2000F027F90021E9
:1018E000402000F023F90821422000F01FF90021D8
:1018F000442000F01BF90821462000F017F90520CC
:1019000003F09CF810BD00003A00002010B506203E
:1019100000F062F83521172000F008F9052003F0E7
:101920008DF8062000F058F80321892000F0FEF819
:10193000052003F083F84321CF2000F0F7F80520BD
:1019400003F07CF80221CB2000F0F0F80B211120ED
:1019500000F0ECF81F480078402810D100211E202C
:1019600000F0E4F80F21192000F0E0F818211B2006
:1019700000F0DCF82C211D2000F0D8F80FE0002149
:101980001E2000F0D3F83F21192000F0CFF84821A5
:101990001B2000F0CBF81F211D2000F0C7F8052008
:1019A00003F04CF80421CD2000F0C0F84C211720A2
:1019B00000F0BCF8052003F041F80021B92000F048
:1019C000B5F84F21CF2000F0B1F8FF216F2000F0D3
:1019D000ADF810BD3A0000202DE9F0410546002485
:1019E0000026A046052700203A490860012003F0A0
:1019F0004BF800BF1DE007F0800020B10120354901
:101A0000091D086003E000203249091D086001201B
:101A100003F03AF800202F490C3108607806070ED1
:101A2000012003F031F801202B49C1F89C01601C12
:101A3000C4B2082CDFDB00241DE005F0800020B1DB
:101A400001202449091D086003E000202149091DE7
:101A50000860012003F018F800201E490C310860CE
:101A60006806050E012003F00FF801201A49C1F89D
:101A70009C01601CC4B2082CDFDB012003F004F8D9
:101A800000241BE07006060E12487838006800F04B
:101A9000FF08012002F0F8FF00200F49C1F89C0167
:101AA000B8F1010F01D146F00106012002F0ECFF70
:101AB000012008490C310860601CC4B2082CE1DB2D
:101AC000012002F0E1FF0120024908603046BDE834
:101AD000F0810000908121420080214210B5012058
:101AE00010490860052002F0A9FF00200E49C1F846
:101AF0008C01052002F0A2FF01200A4908600520A0
:101B000002F09CFF00200849C1F89001052002F076
:101B100095FF01200349091D0860052002F08EFF92
:101B200010BD00008C812142008021422DE9F0414E
:101B300005460E460024042700203949086001208C
:101B400002F0A2FF00BF1DE007F0800020B10120DD
:101B50003349091D086003E000203149091D086070
:101B6000012002F091FF00202D490C310860780619
:101B7000070E012002F088FF01202A49C1F89C01CC
:101B8000601CC4B2082CDFDB00241DE005F08000DF
:101B900020B101202249091D086003E000202049EE
:101BA000091D0860012002F06FFF00201C490C3164
:101BB00008606806050E012002F066FF0120194941
:101BC000C1F89C01601CC4B2082CDFDB00241DE0BE
:101BD00006F0800020B101201149091D086003E0D2
:101BE00000200F49091D0860012002F04DFF002070
:101BF0000B490C3108607006060E012002F044FF0C
:101C000001200849C1F89C01601CC4B2082CDFDB2C
:101C1000012002F039FF012001490860BDE8F08190
:101C2000908121420080214210B54FF0804001F0A8
:101C30007BFD10BD00B589B00121084601F0FAFB1B
:101C40000121042001F006FC18208DF82300022059
:101C5000ADF8200003208DF8220008A91A48FFF7EC
:101C60002DFC4FF0804001F062FD0020ADF81A001D
:101C7000ADF816006320ADF8180040F2CF20ADF8A3
:101C8000140000208DF81C0005A94FF0804001F0E1
:101C9000B3FD01A801F0A4FD6020ADF80400002010
:101CA000ADF80C000120ADF806000020ADF80A00E8
:101CB00001A94FF0804001F041FD0121880701F0AA
:101CC00027FD09B000BD00000008014010B5044622
:101CD00021464FF0804001F08DFD10BD10B5044647
:101CE000207B012802D1206802F002FF0020206042
:101CF0006060A060207310BD0246002301230DE048
:101D000002F07F000870D2092AB1087840F0800004
:101D10000870491C01E0184670475B1C042BEFDD7E
:101D20004FF0FF30F8E770B504460E4600252068F6
:101D300098B901202073304603F048F920602068EC
:101D4000E0B100206060A66003E0002021684855F3
:101D50006D1CA068A842F8D810E00220207303E0B0
:101D60000020216848556D1CA068A842F8D80020C2
:101D70006060A068B04201D20020206070BD000009
:101D80002DE9FF4F83B082468B469146159C002576
:101D9000002002900F2701904846FEF715FA0FFA2F
:101DA00080F8B9F1000F03D1012007B0BDE8F08F32
:101DB00008F10200384487B2109808B145F00205D6
:101DC000129878B145F004051298FEF7FDF9C0B2FB
:101DD00002901398FEF7F8F901460298001D084496
:101DE000384487B2119820B1012804D0022808D1C4
:101DF00004E000BF07E045F00C0504E045F01405E1
:101E000001E00220D1E700BF149808B145F0240595
:101E1000BAF1000F02D0BBF1000F01D10320C4E7DB
:101E200045F0C0055046FEF7CFF906465846FEF786
:101E3000CBF93044001D384487B239462046FFF7BD
:101E400072FF206808B90420AFE739462068FEF722
:101E500088F910216268501C606020688154D4E9C0
:101E60000023D118781FFFF747FF00B201900198B7
:101E7000002804DA2046FFF731FF052095E7616866
:101E800001980844606000216268501C606020680E
:101E9000815404216268501C6060206881544D2187
:101EA0006268501C60602068815451216268501C37
:101EB00060602068815454216268501C6060206812
:101EC00081546268501C60602068815404216268FB
:101ED000501C6060206881546168481C6060206804
:101EE00045540698010A6268501C6060206881545D
:101EF0000698C1B26268501C606020688154C8F3C3
:101F000007216268501C6060206881546268501C20
:101F10006060206800F80280D4E900128818424608
:101F20004946FEF758F960684044606005F00400D7
:101F3000B8B30026139808B938A013901298FEF78A
:101F400043F986B2310A6268501C6060206881548F
:101F50006268501C606020688654D4E900128818BA
:101F600032461299FEF737F9606830446060139882
:101F7000FEF72AF986B2310A6268501C6060206858
:101F800081546268501C606020688654D4E9001255
:101F9000881832461399FEF71EF960683044606075
:101FA00000BF05F08000C8B15046FEF70DF986B2BB
:101FB000310A6268501C6060206881546268501C5D
:101FC000606020688654D4E9001288183246514671
:101FD000FEF701F960683044606000BF05F0400022
:101FE000C8B15846FEF7F0F886B2310A6268501C54
:101FF0006060206881546268501C6060206886546C
:10200000D4E90012881832465946FEF7E4F86068B1
:102010003044606000BF0020C7E600000000000000
:102020002DE9FF4F83B0834617469946139C002540
:1020300000260020029001908046BBF1000F03D1E2
:10204000012007B0BDE8F08F00260AE00498805D0B
:10205000232803D00498805D2B2801D10220F0E7CB
:10206000761C0498805D0028F0D148F03008119863
:1020700008B148F0010806EB0900851C109820B152
:10208000012804D002280AD105E000BF09E048F089
:102090000208AD1C05E048F00408AD1C01E0032077
:1020A000CFE700BF8FB33878022821D14FF0000A64
:1020B00000BF50460AF1010A385C7D28F9D1AAF127
:1020C000030A0AF1070002900298A9EB000AE81C33
:1020D000A0EB0A012046FFF726FE206808B904207D
:1020E000AFE7EA1CA2EB0A012068FEF73AF819E014
:1020F000691D2046FFF717FE206808B90420A0E7F5
:10210000691D2068FEF72DF80CE0FFE7691D2046E9
:10211000FFF709FE206808B9042092E7691D2068CE
:10212000FEF71FF86168481C6060206800F80180B5
:10213000D4E9000281182846FFF7DEFD01900198DE
:10214000002804DA2046FFF7C9FD052079E7616819
:10215000019808446060C6F307216268501C606003
:10216000206881546268501C606020688654D4E9FD
:102170000012881832460499FEF72DF86068304442
:102180006060109860B14FEA1B216268501C60606B
:10219000206881546268501C6060206800F802B0BA
:1021A000C7B1387802280BD1D4E900128818394613
:1021B000029AFDF7BDFF616802980844606009E07B
:1021C000D4E9001288184A463946FDF7B1FF606825
:1021D00048446060002034E72DE9F04190B00446A7
:1021E0000D4616469846169F23460CA2302104A899
:1021F000009501F021FE01200021CDE900013346C8
:102200000A4604A9CDE902070A20FFF709FF18B121
:10221000012010B0BDE8F0810020FAE72473797343
:102220002F25732F25732F7468696E672F70726F57
:1022300070657274792F706F737400002DE9FF5F01
:102240008046174699460E9C0026B246B3460025A6
:10225000B8F1000F03D1012004B0BDE8F09F0BE0FE
:1022600057F8250008B90220F6E757F82500FDF7D2
:10227000ABFF0644681CC5B24D45F1DB09EB4900D4
:10228000801C00EB060A0AF105012046FFF74BFD12
:10229000206808B90320DFE782216268501C606073
:1022A00020688154D4E9000281185046FFF724FDCC
:1022B0000FFA80FBBBF1000F04DA2046FFF70EFD9A
:1022C0000420C9E76068584460604FEA18216268DA
:1022D000501C6060206881546268501C60602068F7
:1022E00000F80280002524E057F82500FDF76CFF78
:1022F0000646C6F307216268501C6060206881545E
:102300006268501C606020688654D4E90023D018AD
:1023100057F825103246FDF75EFF60683044606074
:102320000198C1B26268501C606020688154681CCA
:10233000C5B24D45D8DB00208EE7F0B504460D460A
:102340002646012300201060002114E0775C07F08E
:102350007F07106807FB03001060705C00F08000CE
:1023600008B9481CF0BDDB01B3F5001F02D36FF0C4
:102370000100F7E7491CA942E8DB4FF0FF30F1E725
:1023800001464878022801D001207047887810B1B2
:102390008878012801D1C878F7E7FF20F5E7000029
:1023A0002DE9FC5F81460D4614461E46DDE90C8B87
:1023B00099F8000000F00F0A002001900AF00800D0
:1023C0000090CAF341008BF8000001AA042109F132
:1023D0000100FFF7B2FF4844471C0198022802D3CE
:1023E0000AF0010010B1FF20BDE8FC9F7878397831
:1023F00040EA012020802088801C0199884201D970
:10240000FF20F1E754A1B81CFDF7C2FE08B10F2070
:10241000EAE79BF8000020B101283DD0022877D1DF
:102420003BE0009808B1FF20DEE72188481C02F05D
:10243000CDFD2860286808B9FF20D5E72288511C07
:102440002868FDF78EFE2288B91C2868FDF770FE0B
:102450000198801E2188401AA8F80000B8F80010E2
:10246000481C02F0B3FD3060306820B9286802F0E3
:102470003FFBFF20B8E7B8F80020511C3068FDF79B
:1024800070FEB8F80020B4F800C0BB1C0CEB0301D0
:102490003068FDF74DFE4FE000BF2088801C019999
:1024A000884201D9FF209FE72088C01C395C208822
:1024B000801C385C41EA00210E9801800E9808B912
:1024C000FF2091E72188481C02F080FD28602868E1
:1024D00008B9FF2088E72288511C2868FDF741FED3
:1024E0002288B91C2868FDF723FE0198001F218867
:1024F000401AA8F80000B8F80010481C02F066FD69
:102500003060306828B9286802F0F2FAFF206BE7E3
:1025100010E0B8F80020511C3068FDF722FEB8F832
:102520000020B4F800C03B1D0CEB03013068FDF740
:10253000FFFD01E0FF2057E700BF2B212846FDF7F4
:1025400039FE20B923212846FDF734FE08B1FF20CB
:102550004AE7002048E7000024637265710000002C
:1025600001464878022801D001207047887820B9B8
:10257000C8780A2801D10020F7E70120F5E700001C
:10258000F8B50446FF2720780511012D01DB0E2D3B
:1025900001DD3846F8BD032D24D1002000906A46A5
:1025A0000421601CFFF7C9FE2044461C0098022845
:1025B00003D3207800F0010008B1FF20EAE770782B
:1025C000317840EA0120801C0099884201D9FF201F
:1025D000E0E706A1B01CFDF7DBFD08B10F2700E026
:1025E000032700E02F463846D4E7000024637265D5
:1025F000710000000146FF208A78A2B9CA78142A27
:1026000011D10A7932B1012A05D0022A04D0802AD8
:1026100006D103E000BF00BF002003E0012001E07D
:10262000022000BF00BF704700BFFEE770470000F8
:1026300070B5002100230F22C47804B3154C246820
:1026400004F4E064C4F5E064210AC1F10403CA4063
:10265000447804FA03F184781440214309010E4CB4
:102660000678A155047804F01F050124AC400578D4
:102670006D11AD0005F1E025C5F8004109E00478D1
:1026800004F01F050124AC40044D0678761145F88E
:10269000264070BD0CED00E000E400E080E100E0C9
:1026A00002490143024A1160704700000000FA0528
:1026B0000CED00E070B500240EE00021204600F093
:1026C000EAF8002504E0002000F082F9681CC5B299
:1026D000802DF8DB601CC4B2082CEEDB70BD00005E
:1026E00008B50121042000F0B5FE14208DF8030088
:1026F00003208DF802004020ADF8000069460A482A
:10270000FEF7DCFE8020ADF8000069460648FEF7C3
:10271000D5FE012240210448FEF7B1FF01228021AD
:102720000148FEF7ACFF08BD0008014070B5054642
:10273000002413E08020204100EA050280210E4899
:10274000FEF79DFF012240210B48FEF798FF002273
:1027500040210948FEF793FF601CC4B2082CE9DB56
:10276000012240210448FEF78AFF0022402102484E
:10277000FEF785FF70BD00000008014010B5012282
:1027800080210948FEF77BFF012240210648FEF721
:1027900076FF002280210448FEF771FF00224021CD
:1027A0000148FEF76CFF10BD0008014010B5002283
:1027B00080210748FEF763FF012240210448FEF70D
:1027C0005EFF012280210248FEF759FF10BD000084
:1027D0000008014070B5002406E0002500E06D1CF3
:1027E000B5F57A7FFBD3641CB4F57A7FF5D3FFF798
:1027F00077FFAE2000F0DCF8D52000F0D9F880207B
:1028000000F0D6F8A82000F0D3F83F2000F0D0F870
:10281000D32000F0CDF8002000F0CAF8402000F0EE
:10282000C7F8A12000F0C4F8C82000F0C1F8DA20F1
:1028300000F0BEF8122000F0BBF8812000F0B8F8DC
:10284000CF2000F0B5F8D92000F0B2F8F12000F068
:10285000AFF8DB2000F0ACF8302000F0A9F8A4209D
:1028600000F0A6F8A62000F0A3F88D2000F0A0F854
:10287000142000F09DF8AF2000F09AF8FFF71AFF3F
:1028800070BD10B50246012000E050430B00A1F1DD
:102890000101FAD110BD70B505460C4645F0B000F7
:1028A00000F086F8102141EA141000F081F804F0DD
:1028B0000F0000F07DF870BD2DE9F04105460E4691
:1028C0001746721ED206110E6A1E5206100EFFF730
:1028D000E2FF002409E0A7F12001134A02EB0111F5
:1028E000085D00F075F8601CC4B2082CF3DB721EA2
:1028F000D206110E6A1E012303EB4202D0B2FFF78B
:10290000CAFF00240BE0A7F12001074A02EB0112E5
:1029100004F10801505C00F05BF8601CC4B2082CA4
:10292000F1DBBDE8F0810000806600082DE9F0478A
:1029300080460E4617461D46002415E0281B411E02
:102940000A20FFF79EFFB7FBF0F00A21B0FBF1F27F
:1029500001FB120000F130093019C1B24A4640466D
:10296000FFF7AAFF601CC4B2AC42E7DBBDE8F0870A
:102970002DE9F04180460C4615460026002712E05E
:10298000AA5DE019C1B24046FFF796FFE019102892
:1029900005D108F1010000F0FF0800240027781C91
:1029A000C7B2701CC6B2A85D0028E9D1BDE8F081AD
:1029B00010B50446FFF7E2FE7820FFF7B7FE0020CF
:1029C000FFF7B4FE2046FFF7B1FEFFF7EFFE10BDA4
:1029D00010B50446FFF7D2FE7820FFF7A7FE40208F
:1029E000FFF7A4FE2046FFF7A1FEFFF7DFFE10BDB4
:1029F000F0B58BB00546002600242846FDF7E4FB21
:102A0000C7B20DB11C2F02DA01200BB0F0BD06E0F9
:102A1000A85D01A988550020A855701CC6B2BE4209
:102A2000F6DB002001A988550026002455E001A806
:102A3000805D2B2810D008DC202814D023282ED02D
:102A4000252825D026283FD130E02F2812D03D2838
:102A500033D03F2838D114E0281923A1FDF78CFB8F
:102A6000E01CC4B236E0281920A1FDF785FBE01C6C
:102A7000C4B22FE028191EA1FDF77EFBE01CC4B2F2
:102A800028E028191BA1FDF777FBE01CC4B221E068
:102A9000281919A1FDF770FBE01CC4B21AE028192F
:102AA00016A1FDF769FBE01CC4B213E0281914A1BC
:102AB000FDF762FBE01CC4B20CE0281911A1FDF780
:102AC0005BFBE01CC4B205E001A8805D2855601CDA
:102AD000C4B200BF00BF701CC6B2BE42A7DB00205C
:102AE000285500BF91E70000253242002532300012
:102AF0002532460025334600253235002532330085
:102B000025323600253344002DE9F04FC9B0054683
:102B10000C4616461F460DF5A47898E8000F0020D5
:102B2000489055B14CB13F48864206D32FB1B9F118
:102B3000000F02D0BAF1780F03DA012049B0BDE8E6
:102B4000F08F402118A8FDF70CFB3846FDF73CFB41
:102B500005903B4648AA4021009018A8FEF78CF843
:102B6000482106A8FDF7FDFABBF1000F09D02EA001
:102B700033462FA248218DE8310006A801F05CF908
:102B800009E029A0334630A248218DE811010395C0
:102B900006A801F051F9402128A8FDF7E2FA06A89D
:102BA000FDF712FB059018A8FDF70EFB049028A86E
:102BB000009006AA18A8DDE9041301F0E7FF002041
:102BC0004890402138A8FDF7CCFA28A8FDF7FCFA78
:102BD000059028AB48AA4021009038A8FEF702F9DA
:102BE00038A8FFF705FFBBF1000F0CD038A80EA1E5
:102BF0002B461DA2CDE90046CDE9021051464846BC
:102C000001F01AF90CE038A807A12B46244ACDE9B7
:102C100001860094CDE903105146484601F00CF9B5
:102C200000208BE79554415D73686131000000001E
:102C300025640A25730A70726F64756374732F2597
:102C4000730A25730000000025640A25730A707258
:102C50006F64756374732F25732F6465766963657C
:102C6000732F25730A25730076657273696F6E3D45
:102C70002573267265733D70726F64756374732576
:102C800025324625732665743D2564266D65746876
:102C90006F643D2573267369676E3D2573000000E0
:102CA000C86D000800B595B00020119012901390E7
:102CB000149003A8029010A010A313A23821009032
:102CC00003A801F0B9F803AA17A11D4800F039FFC5
:102CD00011A8012302AA002100901420FFF7AEFAE8
:102CE00038B9129A91B21198FEF7E8FA11A8FEF7D6
:102CF000F5FF15B000BD00006431000041727A6834
:102D00004C34343435490000247379732F25732FE4
:102D100025732F7468696E672F70726F7065727497
:102D2000792F736574000000537562736372696272
:102D30006520546F7069633A2025730D0A00000006
:102D40000038014030B5B3B000202F903090319062
:102D500032900125A02107AA37A3CDE90032CDE9A1
:102D6000021036A3414A42A144A0FFF7CDFE07A8B6
:102D70003FA331A244A100904F4800F0E2FE2FA8EB
:102D8000002102910391CDE90410084601210B02B4
:102D900029A2CDE9001007A935A0FEF7F1FF002810
:102DA00042D1309A91B22F98FEF788FAFA20FEF7B6
:102DB00093F90446002C33D02046FFF7E1FB0228AC
:102DC0002ED12046FFF7DCFA062823D2DFE800F0F8
:102DD00003090E13181D39A1374800F0B2FE002573
:102DE0001DE03BA1344800F0ACFE18E03FA13248A2
:102DF00000F0A7FE13E046A12F4800F0A2FE0EE06F
:102E00004BA12D4800F09DFE09E052A12A4800F098
:102E100098FE04E05AA1284800F093FE00BF00BFCE
:102E20002FA8FEF75BFF03E05CA1234800F089FEBA
:102E3000284633B030BD0000643100005630705A6F
:102E4000536A6C4462585679625870465245394903
:102E500055334668547A4E3053336874535531486D
:102E60005330746B5530673D0000000000CF9D74F7
:102E700041727A684C34343435490000323031388C
:102E80002D31302D333100004F6E654E45545F4477
:102E900065764C696E6B0D0A4E414D453A2025739F
:102EA0002C0950524F49443A2025732C094B45595F
:102EB0003A25730D0A000000003801405469707310
:102EC0003A09C1ACBDD3B3C9B9A60D0A00000000D0
:102ED0005741524E3A09C1ACBDD3CAA7B0DCA3BA20
:102EE000D0ADD2E9B4EDCEF30D0A00005741524EF9
:102EF0003A09C1ACBDD3CAA7B0DCA3BAB7C7B7A85B
:102F0000B5C4636C69656E7469640D0A00000000E5
:102F10005741524E3A09C1ACBDD3CAA7B0DCA3BADF
:102F2000B7FECEF1C6F7CAA7B0DC0D0A000000005C
:102F30005741524E3A09C1ACBDD3CAA7B0DCA3BABF
:102F4000D3C3BBA7C3FBBBF2C3DCC2EBB4EDCEF370
:102F50000D0A00005741524E3A09C1ACBDD3CAA771
:102F6000B0DCA3BAB7C7B7A8C1B4BDD328B1C8C82D
:102F7000E7746F6B656EB7C7B7A8290D0A0000002C
:102F80004552523A09C1ACBDD3CAA7B0DCA3BACEF0
:102F9000B4D6AAB4EDCEF30D0A0000005741524E4C
:102FA0003A094D5154545F5061636B6574436F6EC1
:102FB0006E656374204661696C65640D0A000000EB
:102FC00010B58CB0044630216846FDF7CAF81EA142
:102FD0002046FDF714F930216846FDF7C2F8204875
:102FE000827820A1684600F03BFF69462046FDF745
:102FF000C3F830216846FDF7B4F8194802781FA1DC
:10300000684600F02DFF69462046FDF7B5F83021EF
:103010006846FDF7A6F81F48007808B11EA000E03A
:103020001FA0024620A1684600F01AFF694620460C
:10303000FDF7A2F821A12046FDF79EF82046FDF7F6
:10304000C3F8C0B20CB010BD7B226964223A2231B1
:103050003233222C22706172616D73223A7B000040
:103060003C0000202274656D70223A7B2276616CF0
:103070007565223A25647D2C000000002268756D7C
:1030800069223A7B2276616C7565223A25647D2C33
:10309000000000000600002074727565000000004A
:1030A00066616C7365000000226C6564223A7B22C5
:1030B00076616C7565223A25737D00007D7D000088
:1030C0002DE9F04F89B00746002008900790069040
:1030D0000590049000250026804681463846FFF77B
:1030E0004FFA0546032D04D0042D42D0092D57D1A7
:1030F00048E0374804A905AA08ABCDE900210290B1
:1031000006AA07A93846FFF74BF90646002E2FD12D
:103110008246BDF814000899CDE90010BDF81830BA
:103120002CA13B48079A00F00CFD089801F004FC24
:10313000834638A1584601F0DFFB039037A103987E
:1031400001F0DAFB04467CB1E068012806D1642076
:10315000FEF7BCFD01203249087005E00020FEF7B3
:10316000B5FD00202E490870584601F099FB00BFBC
:1031700000BF3846FFF7F4F918B92AA1244800F037
:10318000E0FC10E03846FFF735FA20B92DA12048C1
:1031900000F0D7FC03E032A11D4800F0D2FC02E0B1
:1031A0004FF0FF3600BF00BFFDF788FF701C10B95D
:1031B00009B0BDE8F08F0F2D01D0032D05D1079880
:1031C00001F096FC089801F093FC00BFF0E70000C6
:1031D00046000020746F7069633A2025732C2074B8
:1031E0006F7069635F6C656E3A2025642C20706196
:1031F000796C6F61643A2025732C207061796C6F53
:1032000061645F6C656E3A2025640D0A0000000061
:1032100000380140706172616D7300006C6564007C
:1032200006000020546970733A094D5154542050DF
:1032300075626C6973682053656E64204F4B0D0A8C
:1032400000000000546970733A094D5154542053E2
:103250007562736372696265204F4B0D0A0000004E
:10326000546970733A094D51545420537562736315
:1032700072696265204572720D0A000030B5C5B0F2
:1032800000204190429043904490002400251CA1CE
:10329000234800F056FC4FF4807101A8FCF761FF51
:1032A00001A8FFF78DFE0446002C26D041A800237C
:1032B00022461CA100901CA0FEF78EFFC8B908E0B2
:1032C00001A8415D429A501C429041988154681C6B
:1032D00005B2A542F4DB429A91B24198FDF7EEFFA8
:1032E00014A10F48429A00F02CFC41A8FEF7F6FC0E
:1032F00003E014A10A4800F024FC45B030BD0000F2
:10330000546970733A094F6E654E65745F53656E0C
:1033100064446174612D4D5154540D0A0000000045
:10332000003801406431000041727A684C34343412
:103330003549000053656E64202564204279746528
:10334000730D0A005741524E3A094544505F4E658D
:1033500077427566666572204661696C65640D0A20
:10336000000000007047000010B500242B20FEF77D
:1033700033FB2849087000212920FEF7D7FB0021E4
:103380000220FEF7D3FB2348007800F01000C8B1FC
:10339000B220FEF721FB212814D1BF20FEF71CFB31
:1033A00035280FD1BA20FEF717FB0446002C05DDA7
:1033B000042C03DC10201849087006E0112016497F
:1033C000087002E011201449087000212B20FEF73C
:1033D000ADFB00211C20FEF7A9FB00212920FEF7F0
:1033E000A5FB00210220FEF7A1FB00212B20FEF708
:1033F0009DFB0021BA20FEF799FB0021BC20FEF7BF
:1034000095FB01210820FEF791FB00210820FEF723
:103410008DFB10BD3B000020000000200146002075
:10342000034A506820F44040084350607047000051
:103430000010024029B1064AD2690243044BDA6106
:1034400004E0034AD2698243014BDA61704700000D
:103450000010024029B1064A92690243044B9A6166
:1034600004E0034A92698243014B9A61704700006D
:103470000010024030B500210022002400232D4D11
:103480006D6805F00C0121B1042905D0082923D16C
:1034900005E0294D056022E0274D05601FE0254D20
:1034A0006D6805F47012234D6D6805F480340225B3
:1034B00005EB92421CB9214D554305600BE01D4DB3
:1034C0006D6805F400351DB11C4D5543056002E0E3
:1034D000194D5543056002E0174D056000BF00BF60
:1034E000144D6D6805F0F0010909154D6B5C056818
:1034F000DD4045600F4D6D6805F4E061090A104D2F
:103500006B5C4568DD4085600A4D6D6805F460516F
:10351000C90A0B4D6B5C4568DD40C560054D6D68A3
:1035200005F44041890B074D6B5CC568B5FBF3F5AD
:10353000056130BD0010024000127A0000093D0014
:10354000260000203600002070B50024002500BFB2
:103550001DE0FEF783F9052001F070FAFEF7DCF8B4
:1035600028B9FEF7BBFA052001F068FA0DE0052046
:1035700001F064FAFEF732F928B9FEF7AFFA052038
:1035800001F05CFA01E0012503E0601CC4B2052CE7
:10359000DFDB00BF284670BD704710B500F002F8B1
:1035A00010BD00000CB50020019000903348006869
:1035B00040F480303149086000BF3048006800F4B2
:1035C000003000900198401C0190009818B90198B3
:1035D000B0F5A06FF1D12948006800F4003010B1B7
:1035E0000120009001E0002000900098012843D1C4
:1035F0002348006840F01000214908600846006830
:1036000020F0030008600846006840F002000860EF
:103610001A484068194948600846406848600846AA
:10362000406840F4806048600846406820F47C10A0
:1036300048600846406840F4E81048600846006862
:1036400040F08070086000BF0C48006800F0007017
:103650000028F9D00948406820F003000749486075
:103660000846406840F00200486000BF03484068D8
:1036700000F00C000828F9D10CBD00000010024039
:1036800000200240042808D14FF0E021096941F0F0
:1036900004014FF0E022116107E04FF0E0210969D9
:1036A00021F004014FF0E0221161704770470000E3
:1036B00010B51348006840F0010011490860084641
:1036C0004068104908400E494860084600680E49A5
:1036D00008400B4908600846006820F48020086014
:1036E0000846406820F4FE0048604FF41F008860E0
:1036F000FFF753FF4FF000600449086010BD000061
:10370000001002400000FFF8FFFFF6FE08ED00E0A9
:1037100021B1028842F00102028004E002884FF6E3
:10372000FE731A40028070470146088F7047018976
:103730004FF6F872114001817047000070B5002407
:1037400000220023058C4FF6EF7635400584028C6D
:103750008388048B48F6FF752C404FF6FF452C40BC
:103760000D884FF6FF7606EA05252C434FF6DF75E8
:103770002A400D8906EA05152A434D8806EA0515F3
:103780002A43154DA84202D0144DA8421DD14FF630
:103790007F752A404D894FF6FF7606EA05152A43C4
:1037A0004FF6BF752A408D8806EA05152A434FF665
:1037B000FF352B404FF2FF752B408D8906EA8505BA
:1037C0002B43CD8906EA85052B4383800483CD886E
:1037D0000587028470BD0000002C014000340140C8
:1037E0000021018041808180C180018141818181EE
:1037F000C181704701877047002202881D4B9842A3
:103800000ED01D4B98420BD0B0F1804F08D01B4B0F
:10381000984205D01A4B984202D01A4B984204D1D4
:103820004FF68F731A404B881A43174B984207D0B4
:10383000164B984204D04FF6FF431A40CB881A43E8
:1038400002808B8883850B8803850A4B98420BD0B6
:10385000094B984208D00E4B984205D00D4B984228
:1038600002D00D4B984201D10B7A0386012383824B
:1038700070470000002C014000340140000400406B
:1038800000080040000C0040001000400014004000
:1038900000400140004401400048014010B540F2A2
:1038A00025511D4800F086F810B31B4800F03EF982
:1038B000C4B21A48008800F40040C8B9174800880C
:1038C00000F4804060B10A2C03D000201349088026
:1038D00020E01248008840F400401049088019E0B8
:1038E0000D2C06D10D48008840F480400B4908801B
:1038F00010E00A480088C0F30D0009490C5407483D
:103900000088401C0549088008460088C72801DD5A
:103910000020088010BD0000003801402400002075
:103920006000002010B540F225510E4800F042F82A
:10393000B8B10D480088B0F5007F02D300200A49D5
:1039400008800848001D0088C1B207480288008826
:10395000401C054B1880054881542021014800F087
:1039600007F810BD0044004042000020280100205C
:1039700001F40072B2F5007F00D100BFCA4302809B
:10398000704721B1828942F40052828104E0828929
:103990004DF6FF731A408281704702460020B1F550
:1039A000007F00D100BF13880B400BB1012000E065
:1039B0000020704770B50246002400230025002037
:1039C00040F66A16B14200D100BFC1F3421501F0C2
:1039D0001F03012606FA03F3012D02D19689334015
:1039E00006E0022D02D1168A334001E0968A334068
:1039F0000C12012606FA04F41688344013B10CB1F7
:103A0000012000E0002070BDF0B503460024002630
:103A10000025002040F66A17B94200D100BF1846C1
:103A2000C1F3421401F01F06012707FA06F5012C25
:103A300001D10C3004E0022C01D1103000E0143030
:103A40001AB107682F43076002E00768AF430760B9
:103A5000F0BD00002DE9F04786B005460E46002473
:103A6000A24600BFA1460027B08900B100BF2F4683
:103A70002C8A4CF6FF700440F08804432C82AC89F9
:103A80004EF6F3100440B088318908437189084329
:103A90000443AC81AC8A4FF6FF400440B089044334
:103AA000AC8201A8FFF7E6FC1F48874202D1DDF88F
:103AB00010A001E0DDF80CA0A88900F4004040B19E
:103AC0000AEBCA0000EB0A1031684900B0FBF1F8BC
:103AD00007E00AEBCA0000EB0A1031688900B0FB6E
:103AE000F1F86420B8FBF0F004012009642101FB27
:103AF0001089A88900F4004040B1322000EBC900D1
:103B0000B0FBF1F000F00700044308E0322000EBC6
:103B100009106421B0FBF1F000F00F0004432C8188
:103B200006B0BDE8F08700000038014001468888F3
:103B3000C0F308007047C1F308028280704700BFDD
:103B4000FEE70FB430B5CBB0054601AC50A80090ED
:103B50004FF4947101A8009B4F9A00F095F9002052
:103B600000900BE014F8011B2846FFF7E4FF00BFAC
:103B700040212846FFF711FF0028F9D020780028BF
:103B8000F0D14BB030BC5DF814FB2DE9F041074695
:103B90000C46154600260DE014F8011B3846FFF7C9
:103BA000CAFF00BF40213846FFF7F7FE0028F9D0D2
:103BB000701C86B2AE42EFDBBDE8F08170B5044602
:103BC00034B901204649087046A000F025F986E086
:103BD0004348007800287FD00020414908704348BE
:103BE0000078182858D007DC072873D2DFE800F0E7
:103BF00072131D273A4C50001C285ED006DC192891
:103C00004ED01A2850D01B2864D151E01D2858D01E
:103C100024285FD15AE036A000F0FEF86420FEF7B9
:103C200055F801203549087055E035A000F0F4F84A
:103C30000020FEF74BF80020304908704BE0FDF7FC
:103C4000F3FF642803D131A000F0E6F809E0FDF7A6
:103C5000EBFF193085B22846FEF738F82FA000F0A8
:103C6000DBF838E0FDF7E0FF18B930A000F0D4F839
:103C700009E0FDF7D9FF193885B22846FEF726F886
:103C80002EA000F0C9F826E030A000F0C5F822E030
:103C900033A000F0C1F81EE036A000F0BDF81AE035
:103CA00039A000F0B9F816E03CA000F0B5F812E039
:103CB0003FA000F0B1F80EE00EE042A000F0ACF83A
:103CC00009E046A000F0A8F805E003E049A000F0F4
:103CD000A3F800E000BF02E04AA000F09DF870BD2C
:103CE00002000020CAD5B5BD0D0A00000100002069
:103CF000B5C6D2D1B4F2BFAA0D0A0000060000205A
:103D0000B5C6D2D1B9D8B1D50D0A0000C1C1B6C867
:103D1000D2D1CEAAD7EEB4F30D0A0000C1C1B6C805
:103D2000D2D1D4F6BCD30D0A00000000C1C1B6C880
:103D3000D2D1CEAAD7EED0A10D0A0000C1C1B6C81B
:103D4000D2D1BCF5D0A10D0A0000000022BFAAB557
:103D5000C622CAB6B1F0B3C9B9A60D0A0000000068
:103D600022B9D8B5C622CAB6B1F0B3C9B9A60D0AF0
:103D70000000000022B9E3D6DD22CAB6B1F0B3C913
:103D8000B9A60D0A0000000022C9EEDBDA22CAB68D
:103D9000B1F0B3C9B9A60D0A0000000022CFF2D7D6
:103DA000F3D7AA22CAB6B1F0B3C9B9A60D0A00006A
:103DB00022CFF2D3D2D7AA22CAB6B1F0B3C9B9A6DC
:103DC0000D0A000022B4F2BFAABFD5B5F722CAB6C9
:103DD000B1F0B3C9B9A60D0A0000000022B9D8B1EC
:103DE000D5BFD5B5F722CAB6B1F0B3C9B9A60D0A89
:103DF0000000000022BAF3CDCB22CAB6B1F0B3C99D
:103E0000B9A60000C7EBCBB5B3F6D2BBBCB6BFDAE0
:103E1000C1EE0D0A000000000FB4054B10B503A958
:103E2000044A029800F094F910BC5DF814FB0000FD
:103E3000D54A0008200000200FB41CB50A46521EC7
:103E4000CDE9000207A9054B6A46069800F080F903
:103E5000009A002111701CBC5DF814FB7F4800081B
:103E60000FB4084B10B504A902AA039800F070F92A
:103E7000044602A9002000F00DFD204610BC5DF8AC
:103E800014FB0000954800087CB5491E1C461546E9
:103E9000CDE90001044B6A462146284600F058F956
:103EA000009A002111707CBD7F480008490050EA4B
:103EB000C12018BF04204A0D18BF40F0010040F295
:103EC000FF72B2EB515F08BF40F00200012808BF4B
:103ED000052070472DE9F0414F1E00EBC701044655
:103EE000D1E9000115461E4637F006020DD02A46DC
:103EF0003346FCF7B3FA7F1E04EBC703D3E9002374
:103F0000FCF705FA37F00602F1D1022F25D0042F75
:103F100013D0062F18BFBDE8F0812A463346FCF7C0
:103F20009DFAD4E90A23FCF7F2F92A463346FCF756
:103F300095FAD4E90823FCF7EAF92A463346FCF758
:103F40008DFAD4E90623FCF7E2F92A463346FCF75A
:103F500085FAD4E90423FCF7DAF92A463346FCF75C
:103F60007DFAD4E90223FCF7D2F92A463346FCF75E
:103F700075FAD4E90023BDE8F041FCF7C8B90000A8
:103F80000022134610460149FCF74CBC0000F03FEC
:103F9000FCF7BDB90022134610461146FCF742BC9F
:103FA00040F2013200204FF0E041FCF7AABC0000D3
:103FB000024A00201107FCF7A4BC000001FDFFFF2E
:103FC00002E008C8121F08C1002AFAD170477047E2
:103FD000002001E001C1121F002AFBD17047000040
:103FE00001490860704700005C0000202DE9FF5F78
:103FF000DDE90220010DDDF838B0024318D044F6A7
:104000001050A1F2FF3141430D140F98012820D028
:10401000A5EB0B00401C5FEA000A4FF00004474E7E
:10402000DFF81C91A046504616D5CAF1000728E0DB
:104030000F98012443A2012808D0002100980F9B6B
:10404000C0E90021C0E90243BDE8FF9F6FEA0B0110
:10405000F4E7CBF10000DEE7074612E0F80707D0EF
:104060002246334640464946FCF7F8F980468946E1
:104070002246334610461946FCF7F0F904460E4630
:104080007F10002FEAD1DDE90201BAF1000F4246AC
:104090004B4602DAFCF7E2F901E0FCF7C3FB044609
:1040A0000E460022284BFCF799FA03D84FF0FF3058
:1040B000014607E00022254B20463146FCF727F950
:1040C000FCF736FC102409E0002C0ADB0A2200234E
:1040D000FCF7B2FA019B30321A55641E50EA010215
:1040E000F2D1641C019AC4F1110314440F9A012AFD
:1040F00003D0012208430DD10AE0084304D0002078
:104100004FF0110B0F9080E7A3EB0B056D1E0DE038
:104110005B4504DD4FF0000205F1010504E003DA20
:104120004FF00002A5F10105002AECD000980F998C
:10413000C0E90231C0E9004586E7000000002440E4
:104140000000F03F300000000000F0430000E03FBE
:104150002DE9FF4F95B09B468946064600250FE2A4
:10416000252877D100242746F84A0121059400E04C
:10417000044316F8013F203B01FA03F01042F7D147
:1041800030782A2811D06FF02F033078A0F1300258
:10419000092A16D8059A44F0020402EB820203EBC6
:1041A00042021044761C0590EFE759F8042B059263
:1041B000002A03DA504244F40054059044F002040B
:1041C000761C30782E2816D116F8010F44F004041E
:1041D0002A280DD06FF02F023078A0F13003092B80
:1041E00009D807EB870302EB4303C718761CF3E7F4
:1041F00059F8047B761C30786C280FD006DC4C28EC
:1042000017D068280DD06A2814D104E0742810D083
:104210007A280FD10DE044F400140AE044F480142D
:1042200001E044F440147278824202D104F5801413
:10423000761C761C307866280BD013DC582877D093
:1042400009DC002875D04528F6D04628F4D0472848
:104250001AD19DE118E0632835D0642879D065280B
:1042600012D195E1702873D008DC6728F1D0692855
:104270006FD06E280DD06F2806D1B5E073282CD0F2
:10428000752875D0782874D05A46179990476D1CB8
:1042900075E1C4F30250022809D003280DD0D9F8E3
:1042A000001004280DD00D6009F1040967E1D9F868
:1042B0000010EA17C1E90052F6E7D9F800100D80A6
:1042C000F2E70D70F0E719F8041B8DF800100020DC
:1042D0008DF80100EA46012003E059F804AB4FF0E5
:1042E000FF3061074FF0000102D40DE008F1010139
:1042F0008846B9420FDA8045F8DB1AF80810002921
:10430000F4D108E008F1010188468142FADB1AF88D
:1043100008100029F6D105985B46A0EB0807214656
:104320003846179A00F094FA284400EB080507E095
:104330004DE029E10DE01AF8010B5A461799904714
:10434000B8F10108F7D25B4621463846179A13E1C7
:1043500042E00A220092C4F302524FF0000A022AFD
:1043600008D059F804CB032A4FEAEC710AD00DE0CB
:1043700029E02AE009F1070121F00702F2E802C171
:10438000914609E00FFA8CFC4FEAEC71042A03D144
:104390004FFA8CFC4FEAEC71002907DA0A4600213B
:1043A000DCF1000C61EB02012D2202E0220504D5B4
:1043B0002B228DF80420012203E0E20701D0202205
:1043C000F7E7904659E00A2102E010220DE01021A3
:1043D0004FF0000A00910BE010224FF0000A44F069
:1043E00004040827009203E008224FF0000A00921C
:1043F000C4F30252022A05D059F804CB0021032A43
:1044000008D009E009F1070121F00702F2E802C132
:10441000914605E01FFA8CFC042A01D10CF0FF0C38
:104420004FF00008220728D5702806D0009B83F0A3
:10443000100353EA0A0305D00EE040228DF8042051
:10444000012208E05CEA010206D030228DF8042047
:104450008DF8050002229046009B83F0080353EA82
:104460000A030AD15CEA010201D1620705D53022B4
:104470008DF804204FF001087F1E582804D034A086
:1044800003900EA802900DE036A0F9E7534660466F
:10449000009AFCF7D1F884460398825C0298401E8B
:1044A000029002705CEA0100F0D1029806A9081A95
:1044B00000F1200A600702D524F4803400E00127CF
:1044C000574502DDA7EB0A0000E0002000EB0A01DF
:1044D000009005984144401A0590E00306D45B46DD
:1044E0002146179A059800F0B3F90544002706E025
:1044F00001A85A46C05D179990476D1C7F1C47451F
:10450000F6DBE0030CD55B462146179A059800F0D0
:104510009FF9054404E030205A46179990476D1CD6
:104520000099481E00900029F5DC08E002980299E5
:104530005A460078491C0291179990476D1CBAF1B0
:104540000001AAF1010AF1DC65E10000092801007F
:1045500030313233343536373839616263646566F9
:1045600000000000303132333435363738394142BB
:10457000434445460000000000F058F90544761C0D
:10458000307800287FF4ECAD19B02846BDE8F08FF4
:10459000620700D4062709F1070222F0070CFCE8A5
:1045A0000223E14603F000485FEA080C02D00FF254
:1045B000702C0DE05FEA045C02D50FF2682C07E076
:1045C0005FEAC47C02D00FF2602C01E0AFF2700C05
:1045D0004FF0FF3823F00043CDF850C065280CD0D1
:1045E00006DC452809D046281DD047283DD13DE0AE
:1045F000662818D067287ED138E00021112F01DB12
:10460000112000E0781CCDE9000106A90EA8FFF7F3
:10461000EDFCDDE90F010E9A03910021009207F1F4
:10462000010A04914DE04FF000400097CDE90110E0
:1046300006A90EA8FFF7DAFCDDE90F0203920E9B34
:1046400011990022DDF80CA00093049211B9791C95
:1046500000EB010AB7EB0A0004D4C0F1FF3007F108
:10466000010A0490AAEB0700019044E0012F00DA50
:1046700001270021112F01DD112000E03846CDE98E
:10468000000106A90EA8FFF7B1FCDDE90F010E9AA3
:104690000391002104910092BA4621070CD403999A
:1046A000514500DA8A46BAF1010F05DD009AAAF1F8
:1046B0000101515C302908D0B84202DA10F1040F30
:1046C00006DA0121CDE9011015E0AAF10101E9E7BF
:1046D000002805DC049901440491AAEB000102E0E2
:1046E000411C514500DD8A460499401A401C019046
:1046F0004FF000400290200704D40198504501DBA0
:10470000CDF8048000208DF84F0002980DF14F077E
:10471000B0F1004F25D02B200E9002984FF00208E8
:1047200000280CDA404202902D200E9007E00A216A
:104730000298FBF76BFF3031029007F8011DB8F1CA
:104740000001A8F10108F2DC02980028EFD1791EDF
:104750000E980870307800F0200040F0450007F80F
:10476000020D12A8C01B00F107081498007800B1D0
:10477000012000EB0A01019801EBE071059841442A
:10478000401A401E0590E00306D45B462146179A66
:10479000059800F05DF805441498007818B15A4661
:1047A000179990476D1CE00324D55B462146179A64
:1047B000059800F04DF805441CE00498002807DB3C
:1047C000DDE90301884203DD0098405C179901E0B0
:1047D000179930205A469047049805F10105401C6E
:1047E00004900198401E019004D12E205A4617993A
:1047F00090476D1CBAF10001AAF1010ADDDC05E069
:1048000017F8010B5A46179990476D1CB8F1000133
:10481000A8F10108F4DC5B462146179A0598ABE63F
:104820002D0000002B000000200000002DE9F041C9
:10483000044600251E461746880404D405E0394680
:104840002020B0476D1C641EF9D52846BDE8F081D4
:104850002DE9F041044600251E469046C80301D5C7
:10486000302700E02027880404D505E0414638467B
:10487000B0476D1C641EF9D52846BDE8F0814A6832
:10488000002A06D00A68531C0B6010704868401E4E
:10489000486070470A68531C0B6010707047000036
:1048A00070B5044622E02568A08900F4807020B924
:1048B000A06810B1A068FFF7F3FFA08900F4807032
:1048C00028B9206918B10B49206909688847A0896F
:1048D00000F4007028B9206A18B10649206A0968F6
:1048E000884720460349096888472C46002CDAD1BE
:1048F00070BD00005000002070B505460E46AC6843
:1049000000E024682CB13146206A00F04FF80028FE
:10491000F7D1204670BD000010B528200549096870
:10492000884704461CB128212046FBF71AFC204684
:1049300010BD00004C00002010B5044600221146B6
:10494000204600F001F810BD2DE9F04780460D46E5
:1049500016460024FFF7E0FF0746002012490860D2
:104960000FB9BDE8F087404601F028FD8146494671
:10497000384600F08FFE044624B93846FFF790FF12
:104980000020EEE766B1204601F018FD04462078CD
:1049900030B13846FFF784FF034804600020E0E7A9
:1049A00005B12C603846DCE74800002070B50446AD
:1049B0000D462CB9AC4201D0012070BD0020FCE7AF
:1049C0000DB90120F9E705E0207808B90020F4E7E7
:1049D000641C6D1C2078FBF7A5FB06462878FBF7C6
:1049E000A1FB8642F0D02078FBF79CFB0646287896
:1049F000FBF798FB301AE0E710B56FF00400FEF704
:104A000041FE0A4800680A49B0FBF1F00949087004
:104A10000846007800EB4001C1EBC0104FF6FF7173
:104A200001EAC0000449088010BD00000800002011
:104A300000127A001C0000201E0000200146114ACE
:104A400012884A434FF0E0235A6100229A611A46C5
:104A5000126942F001021A6100BF4FF0E0221069B2
:104A600000F001021AB100F48032002AF5D04FF0B4
:104A7000E022126922F001024FF0E0231A610022C5
:104A80009A6170471E0000200146114A12784A437D
:104A90004FF0E0235A6100229A611A46126942F0EF
:104AA00001021A6100BF4FF0E022106900F001021C
:104AB0001AB100F48032002AF5D04FF0E0221269DA
:104AC00022F001024FF0E0231A6100229A61704740
:104AD0001C00002000BF054A128802F04002002A94
:104AE000F9D0C2B2014B1B1D1A807047003801403B
:104AF00010B5002821D0114B0022001F196803E0D7
:104B0000814203D80A4649680029F9D152B1136895
:104B1000841A9C4204D1006818441060104602E0D8
:104B2000506000E0186039B102680B1A934203D15B
:104B30000B681A4402604968416010BD54000020AF
:104B4000F0B50446142C06DA01EA020523EA010650
:104B500085EA060019E0282C04DA81EA020787EAD0
:104B6000030012E03C2C0ADA01EA020501EA03071D
:104B700087EA050602EA030787EA060005E0502CEB
:104B800003DA81EA020787EA0300F0BD2DE9F04F5E
:104B9000ADF5B36D07460E4692469846DDF8BC95D6
:104BA00040254FF0360B5C20CDF89405002404E03E
:104BB00000200DF254510855641C402CF8DBAE4225
:104BC0001DD0AE420FDD4A463146384601F0B4FAF8
:104BD000002405E019F804000DF254510855641C36
:104BE000142CF7DB14E0AE4212DA002404E0385D46
:104BF0000DF254510855641CB442F8DB08E000245F
:104C000004E0385D0DF254510855641CAC42F8DBE9
:104C1000002408E00DF25450005D80EA0B000DF214
:104C200014510855641C402CF4DB002405E00DF2FF
:104C30001450005D15A90855641C402CF7DB0024B6
:104C400006E01AF8041015AA04F140001154641C7F
:104C50004445F6DB08EB05014A4615A801F06CFA5D
:104C6000002409E00DF25450005DDDF89415484031
:104C70000DF2D4410855641C402CF3DB002405E000
:104C80000DF2D440005D0DF80400641C402CF7DBED
:104C9000002406E019F8041004F140000DF800109B
:104CA000641C142CF6DB4A4605F11401684601F039
:104CB00043FA0DF5B36DBDE8F08F000001461429ED
:104CC00001DA07480AE0282901DA064806E03C290B
:104CD00001DA054802E0502900DA04487047000074
:104CE0009979825AA1EBD96EDCBC1B8FD6C162CAFE
:104CF0004FF4A060FDF7D4FCFFF77EFEFCF7C6FC86
:104D0000FCF72BFBFCF796FFFCF7E8FE4FF4E130D5
:104D100001F084FB4FF4E13001F0D2FB0020704938
:104D20000870704908607049087000250024FDF77C
:104D300051FDFBF751FFFCF7F7F96CA17248FEF744
:104D400000FF03E04FF4FA70FFF778FE6FA171A047
:104D5000FCF78AFA0028F5D17AA16B48FEF7F1FE3C
:104D60006420FFF76BFE03E04FF47A70FFF766FEF6
:104D7000FDF7E8FF0028F7D1FDF794FF79A0FFF7D2
:104D80004BF87BA201210846FDF7F2FD7DA201212F
:104D90000220FDF7EDFD7EA201210320FDF7E8FDD5
:104DA0009CE04F480078102815D003DC48B101285A
:104DB0001DD104E011281BD0312818D100E000BF1C
:104DC0001AE0012046490870FEF7BEFB10B93120F9
:104DD0004349087010E0FCF75BFD71490870084614
:104DE0000078FEF7EBFE00203D49087004E000BFAC
:104DF00000203B49087000BF00BFFBF7DBFE69499C
:104E000008800988A1F16400FBF79AFB8146664996
:104E1000FBF73FFA80466549FBF709FA0746FBF7BF
:104E2000A9FB80B2C0F164060223324607210320A9
:104E3000FDF77CFD5B490988A1F16400FBF780FB6D
:104E400081465949FBF725FA80465949FBF7EFF9A6
:104E50000746FBF78FFB80B2642190FBF1F201FB68
:104E60001200C0F16406022332460A210320FDF736
:104E70005DFDFCF787F8A0B14E48827802230D2132
:104E80000120FDF753FD4B48C2780123102118463D
:104E9000FDF74CFD4748027802230A211846FDF72A
:104EA00045FD4FF47A70FFF7C9FD681C80B20546D6
:104EB0000A2808DB40A11448FEF743FEFEF7DEF99E
:104EC0000025FCF7FBF80020FCF706F9044614B1B6
:104ED0002046FEF7F5F80A20FFF7B0FD61E7000075
:104EE000000000209081214206000020436F6E6E7A
:104EF000656374204D515454205365727665722E4B
:104F00002E2E0D0A0000000000380140434F4E4E87
:104F10004543540041542B43495053544152543D4E
:104F200022544350222C226D717474732E68656371
:104F30006C6F7564732E636F6D222C313838330DAE
:104F40000A000000436F6E6E656374204D51545427
:104F50002053657276657220537563636573730DB4
:104F60000A000000D4CBD0D0B3CCD0F20D0A0000A0
:104F700054656D70657261747572653A30302E30AB
:104F80000000000048756D69646974793A0000009A
:104F90004C696768743A30302E30302500000000CC
:104FA0000100002004000020004035450000C842F8
:104FB00000401C463C0000204F6E654E65745F53F8
:104FC000656E64446174610D0A000000F0B50B3039
:104FD000154D20F007010024144A0FE003688B42AE
:104FE0000BD38B4205D95E1A43184768C3E90067A3
:104FF00000E04368136002C004E0021D106800284E
:10500000ECD12046002802D1286808B10020F0BD6C
:10501000064A07481060074A121A22F00702C0E940
:10502000002401202860D7E7580000205400002009
:105030002C030020280500202DE9F04705460C46EA
:1050400020785B2804D0264804600020BDE8F08763
:105050000520E860601C01F0B1F9044620785D2865
:1050600001D1601CF2E7FFF757FC0646A860A8686C
:1050700008B90020EAE7204601F0A0F98046414641
:10508000304600F007FB074601F098F904460CB9DA
:105090000020DBE717E0FFF73FFC070000D1D5E772
:1050A00037607E603E46601C01F088F981464946C3
:1050B000304600F0EFFA804601F080F904460CB962
:1050C0000020C3E700BF20782C28E4D020785D289A
:1050D00001D1601CBAE7024804600020B6E7000076
:1050E00048000020014600220878302806DB0878B6
:1050F000392803DC08783038024415E00878412864
:1051000006DB0878462803DC0878373802440BE0D1
:105110000878612806DB0878662803DC08785738A9
:10512000024401E0002070471201491C0878302831
:1051300006DB0878392803DC08783038024415E0AB
:105140000878412806DB0878462803DC08783738D9
:1051500002440BE00878612806DB0878662803DC47
:1051600008785738024401E00020DCE71201491CAE
:105170000878302806DB0878392803DC08783038CE
:10518000024415E00878412806DB0878462803DC4D
:105190000878373802440BE00878612806DB087885
:1051A000662803DC08785738024401E00020BAE79B
:1051B0001201491C0878302806DB0878392803DCFE
:1051C00008783038024415E00878412806DB087872
:1051D000462803DC0878373802440BE00878612859
:1051E00006DB0878662803DC08785738024401E0BB
:1051F000002098E7104696E72DE9F04F8BB08346E4
:105200008A460020044605460026674F002188464E
:1052100089460990012008909AF800002D2802D1B3
:10522000624F0AF1010A9AF80000302801D10AF110
:10523000010A9AF80000312822DB9AF80000392888
:105240001EDC00BF1AF8011BA1F13000FBF781F949
:105250000022574BCDE9060120462946FBF7FEF810
:10526000CDE90401DDE90623FBF751F804460D46BC
:105270009AF80000302803DB9AF800003928E1DDB5
:105280009AF800002E2830D19AF8010030282CDB43
:105290009AF80100392828DC0AF1010A00BF1AF83F
:1052A000011BA1F13000FBF754F90022404BCDE97E
:1052B000060120462946FBF7D1F8CDE90401DDE9D6
:1052C0000623FBF724F804460D460022364B4046E1
:1052D0004946FBF7BDF8804689469AF80000302819
:1052E00003DB9AF800003928D9DD9AF80000652818
:1052F00003D09AF80000452823D10AF1010A9AF850
:1053000000002B2802D10AF1010A08E09AF80000F7
:105310002D2804D14FF0FF3008900AF1010A08E06F
:105320001AF8010B3038099901EB810100EB4100BB
:1053300009909AF80000302803DB9AF80000392819
:10534000EEDDDDE9082101FB02F0FBF702F9424640
:105350004B46CDE90001FAF7DAFF02460B46CDE9EC
:1053600002010020124900F0F3F922462B46CDE954
:10537000060130463946FBF771F8CDE90401DDE955
:105380000623FBF76BF804460D46CBE9064520469D
:105390002946FBF703F9CBF814000320CBF80C00E7
:1053A00050460BB0BDE8F08F0000F03F0000F0BFAA
:1053B000000024402DE9F04706460C4620787B2863
:1053C00004D0404804600020BDE8F0870620F0606B
:1053D000601C00F0F3FF044620787D2801D1601C9A
:1053E000F2E7FFF799FA0546B060B06808B9002007
:1053F000EAE7204600F0E2FF80464146284600F0FA
:1054000063F8074600F0DAFF04460CB90020DBE73A
:10541000286928620020286120783A2803D029488A
:1054200004600020D0E7601C00F0C8FF80464146C1
:10543000284600F02FF9074600F0C0FF04460CB9DB
:105440000020C1E731E0FFF767FA070000D1BBE7B2
:105450002F607D603D46601C00F0B0FF81464946EC
:10546000284600F031F8804600F0A8FF04460CB949
:105470000020A9E7286928620020286120783A28BE
:1054800003D01048046000209EE7601C00F096FFE7
:1054900081464946284600F0FDF8804600F08EFF20
:1054A00004460CB900208FE700BF20782C28CAD012
:1054B00020787D2801D1601C86E702480460002026
:1054C00082E70000480000202DE9F05F834688460F
:1054D00008F10104002798F80000222805D06A4846
:1054E000C0F800800020BDE8F09F04E014F8011B24
:1054F0005C2900D1641C2078222804D0207810B1C7
:10550000781C0700F2D1781C6049096888478146F9
:10551000B9F1000F01D10020E5E708F101044D4683
:105520009EE020785C2804D014F8010B05F8010BEC
:1055300096E0641C2078722818D006DC622809D016
:1055400066280BD06E287DD10CE0742812D0752807
:10555000F9D113E0082005F8010B7FE00C2005F8D5
:10556000010B7BE00A2005F8010B77E00D2005F820
:10557000010B73E0092005F8010B6FE0601CFFF7D9
:10558000B1FD0646241DB6F55C4F02D3B6F5604F5B
:1055900000D306B962E0B6F5584F1CD3B6F55C4FA0
:1055A00019D260785C2802D1A078752800D055E027
:1055B000E01CFFF797FD8246A41DBAF55C4F02D3AD
:1055C000BAF5604F00D349E0C6F30901504661F3D4
:1055D0009F2000F580360427802E01D2012708E0A5
:1055E000B6F5006F01D2022703E0B6F5803F00D286
:1055F00003273D44012F20D0022F15D0032F0AD0BE
:10560000042F24D106F0BF0040F08001681E05463B
:105610000170B60900BF06F0BF0040F08001681EAF
:1056200005460170B60900BF06F0BF0040F08001DA
:10563000681E05460170B60900BF1548C05D3043BD
:10564000C1B200E006E0681E0546017000BF00BF61
:105650003D4403E0207805F8010B00BF00BF641C47
:105660002078222803D0207800287FF45AAF002029
:1056700028702078222800D1641CCBF810900420D8
:10568000CBF80C0020462EE7480000204C000020FC
:10569000306D000870B505460C460CB9002070BD91
:1056A000042224A12046FAF7B3FD18B90220E860CD
:1056B000201DF4E7052221A12046FAF7A9FD18B91B
:1056C0000020E860601DEAE704221EA12046FAF7E8
:1056D0009FFD20B90120E8606861201DDFE7207888
:1056E000222804D121462846FFF7EEFED7E720788E
:1056F0002D2805D02078302807DB2078392804DCD5
:1057000021462846FFF778FDC9E720785B2804D1B9
:1057100021462846FFF790FCC1E720787B2804D17A
:1057200021462846FFF746FEB9E7084804600020F6
:10573000B5E700006E756C6C0000000066616C736C
:1057400065000000747275650000000048000020CC
:105750002DE9F04D16460F4694B01C4621F000414D
:1057600023F00042002814BF4FF0010C4FF0000C52
:105770000CEB470CFE4B0CEB03054FEA630C654545
:105780002BD3350018BF012505EB44051D44F94B0B
:105790009D4222D3F84B52EA060C02D09F4205D11B
:1057A00048B914B000201946BDE8F08D002808BFA4
:1057B0004FF0000C01D04FF0010C0CEB470313F538
:1057C000001F0AD8002E14BF4FF0010C4FF0000C40
:1057D0000CEB440313F5001F07D914B032462346DF
:1057E0003946BDE8F04DFEF7D3BBDFF890834FF0AC
:1057F000000A002FB8BF424523DAE14B9A42A8BF06
:105800004FF0020A1DDADC4B93421ADCDD4B03EB4E
:105810002253142B08DDC3F1340C26FA0CF303FADF
:105820000CFCB4450DD108E05EB9C3F1140C22FAAA
:105830000CF303FA0CFC944503D103F00103C3F10C
:10584000020A51EA00031BD1002C19DA002F18BFFD
:10585000BAF1020F02D0BAF1010F07D00220FEF711
:10586000BFFB14B0BDE8F04DFEF78ABB0220FEF787
:10587000B7FBFEF785FB14B081F00041BDE8F08D69
:10588000330070D1424525D107F1804212F58012D4
:1058900001BF00280020B84914B008BFBDE8F08D52
:1058A000B548884207DC002CA1BF1846214614B039
:1058B000BDE8F08D07E0002CBFBF184684F0004122
:1058C00014B0BDE8F08DB0497944D1E9000114B0BD
:1058D000BDE8F08DDFF8A0C262452AD1002C24DAA1
:1058E00039B1414517D1002804BF002002461CD120
:1058F00006E040B10220FEF773FBFEF751FB0A46BB
:10590000394600F0D7BA9D4A394614B0002062F3F8
:105910001E01BDE8F08D08DA14B03B46BDE8F04D3D
:10592000024600206146FAF77DBF14B03946BDE853
:10593000F08D414517DAB4F1804F0CD0A4F100533B
:10594000B3F1FF530FD13B1E0DDB14B01946BDE878
:10595000F04D00F03CBD3B4614B00246BDE8F04DB2
:105960001946FAF77BBD050027F000433AD1E1B1B3
:10597000414537D1002F06DD002CA1BF0020414654
:1059800014B0BDE8F08D002F01DD002C1FDB002FCF
:1059900016DA002C14DBBAF1010F4FF0000014BF2F
:1059A00076497A4914B0BDE8F08DBAF1020F18BFFC
:1059B000002F0CD0BAF1010F09D1002F07DA0BE04C
:1059C000002FB8BF002C0DDABAF1010F04D000206F
:1059D00014B00146BDE8F08D14B000204FF0004136
:1059E000BDE8F08D4FF0010808EBE77CCDF814C05E
:1059F0005CEA0A0C0DD0DFF898C162457EDDDFF865
:105A000094C1654B624512DD8B420ADB002C18DB2A
:105A100023E00120FEF7E4FA14B0BDE8F04DFEF7F4
:105A2000B9BA554A8A4202DC002C0ADC15E09942D8
:105A300002DA002C11DA04E04F4B994219DD002CF8
:105A40000BDD0220FEF7CCFAFEF7AAFA4B4A14B09F
:105A500061F31E021146BDE8F08D0220FEF7C0FA88
:105A6000FEF7A6FA444A14B061F31E021146BDE8DF
:105A7000F08D00223946FAF7EBFC07460D466FF031
:105A80000102FAF73EFF4FF05532444BFAF7E3FCC0
:105A90003A462B46FAF7E2FC0022414BFAF7DBFCD0
:105AA00080468B463A462B4610461946FAF7D6FCF6
:105AB00042465B46FAF7D2FC88460E904FF0C04251
:105AC000384B38462946FAF7C9FC83460091364AD6
:105AD000344B41460E98FAF7C1FC80460191334A97
