:020000040800F2
:10000000180D0020010100083921000825150008FD
:1000100035210008CD0D00084B320008000000001B
:10002000000000000000000000000000312E000869
:100030005D0F000800000000FD2B0008452F0008A0
:100040001B0100081B0100081B0100081B01000820
:100050001B0100081B0100081B0100081B01000810
:100060001B0100081B0100081B0100081B01000800
:100070001B0100081B0100081B0100081B010008F0
:100080001B0100081B0100081B0100081B010008E0
:100090001B0100081B0100081B010008D511000806
:1000A0001B0100081B0100081B0100081B010008C0
:1000B0001B0100081B0100081B0100081B010008B0
:1000C0001B0100081B0100081B0100081B010008A0
:1000D0001B010008A92F0008313000081B0100088F
:1000E0001B0100081B0100081B010008DFF80CD0F1
:1000F00000F04CFB004800473D410008180D00206F
:100100000648804706480047FEE7FEE7FEE7FEE7B1
:10011000FEE7FEE7FEE7FEE7FEE7FEE7492F000801
:10012000ED00000840EA01039B0703D009E008C97D
:10013000121F08C0042AFAD203E011F8013B00F8AC
:10014000013B521EF9D27047D2B201E000F8012BF8
:10015000491EFBD270470022F6E710B513460A4647
:1001600004461946FFF7F0FF204610BD421E12F864
:10017000013F002BFBD111F8013B02F8013B002BA2
:10018000F9D1704730B505462A460B4612F8010BE7
:1001900013F8014B08B1A042F8D01CB1002802D0DE
:1001A0006D1CF1E7284630BDCAB2401E10F8011F91
:1001B0008A4202D00029F9D100207047421C10F871
:1001C000011B0029FBD1801A704710B5044600E0DE
:1001D000401C0378002BFBD100E0401C521E04D3CE
:1001E00011F8013B0370002BF7D10021017020466C
:1001F00010BD034611F8012B00F8012B002AF9D19C
:100200001846704780EA010210B502F00043400032
:1002100022D04A001FD0010E01EB1261C0F356003C
:10022000C2F3560240F4000042F40002A0FB022098
:1002300000047F39140400D0401C50EA124001D45D
:100240004000491EC2B20C0604EBD010401C40080E
:10025000802A02D003E0002010BD20F00100002918
:1002600000DA0020184310BD30B480EA010202F029
:10027000004530F0004221F0004013D090B1C30D92
:10028000D40DC2F31601C0F31600E41A41F40001C4
:1002900040F400027D34914201D3641C00E0490027
:1002A000002C02DA30BC002070474FF4000000231D
:1002B000914201D3891A034340084FEA4101F7D123
:1002C00051B1914202D14FF0004105E002D24FF00E
:1002D000010101E06FF0010103EBC450284430BC80
:1002E00000F064B8C10F80EAE0700844CA079623A2
:1002F000002100F064B820F00040C10DC0F31600EA
:1003000040F400007F2901DA00207047962903DCC1
:10031000C1F19601C840704796398840704730B5A2
:100320000B46014600202022012409E021FA02F5B3
:100330009D4205D303FA02F5491B04FA02F528444D
:10034000151EA2F10102F1DC30BD2DE9F05F05467A
:10035000002092469B4688460646814640241BE084
:10036000284641464746224600F031FA53465A464F
:10037000C01A914110D311461846224600F018FACF
:100380002D1A67EB01084F4622460120002100F09C
:100390000FFA17EB00094E41201EA4F10104DFDC27
:1003A000484631462A464346BDE8F09F0029A8BF8B
:1003B0007047401C490008BF20F00100704710B48E
:1003C000B0FA80FC00FA0CF050EA010404BF10BC43
:1003D000704749B1CCF1200421FA04F411FA0CF170
:1003E00018BF012121430843A3EB0C01CB1D4FEAA9
:1003F00000614FEA102042BF002010BC704700EBA4
:10040000C35010440029A4BF10BC7047401C4900D1
:1004100008BF20F0010010BC70472DE9FE4F804658
:1004200081EA0300C00F0C46009021F0004123F048
:100430000045B8EB0200A94105D24046214690464E
:100440001C460B46024623F00040104347D0270DC0
:10045000C7F30A00C3F30A510290401A01904028E2
:100460006BDAC3F3130040F4801B0098924620B16E
:100470000023D2EB030A63EB0B0B01985946C0F142
:100480004002504600F094F906460D465046594643
:10049000019A00F0ACF910EB08006141002487EAF2
:1004A000115284EAE7731A4340D0009A62B3019A6A
:1004B000012A4FEA075215DC001B61EB02014FF0E5
:1004C000004202EA0752CDE90042001C41F58011CA
:1004D00032462B4600F0ACF903B0BDE8F08F404641
:1004E0002146F9E7001B61EB0201001C41F5801376
:1004F00000185B412018A2F5001747EB030140EA02
:10050000D570B6196D4111E06D084FEA360645EA1F
:10051000C0754FEA0752001B61EB0201001C41F558
:10052000801149084FEA30000019514132462B46EC
:1005300003B0BDE8F04F00F06CB900980122400014
:100540000023D0EB020263EBE073009821464FEAF0
:10055000E074B8EB000061EB0401E9E783F00043CD
:100560005BE781F0004158E72DE9FE4F81EA030483
:1005700004F0004421F0004100944FF0000B23F000
:10058000004350EA01045ED052EA03045BD0C3F397
:100590000A54C1F30A552C44A4F2F3340194A0FB8D
:1005A0000254C1F3130141F48011C3F3130343F464
:1005B000801301FB024400FB034E840A970A44EABD
:1005C000815447EA8357A4FB076802958D0A05FB0F
:1005D00007854FEA932C04FB0C542705029D4FEA34
:1005E000065847EA1637B5EB08056EEB070C870E81
:1005F000920E47EA811742EA8312A7FB0201B6EB8B
:100600000B0164EB00042B0D43EA0C335E1844EB42
:100610001C50DA465146E7FB0201C5F313044FEACA
:100620000B3343EA14534FEA0432019C43EA0603B6
:10063000A4F10C040294009CCDE900B400F0F8F899
:1006400003B0BDE8F08F00200146F9E72DE9F04D39
:1006500081EA030404F0004B21F0004514464FF0FA
:10066000000A23F0004150EA050220D054EA0102BA
:100670001DD0C5F30A570246C5F31303C1F3130097
:10068000C1F30A5640F4801543F48013A7EB060823
:10069000101BD64608F2FD3873EB050002D308F1B3
:1006A000010801E092185B41B8F1000F03DA002065
:1006B0000146BDE8F08D00204FF4801106468446C7
:1006C0000EE0171B73EB050705D3121B63EB050345
:1006D00006434CEA010C49084FEA300092185B418E
:1006E00050EA0107EDD152EA030012D082EA040079
:1006F00083EA0501084305D0101BAB4106D2012255
:10070000002306E000224FF0004302E06FF00102F8
:1007100053101AEB06004CEB085110EB0A0041EBAA
:100720000B01BDE8F04D00F074B8C1F30A52C1F3FB
:10073000130140F2FF3341F480119A4202DA0020A3
:100740000146704740F233439A42A2F2334202DC40
:10075000524200F03CB800F02BB8000030B5041E47
:1007600071F1000404DB4FF00044404264EB0101EE
:10077000141E73F1000405DB1C464FF00043524287
:1007800063EB0403994208BF904230BD064C074D0D
:1007900006E0E06840F0010394E807009847103451
:1007A000AC42F6D3FFF7A6FCA0500008C0500008EA
:1007B000202A04DB203A00FA02F100207047914021
:1007C000C2F1200320FA03F3194390407047202A16
:1007D00004DB203A21FA02F00021704721FA02F3EB
:1007E000D040C2F120029140084319467047202AA8
:1007F00006DBCB17203A41FA02F043EAE07306E049
:1008000041FA02F3D040C2F1200291400843194658
:10081000704710B5141E73F1000408DA401C41F152
:10082000000192185B411A4301D120F0010010BD74
:100830002DE9F04D92469B4611B1B1FA81F202E0EA
:10084000B0FA80F220329046FFF7B2FF04460F461E
:1008500040EA0A0041EA0B0153465A46084313D0C6
:10086000114653EA010019D0C8F140025046FFF783
:10087000AEFF05460E46504659464246FFF798FFE2
:10088000084305D0012004E020463946BDE8F08D3C
:100890000020054346EAE0762C4337430A98630577
:1008A000E40AA0EB08000022FD0A44EA47540A309B
:1008B00002D500200146E9E7010510196941DDE98B
:1008C000084500196941BDE8F04DA2E721B18268F1
:1008D00042F00102826003E0826822F0010282603D
:1008E0007047014600208A6802F004020AB1012024
:1008F00000E0002070470146C86C80B27047024695
:10090000002013680B400BB1012000E0002070476D
:10091000014600208A6802F008020AB1012000E0C6
:100920000020704730B502460020002350680F4C6D
:1009300020400D790C6844EA0524204350609068FB
:100940000B4C2040D1E902542C434D7944EA450434
:1009500020439060D06A20F470000C7C641EE4B2E6
:10096000234340EA0350D06230BD0000FFFEF0FF99
:10097000FDF7F1FFF0B504460D4600200021092DDA
:1009800011DDE068A5F10A0606EB4607072606FA20
:1009900007F18843A5F10A0606EB460603FA06F1BD
:1009A0000843E0600CE0206905EB4507072606FADE
:1009B00007F1884305EB450603FA06F10843206179
:1009C000072A0FDA606B561E06EB86071F2606FA0B
:1009D00007F18843561E06EB860605FA06F1084322
:1009E000606322E00D2A0FDA206BD61F06EB860724
:1009F0001F2606FA07F18843D61F06EB860605FA7E
:100A000006F10843206310E0E06AA2F10D0606EB50
:100A100086071F2606FA07F18843A2F10D0606EBAA
:100A2000860605FA06F10843E062F0BD816841F0F0
:100A300008018160704721B1826842F4A00282609F
:100A400003E0826822F4A00282607047816841F06E
:100A5000040181607047000010B501210648FFF7CE
:100A6000EAFF00BF02210448FFF749FF0028F9D040
:100A70000148FFF740FF10BD0024014000B587B0DA
:100A80000121480202F032F90121042002F02EF97E
:100A90004FF4004002F00EF900208DF81B000120F9
:100AA000ADF8180003208DF81A0006A9194800F0C7
:100AB00053FC0523012200211748FFF75BFF0020AC
:100AC000019004904FF46020039000208DF80900FD
:100AD0008DF8080001208DF8140001A90E48FFF7D9
:100AE00021FF01210C48FFF7F1FE0B48FFF79EFFA5
:100AF00000BF0948FFF70CFF0128FAD00648FFF7AE
:100B0000A5FF00BF0448FFF7ECFE0128FAD007B0AC
:100B100000BD000000080140002401402DE9F0471D
:100B2000074689469046DDF820C0002100220024B7
:100B300000260025002004460246014645E0002626
:100B400001E0491C761C614502D2585C2028F8D08F
:100B5000614500D13BE0ACEB0100022807D3585CB3
:100B60000D2804D1481C185C0A2800D12CE0585CE0
:100B70000A2800D128E01EB16FF02B00BDE8F087F5
:100B8000585C3D2806D1601C0446022802D96FF04B
:100B90002B00F3E7585C7F2806DC585CDFF8E4A004
:100BA0001AF800007F2802D16FF02B00E6E7585CAE
:100BB000DFF8D0A01AF80000402803DA14B16FF073
:100BC0002B00DBE7521C00BF491C6145B7D300BFB7
:100BD0001AB90020C8F80000D0E7D00800EB4000A8
:100BE0004FEA400A02F0070000EB40004000C01D41
:100BF0000AEBD002121B0FB1914504D2C8F80020B5
:100C00006FF02900BAE703240020064602463D465D
:100C100031E018780D2805D018780A2802D0187805
:100C2000202800D125E01878DFF858A01AF8000035
:100C3000402801D1012000E00020241A1878DFF8B4
:100C400044A01AF8000066F39F100646501C0246A6
:100C500004280DD1002214B1300C05F8010B012C31
:100C600002D9300A05F8010B022C01D905F8016BF5
:100C700000BF491E5B1C0029CBD1E81BC8F800004F
:100C800000207BE7D84F00082DE9F04F0746894642
:100C9000099C00250026AC46A846AA4600211CB99E
:100CA00000201060BDE8F08F0320B4FBF0F04FF09F
:100CB000030BB4FBFBFE0BFB1E4BBBF1000F02D082
:100CC0004FF0010B01E04FF0000B00EB0B06B6F10B
:100CD000804F05D34FF0FF3010606FF02900E1E73F
:100CE000B600701C814500D327B9701C10606FF0EE
:100CF0002900D7E70320B4FBF0F000EB4006002505
:100D0000394629E013F801CB13F8018B13F801AB36
:100D10002D484FEA9C0B10F80B0001F8010B4FEA2D
:100D20000C1000EB281000F03F00DFF89CB01BF81F
:100D3000000001F8010B4FEA880000EBAA1000F058
:100D40003F001BF8000001F8010B0AF03F001BF800
:100D5000000001F8010BED1CB542D3D3A5422DD202
:100D600013F801CB681CA04202D213F8010B00E07B
:100D7000002080461448CCF3850B10F80B0001F8D6
:100D8000010B4FEA0C1000EB281000F03F00DFF8D9
:100D900038B01BF8000001F8010B681CA04207D214
:100DA0003F2000EA88001BF8000001F8010B02E078
:100DB0003D2001F8010B3D2001F8010BC81B10601C
:100DC0000020087000BF6DE7984F000800BFFEE7E5
:100DD00008B50121042001F089FF04208DF80300EB
:100DE0002020ADF8000003208DF80200694602487B
:100DF00000F0B2FA08BD00000008014008B501216A
:100E0000042001F073FF10208DF803002020ADF8BE
:100E1000000003208DF802006946024800F09CFAA9
:100E200008BD00000008014070B50024FFF7E6FF90
:100E300020212A4800F06DFB122003F025F8202124
:100E4000264800F068FB142003F044F8FFF7C0FFC9
:100E5000142003F03FF82021204800F051FB002827
:100E600029D104E0012003F035F8601CC4B2202130
:100E70001A4800F045FB08B9642CF3DB002404E0B9
:100E8000012003F027F8601CC4B22021134800F0B1
:100E900037FB012801D1642CF2DB0024002505E09A
:100EA00000F020F80E494855681CC5B2052DF7DB47
:100EB000322003F00FF80A480078094949780844BD
:100EC0000749897808440649C978461804480079D2
:100ED000B04201D1012070BD0020FCE700080140B4
:100EE0003C0000202DE9F0410025002400262DE0E3
:100EF00004E0012002F0EEFF601CC4B2202116487D
:100F000000F0FEFA08B9642CF3DB0024282002F07C
:100F1000E1FF2021104800F0F3FA012801D1012758
:100F200000E0002704E0012002F0D4FF601CC4B2FE
:100F30002021094800F0E4FA012801D1642CF2DBF9
:100F400000246806050E3D43701CC6B2082ECFDB98
:100F50002846BDE8F081000000080140704700000D
:100F600010B54FF400710348FFF7F5F8002002496F
:100F7000088010BD180100204200002070B5054611
:100F8000002400BF00F00CF980B90DA10E48FFF756
:100F9000F9F8044654B13A212046FFF705F9044612
:100FA00014B1641C204670BD0020FCE7052002F04F
:100FB0006BFF2800A5F101018DB2E3D100BFF2E77C
:100FC0004950442C000000001801002010B5FFF724
:100FD000C7FF20A1214802F03AF903E04FF4FA706C
:100FE00002F052FF1EA11FA000F08CF80028F5D1DE
:100FF0001EA11A4802F02BF903E04FF4FA7002F038
:1010000043FF17A11CA000F07DF80028F5D11EA118
:10101000124802F01CF903E04FF4FA7002F034FFBA
:101020000FA11DA000F06EF80028F5D11EA10B48FD
:1010300002F00DF903E04FF4FA7002F025FF1DA154
:101040001EA000F05FF80028F5D128A1034802F0A7
:10105000FEF810BD312E2041540D0A000038014029
:101060004F4B000041540D0A00000000322E204377
:10107000574D4F44450D0A0041542B43574D4F44A3
:10108000453D310D0A000000332E2041542B4357BB
:10109000444843500D0A000041542B4357444843F1
:1010A000503D312C310D0A00342E2043574A415017
:1010B0000D0A0000474F54204950000041542B4373
:1010C000574A41503D224C4150544F502D304B47D0
:1010D00034385531422033313631222C22303037EA
:1010E000722C573035220D0A00000000352E2045A5
:1010F00053503832363620496E6974204F4B0D0AF2
:10110000000000002DE9F04104460D46C8262046A7
:10111000FFF754F887B23A4621460D4802F0BBF873
:101120000FE000F03DF848B929460A48FFF72AF8D1
:1011300020B1FFF715FF0020BDE8F0810A2002F082
:10114000A3FE3000A6F10101CEB2EAD10120F3E7FF
:10115000004400401801002030B589B004460D4617
:10116000FFF7FEFE2A4608A101A802F0DBF90AA15A
:1011700001A8FFF7C7FF20B92A462146074802F019
:101180008AF809B030BD000041542B434950534503
:101190004E443D25640D0A003E000000004400401E
:1011A0000A48008808B901207047084800880849A3
:1011B0000988884203D1002004490880F4E70348E5
:1011C0000088034908800120EEE70000420000206B
:1011D0004400002010B54FF4807000F03FF848B193
:1011E00001F00EFD4FF4807000F02CF84FF4807089
:1011F00000F02EF810BD0EB50121084601F076FD75
:101200000821012000F088F84FF480700190002040
:101210008DF808000C208DF8090001208DF80A00D7
:1012200001A800F02FF817208DF8000002208DF89B
:1012300001008DF8020001208DF80300684600F0DF
:101240007DFF0EBD01490860704700001404014095
:101250000149086070470000140401400146002065
:101260000022074B1B6803EA0102054B14331B687D
:101270000B4013B10AB1012000E0002070470000CC
:1012800000040140002123498279002A3AD00A460D
:10129000126803689A430B461A600A1D12680368B5
:1012A0009A430B1D1A60027911440A6803681A43B5
:1012B0000A60184A0832126803689A43154B0833CB
:1012C0001A601A1D126803689A43124B0C331A6095
:1012D0004279102A0ED11A1F126803681A430D4B67
:1012E00008331A601A1D126803681A43094B0C333D
:1012F0001A600DE00749427911440A6803681A43ED
:101300000A6005E0027911440A6803689A430A609A
:10131000704700000004014030B500228B071C0F0D
:101320000F2303FA04F20B4B8C1053F82430934331
:10133000084C8D1044F8253023468C1053F8243087
:101340008C07240F00FA04F42343024C8D1044F858
:10135000253030BD080001402DE9F041024600254E
:101360000026002000230024002791F803C00CF081
:101370000F0591F803C00CF0100CBCF1000F03D066
:1013800091F802C04CEA050591F800C0BCF1000FCD
:1013900031D0146800202BE04FF0010C0CFA00F360
:1013A000B1F800C00CEA03069E4220D183004FF042
:1013B0000F0C0CFA03F7BC4305FA03FC4CEA0404D7
:1013C00091F803C0BCF1280F06D14FF0010C0CFAC4
:1013D00000FCC2F814C00AE091F803C0BCF1480F49
:1013E00005D14FF0010C0CFA00FCC2F810C0401CF3
:1013F0000828D1D31460B1F800C0BCF1FF0F34DD70
:10140000546800202EE000F1080C4FF0010808FAA3
:101410000CF3B1F800C00CEA03069E4221D1830010
:101420004FF00F0C0CFA03F7BC4305FA03FC4CEA2F
:10143000040491F803C0BCF1280F05D100F1080C99
:1014400008FA0CF8C2F8148091F803C0BCF1480FF8
:1014500007D100F1080C4FF0010808FA0CF8C2F8A7
:101460001080401C0828CED35460BDE8F0810000F5
:10147000F0B50A46002300240021002500F00046B4
:10148000B6F1004F02D11D4EF16901E01B4E7168AB
:10149000C0F3034583B200F44016B6F5401F08D1EF
:1014A00021F07061154E766826F07066134F7E60ED
:1014B00012E000F48016B6F5801F06D1032606FA66
:1014C00005F4A14341F0706106E0460D360103FAD0
:1014D00006F6B14341F0706122B1460D360103FAC0
:1014E00006F6314300F00046B6F1004F02D1034E3C
:1014F000F16101E0014E7160F0BD000000000140AB
:101500000246002093680B400BB1012000E0002050
:10151000704741617047016170470AB1016100E0A5
:101520004161704700BFFEE708B50121092001F0C5
:10153000DDFB01211D48FFF79BFF8020ADF8000077
:1015400010208DF8030003208DF80200694618482A
:10155000FFF702FF2020ADF8000069461448FFF7AE
:10156000FBFE1020ADF8000069461148FFF7F4FEBD
:101570000820ADF8000069460D48FFF7EDFE402059
:10158000ADF8000048208DF8030069460848FFF7D1
:10159000E3FE4FF48070ADF8000004208DF80300E6
:1015A00069460348FFF7D8FE08BD0000000230007E
:1015B000000C014070B5CAB04FF48C72294904A8E0
:1015C000FEF7B0FD28A30FCB8DE80F000126002405
:1015D00041E000F095F808B900263EE01DF804103F
:1015E000C12000F0F1F90021C32000F0EDF9042141
:1015F000082000F0E9F9012002F046FC0021082053
:1016000000F0E2F9012002F03FFC002512E004EBBB
:10161000840004A901EB8000405D00B90CE004EBFC
:10162000840004AA02EB8000415D052000F0CCF9A3
:10163000681CC5B2142DEADB00BF2946B92000F0B2
:10164000C3F9FF21B22000F0BFF90421372000F0D8
:10165000BBF9601CC4B20E2CBBDB00BF30464AB0E5
:1016600070BD000090480008000102030405061840
:10167000191A1B1C1D24000010B54321352000F051
:10168000A3F909211C2000F09FF92021BD2000F0C2
:101690009BF90121082000F097F9052002F0F4FBE6
:1016A0000021082000F090F9052002F0EDFB00F089
:1016B00027F808B9002010BDFF21B22000F084F9FE
:1016C0000621372000F080F9052002F0DDFB06211D
:1016D000372000F079F9052002F0D6FB0B211C2001
:1016E00000F072F91021292000F06EF90021BD20D0
:1016F00000F06AF90120DEE710B500F01DF810BD1A
:1017000070B5002600250CE0B22000F0B3F80446C6
:10171000212C01D1012606E0142002F0B5FB681C43
:10172000C5B2052DF0DB00BF304670BD10B5C52039
:1017300000F0A0F810BD000010B50820194908708D
:1017400000F032F80021BD2000F03EF948211720BA
:1017500000F03AF9052002F097FB80213C2000F0D0
:1017600033F907213E2000F02FF9FF21382000F047
:101770002BF907213A2000F027F90021402000F042
:1017800023F90821422000F01FF90021442000F035
:101790001BF90821462000F017F9052002F074FB20
:1017A00010BD00003A00002010B5062000F062F8DD
:1017B0003521172000F008F9052002F065FB06200E
:1017C00000F058F80321892000F0FEF8052002F00F
:1017D0005BFB4321CF2000F0F7F8052002F054FB1B
:1017E0000221CB2000F0F0F80B21112000F0ECF8E2
:1017F0001F480078402810D100211E2000F0E4F896
:101800000F21192000F0E0F818211B2000F0DCF86F
:101810002C211D2000F0D8F80FE000211E2000F040
:10182000D3F83F21192000F0CFF848211B2000F009
:10183000CBF81F211D2000F0C7F8052002F024FB83
:101840000421CD2000F0C0F84C21172000F0BCF896
:10185000052002F019FB0021B92000F0B5F84F2156
:10186000CF2000F0B1F8FF216F2000F0ADF810BDDF
:101870003A0000202DE9F041054600240026A0464C
:10188000052700203A490860012002F023FB00BF31
:101890001DE007F0800020B101203549091D0860D6
:1018A00003E000203249091D0860012002F012FB0C
:1018B00000202F490C3108607806070E012002F045
:1018C00009FB01202B49C1F89C01601CC4B2082C03
:1018D000DFDB00241DE005F0800020B10120244959
:1018E000091D086003E000202149091D086001204E
:1018F00002F0F0FA00201E490C3108606806050E5F
:10190000012002F0E7FA01201A49C1F89C01601C8D
:10191000C4B2082CDFDB012002F0DCFA00241BE05B
:101920007006060E12487838006800F0FF080120A3
:1019300002F0D0FA00200F49C1F89C01B8F1010F64
:1019400001D146F00106012002F0C4FA0120084945
:101950000C310860601CC4B2082CE1DB012002F0ED
:10196000B9FA0120024908603046BDE8F081000064
:10197000908121420080214210B501201049086069
:10198000052002F081FA00200E49C1F88C010520E3
:1019900002F07AFA01200A490860052002F074FA80
:1019A00000200849C1F89001052002F06DFA0120DD
:1019B0000349091D0860052002F066FA10BD000009
:1019C0008C812142008021422DE9F04105460E46DE
:1019D00000240427002039490860012002F07AFA27
:1019E00000BF1DE007F0800020B101203349091D30
:1019F000086003E000203149091D0860012002F061
:101A000069FA00202D490C3108607806070E012084
:101A100002F060FA01202A49C1F89C01601CC4B29E
:101A2000082CDFDB00241DE005F0800020B1012040
:101A30002249091D086003E000202049091D0860B3
:101A4000012002F047FA00201C490C3108606806AA
:101A5000050E012002F03EFA01201949C1F89C014F
:101A6000601CC4B2082CDFDB00241DE006F08000FF
:101A700020B101201149091D086003E000200F4931
:101A8000091D0860012002F025FA00200B490C31E5
:101A900008607006060E012002F01CFA01200849B9
:101AA000C1F89C01601CC4B2082CDFDB012002F0ED
:101AB00011FA012001490860BDE8F08190812142BE
:101AC0000080214208B50121082001F00FF94FF4F0
:101AD0008060ADF8000010208DF8030003208DF821
:101AE000020069460448FFF737FC4FF48061024862
:101AF000FFF711FD08BD0000000C014010B50446C1
:101B0000207B012802D1206802F018FA0020206012
:101B10006060A060207310BD0246002301230DE029
:101B200002F07F000870D2092AB1087840F08000E6
:101B30000870491C01E0184670475B1C042BEFDD60
:101B40004FF0FF30F8E770B504460E4600252068D8
:101B500098B901202073304602F064FC20602068B0
:101B6000E0B100206060A66003E0002021684855D5
:101B70006D1CA068A842F8D810E00220207303E092
:101B80000020216848556D1CA068A842F8D80020A4
:101B90006060A068B04201D20020206070BD0000EB
:101BA0002DE9FF4F83B082468B469146159C002558
:101BB000002002900F2701904846FEF7FFFA0FFA27
:101BC00080F8B9F1000F03D1012007B0BDE8F08F14
:101BD00008F10200384487B2109808B145F00205B8
:101BE000129878B145F004051298FEF7E7FAC0B2F2
:101BF00002901398FEF7E2FA01460298001D08448D
:101C0000384487B2119820B1012804D0022808D1A5
:101C100004E000BF07E045F00C0504E045F01405C2
:101C200001E00220D1E700BF149808B145F0240577
:101C3000BAF1000F02D0BBF1000F01D10320C4E7BD
:101C400045F0C0055046FEF7B9FA06465846FEF77D
:101C5000B5FA3044001D384487B239462046FFF7B4
:101C600072FF206808B90420AFE739462068FEF704
:101C700072FA10216268501C606020688154D4E9B7
:101C80000023D118781FFFF747FF00B20190019899
:101C9000002804DA2046FFF731FF052095E7616848
:101CA00001980844606000216268501C60602068F0
:101CB000815404216268501C6060206881544D2169
:101CC0006268501C60602068815451216268501C19
:101CD00060602068815454216268501C60602068F4
:101CE00081546268501C60602068815404216268DD
:101CF000501C6060206881546168481C60602068E6
:101D000045540698010A6268501C6060206881543E
:101D10000698C1B26268501C606020688154C8F3A4
:101D200007216268501C6060206881546268501C02
:101D30006060206800F80280D4E9001288184246EA
:101D40004946FEF742FA60684044606005F00400CE
:101D5000B8B30026139808B938A013901298FEF76C
:101D60002DFA86B2310A6268501C60602068815486
:101D70006268501C606020688654D4E9001288189C
:101D800032461299FEF721FA606830446060139879
:101D9000FEF714FA86B2310A6268501C606020684F
:101DA00081546268501C606020688654D4E9001237
:101DB000881832461399FEF708FA6068304460606C
:101DC00000BF05F08000C8B15046FEF7F7F986B2B3
:101DD000310A6268501C6060206881546268501C3F
:101DE000606020688654D4E9001288183246514653
:101DF000FEF7EBF960683044606000BF05F040001A
:101E0000C8B15846FEF7DAF986B2310A6268501C4A
:101E10006060206881546268501C6060206886544D
:101E2000D4E90012881832465946FEF7CEF96068A8
:101E30003044606000BF0020C7E6000000000000E2
:101E40002DE9FF4F83B0834617469946139C002522
:101E500000260020029001908046BBF1000F03D1C4
:101E6000012007B0BDE8F08F00260AE00498805DED
:101E7000232803D00498805D2B2801D10220F0E7AD
:101E8000761C0498805D0028F0D148F03008119845
:101E900008B148F0010806EB0900851C109820B134
:101EA000012804D002280AD105E000BF09E048F06B
:101EB0000208AD1C05E048F00408AD1C01E0032059
:101EC000CFE700BF8FB33878022821D14FF0000A46
:101ED00000BF50460AF1010A385C7D28F9D1AAF109
:101EE000030A0AF1070002900298A9EB000AE81C15
:101EF000A0EB0A012046FFF726FE206808B904205F
:101F0000AFE7EA1CA2EB0A012068FEF724F919E00A
:101F1000691D2046FFF717FE206808B90420A0E7D6
:101F2000691D2068FEF717F90CE0FFE7691D2046E0
:101F3000FFF709FE206808B9042092E7691D2068B0
:101F4000FEF709F96168481C6060206800F80180AC
:101F5000D4E9000281182846FFF7DEFD01900198C0
:101F6000002804DA2046FFF7C9FD052079E76168FB
:101F7000019808446060C6F307216268501C6060E5
:101F8000206881546268501C606020688654D4E9DF
:101F90000012881832460499FEF717F96068304439
:101FA0006060109860B14FEA1B216268501C60604D
:101FB000206881546268501C6060206800F802B09C
:101FC000C7B1387802280BD1D4E9001288183946F5
:101FD000029AFEF7A7F8616802980844606009E079
:101FE000D4E9001288184A463946FEF79BF8606823
:101FF00048446060002034E72DE9F04190B0044689
:102000000D4616469846169F23460CA2302104A87A
:10201000009501F073FA01200021CDE9000133465B
:102020000A4604A9CDE902070A20FFF709FF18B103
:10203000012010B0BDE8F0810020FAE72473797325
:102040002F25732F25732F7468696E672F70726F39
:1020500070657274792F706F73740000F0B5044668
:102060000D462646012300201060002114E0775C15
:1020700007F07F07106807FB03001060705C00F03A
:10208000800008B9481CF0BDDB01B3F5001F02D386
:102090006FF00100F7E7491CA942E8DB4FF0FF3081
:1020A000F1E701464878022801D00120704788787E
:1020B00010B18878012801D1C878F7E7FF20F5E74B
:1020C000F8B50446FF2720780511012D01DB0E2D00
:1020D00001DD3846F8BD032D24D1002000906A466A
:1020E0000421601CFFF7BAFF2044461C0098022818
:1020F00003D3207800F0010008B1FF20EAE77078F0
:10210000317840EA0120801C0099884201D9FF20E3
:10211000E0E706A1B01CFEF735F808B10F2700E094
:10212000032700E02F463846D4E700002463726599
:102130007100000000BFFEE77047000070B500218D
:1021400000230F22C47804B3154C246804F4E0641F
:10215000C4F5E064210AC1F10403CA40447804FADA
:1021600003F184781440214309010E4C0678A155EF
:10217000047804F01F050124AC4005786D11AD0012
:1021800005F1E025C5F8004109E0047804F01F05D9
:102190000124AC40044D0678761145F8264070BD08
:1021A0000CED00E000E400E080E100E002490143C2
:1021B000024A1160704700000000FA050CED00E0D3
:1021C00070B500240EE00021204600F0EAF800255A
:1021D00004E0002000F076F9681CC5B2802DF8DB21
:1021E000601CC4B2082CEEDB70BD000008B50121F4
:1021F000042000F07BFD14208DF8030003208DF8EF
:1022000002004020ADF8000069460A48FFF7A4F834
:102210008020ADF8000069460648FFF79DF80122CE
:1022200040210448FFF779F9012280210148FFF796
:1022300074F908BD0008014070B50546002413E09C
:102240008020204100EA050280210E48FFF765F951
:10225000012240210B48FFF760F900224021094884
:10226000FFF75BF9601CC4B2082CE9DB01224021B6
:102270000448FFF752F9002240210248FFF74DF9C8
:1022800070BD00000008014010B5012280210948FE
:10229000FFF743F9012240210648FFF73EF90022EB
:1022A00080210448FFF739F9002240210148FFF757
:1022B00034F910BD0008014010B500228021074804
:1022C000FFF72BF9012240210448FFF726F90122EC
:1022D00080210248FFF721F910BD000000080140ED
:1022E00070B5002406E0002500E06D1CB5F57A7F8E
:1022F000FBD3641CB4F57A7FF5D3FFF777FFAE20EC
:1023000000F0D0F8D52000F0CDF8802000F0CAF819
:10231000A82000F0C7F83F2000F0C4F8D32000F058
:10232000C1F8002000F0BEF8402000F0BBF8A1206A
:1023300000F0B8F8C82000F0B5F8DA2000F0B2F8E4
:10234000122000F0AFF8812000F0ACF8CF2000F0B0
:10235000A9F8D92000F0A6F8F12000F0A3F8DB20BE
:1023600000F0A0F8302000F09DF8A42000F09AF8CA
:10237000A62000F097F88D2000F094F8142000F0CB
:1023800091F8AF2000F08EF8FFF71AFF70BD10B57E
:102390000246012000E050430B00A1F10101FAD1F7
:1023A00010BD70B505460C4645F0B00000F07AF857
:1023B000102141EA141000F075F804F00F0000F04D
:1023C00071F870BD2DE9F04105460E461746721EA4
:1023D000D206110E6A1E5206100EFFF7E2FF00240D
:1023E00009E0A7F12001134A02EB0111085D00F09A
:1023F00069F8601CC4B2082CF3DB721ED206110E01
:102400006A1E012303EB4202D0B2FFF7CAFF002489
:102410000BE0A7F12001074A02EB011204F10801C9
:10242000505C00F04FF8601CC4B2082CF1DBBDE832
:10243000F0810000A84900082DE9F04780460E46CB
:1024400017461D46002415E0281B411E0A20FFF7F1
:102450009EFFB7FBF0F00A21B0FBF1F201FB120086
:1024600000F130093019C1B24A464046FFF7AAFFD1
:10247000601CC4B2AC42E7DBBDE8F0872DE9F04157
:1024800007460E461546002407E02A5D3019C1B202
:102490003846FFF797FF601CC4B2285D0028F4D1CE
:1024A000BDE8F08110B50446FFF7EEFE7820FFF797
:1024B000C3FE0020FFF7C0FE2046FFF7BDFEFFF77A
:1024C000FBFE10BD10B50446FFF7DEFE7820FFF7D7
:1024D000B3FE4020FFF7B0FE2046FFF7ADFEFFF74A
:1024E000EBFE10BDF0B58BB0054600260024284653
:1024F000FDF764FEC7B20DB11C2F02DA01200BB04C
:10250000F0BD06E0A85D01A988550020A855701C03
:10251000C6B2BE42F6DB002001A988550026002481
:1025200055E001A8805D2B2810D008DC202814D0AD
:1025300023282ED0252825D026283FD130E02F284B
:1025400012D03D2833D03F2838D114E0281923A1D8
:10255000FDF70CFEE01CC4B236E0281920A1FDF7FF
:1025600005FEE01CC4B22FE028191EA1FDF7FEFDF8
:10257000E01CC4B228E028191BA1FDF7F7FDE01C00
:10258000C4B221E0281919A1FDF7F0FDE01CC4B286
:102590001AE0281916A1FDF7E9FDE01CC4B213E00A
:1025A000281914A1FDF7E2FDE01CC4B20CE02819C3
:1025B00011A1FDF7DBFDE01CC4B205E001A8805DC0
:1025C0002855601CC4B200BF00BF701CC6B2BE421A
:1025D000A7DB0020285500BF91E70000253242000C
:1025E000253230002532460025334600253235009D
:1025F0002532330025323600253344002DE9F04FD3
:10260000C9B005460C4616461F460DF5A47898E855
:10261000000F0020489055B14CB13F48864206D388
:102620002FB1B9F1000F02D0BAF1780F03DA01200F
:1026300049B0BDE8F08F402118A8FDF78CFD384661
:10264000FDF7BCFD05903B4648AA4021009018A824
:10265000FEF764FA482106A8FDF77DFDBBF1000FE7
:1026600009D02EA033462FA248218DE8310006A8BC
:1026700000F044FF09E029A0334630A248218DE84C
:102680001101039506A800F039FF402128A8FDF7A5
:1026900062FD06A8FDF792FD059018A8FDF78EFDD6
:1026A000049028A8009006AA18A8DDE9041301F0F8
:1026B00093FC00204890402138A8FDF74CFD28A845
:1026C000FDF77CFD059028AB48AA4021009038A872
:1026D000FEF7DAFA38A8FFF705FFBBF1000F0CD0C0
:1026E00038A80EA12B461DA2CDE90046CDE9021067
:1026F0005146484600F002FF0CE038A807A12B46DF
:10270000244ACDE901860094CDE90310514648469C
:1027100000F0F4FE00208BE79554415D7368613151
:102720000000000025640A25730A70726F647563E7
:1027300074732F25730A25730000000025640A2591
:10274000730A70726F64756374732F25732F6465D9
:1027500076696365732F25730A2573007665727336
:10276000696F6E3D2573267265733D70726F647577
:102770006374732525324625732665743D256426CA
:102780006D6574686F643D2573267369676E3D25BA
:10279000730000005850000830B5B3B000202F90EF
:1027A0003090319032900125A02107AA37A3CDE9BE
:1027B0000032CDE9021036A3414A42A144A0FFF7FE
:1027C0001DFF07A83FA331A244A100904F4800F08D
:1027D0003EFD2FA8002102910391CDE90410084687
:1027E00001210B0229A2CDE9001007A935A0FFF7AE
:1027F000D7F9002842D1309A91B22F98FEF7ACFC5D
:10280000FA20FEF7BBFB0446002C33D02046FFF72E
:1028100057FC02282ED12046FFF743FC062823D27E
:10282000DFE800F003090E13181D39A1374800F046
:102830000EFD00251DE03BA1344800F008FD18E026
:102840003FA1324800F003FD13E046A12F4800F0FD
:10285000FEFC0EE04BA12D4800F0F9FC09E052A16E
:102860002A4800F0F4FC04E05AA1284800F0EFFCEC
:1028700000BF00BF2FA8FFF741F903E05CA1234888
:1028800000F0E5FC284633B030BD000064310000A4
:102890005630705A536A6C44625856796258704682
:1028A0005245394955334668547A4E30533368742B
:1028B000535531485330746B5530673D000000006C
:1028C00000CF9D7441727A684C343434354900002D
:1028D000323031382D31302D333100004F6E654E9E
:1028E00045545F4465764C696E6B0D0A4E414D450B
:1028F0003A2025732C0950524F49443A2025732C15
:10290000094B45593A25730D0A0000000038014073
:10291000546970733A09C1ACBDD3B3C9B9A60D0AE5
:10292000000000005741524E3A09C1ACBDD3CAA7BE
:10293000B0DCA3BAD0ADD2E9B4EDCEF30D0A0000FD
:102940005741524E3A09C1ACBDD3CAA7B0DCA3BAB5
:10295000B7C7B7A8B5C4636C69656E7469640D0ABE
:10296000000000005741524E3A09C1ACBDD3CAA77E
:10297000B0DCA3BAB7FECEF1C6F7CAA7B0DC0D0A29
:10298000000000005741524E3A09C1ACBDD3CAA75E
:10299000B0DCA3BAD3C3BBA7C3FBBBF2C3DCC2EB9F
:1029A000B4EDCEF30D0A00005741524E3A09C1ACC6
:1029B000BDD3CAA7B0DCA3BAB7C7B7A8C1B4BDD34B
:1029C00028B1C8C8E7746F6B656EB7C7B7A8290D83
:1029D0000A0000004552523A09C1ACBDD3CAA7B0A3
:1029E000DCA3BACEB4D6AAB4EDCEF30D0A00000033
:1029F0005741524E3A094D5154545F5061636B65D3
:102A000074436F6E6E656374204661696C65640D16
:102A10000A00000010B58CB0044630216846FDF76E
:102A20009AFB1EA12046FDF7E4FB30216846FDF726
:102A300092FB2048827820A1684600F073FD694629
:102A40002046FDF793FB30216846FDF784FB1948CB
:102A500002781FA1684600F065FD69462046FDF733
:102A600085FB30216846FDF776FB1F48007808B1EA
:102A70001EA000E01FA0024620A1684600F052FD03
:102A800069462046FDF772FB21A12046FDF76EFB4B
:102A90002046FDF793FBC0B20CB010BD7B226964E9
:102AA000223A22313233222C22706172616D7322FC
:102AB0003A7B00003C0000202274656D70223A7B56
:102AC0002276616C7565223A25647D2C0000000039
:102AD0002268756D69223A7B2276616C7565223AAF
:102AE00025647D2C000000000600002074727565CE
:102AF0000000000066616C7365000000226C656474
:102B0000223A7B2276616C7565223A25737D00003E
:102B10007D7D000030B5C5B00020419042904390CB
:102B20004490002400251CA1234800F090FB4FF4A2
:102B3000807101A8FDF70FFB01A8FFF76BFF0446AA
:102B4000002C26D041A8002322461CA100901CA0E6
:102B5000FFF752FAC8B908E001A8415D429A501C3B
:102B6000429041988154681C05B2A542F4DB429A18
:102B700091B24198FEF7F0FA14A10F48429A00F082
:102B800066FB41A8FEF7BAFF03E014A10A4800F073
:102B90005EFB45B030BD0000546970733A094F6E5A
:102BA000654E65745F53656E64446174612D4D516B
:102BB00054540D0A00000000003801406431000048
:102BC00041727A684C3434343549000053656E6480
:102BD0002025642042797465730D0A005741524ED6
:102BE0003A094544505F4E657742756666657220C6
:102BF0004661696C65640D0A0000000070470000C2
:102C000010B500242B20FEF735FE2849087000215E
:102C10002920FEF7D9FE00210220FEF7D5FE234829
:102C2000007800F01000C8B1B220FEF723FE212882
:102C300014D1BF20FEF71EFE35280FD1BA20FEF7B3
:102C400019FE0446002C05DD042C03DC1020184975
:102C5000087006E011201649087002E0112014499E
:102C6000087000212B20FEF7AFFE00211C20FEF78C
:102C7000ABFE00212920FEF7A7FE00210220FEF76F
:102C8000A3FE00212B20FEF79FFE0021BA20FEF7B5
:102C90009BFE0021BC20FEF797FE01210820FEF7D5
:102CA00093FE00210820FEF78FFE10BD3B000020A0
:102CB0000000002001460020034A506820F44040F4
:102CC00008435060704700000010024029B1064AD6
:102CD000D2690243044BDA6104E0034AD2698243B9
:102CE000014BDA61704700000010024029B1064A2A
:102CF00092690243044B9A6104E0034A9269824359
:102D0000014B9A61704700000010024030B500216D
:102D10000022002400232D4D6D6805F00C0121B127
:102D2000042905D0082923D105E0294D056022E0BA
:102D3000274D05601FE0254D6D6805F47012234D89
:102D40006D6805F48034022505EB92421CB9214DD3
:102D5000554305600BE01D4D6D6805F400351DB150
:102D60001C4D5543056002E0194D5543056002E0D6
:102D7000174D056000BF00BF144D6D6805F0F001F0
:102D80000909154D6B5C0568DD4045600F4D6D68A8
:102D900005F4E061090A104D6B5C4568DD40856013
:102DA0000A4D6D6805F46051C90A0B4D6B5C4568AE
:102DB000DD40C560054D6D6805F44041890B074D48
:102DC0006B5CC568B5FBF3F5056130BD00100240D2
:102DD00000127A0000093D00260000203600002085
:102DE00070B50024002500BF1DE0FEF785FC05201E
:102DF00001F04AF8FEF7DEFB28B9FEF7BDFD05201D
:102E000001F042F80DE0052001F03EF8FEF734FC39
:102E100028B9FEF7B1FD052001F036F801E00125E3
:102E200003E0601CC4B2052CDFDB00BF284670BD88
:102E3000704710B500F002F810BD00000CB500207E
:102E4000019000903348006840F4803031490860B8
:102E500000BF3048006800F4003000900198401C2A
:102E60000190009818B90198B0F5A06FF1D12948E8
:102E7000006800F4003010B10120009001E0002053
:102E800000900098012843D12348006840F01000CA
:102E9000214908600846006820F0030008600846E1
:102EA000006840F0020008601A484068194948600C
:102EB0000846406848600846406840F480604860C2
:102EC0000846406820F47C1048600846406840F49A
:102ED000E81048600846006840F08070086000BF55
:102EE0000C48006800F000700028F9D009484068DC
:102EF00020F00300074948600846406840F002009F
:102F0000486000BF0348406800F00C000828F9D171
:102F10000CBD00000010024000200240042808D12F
:102F20004FF0E021096941F004014FF0E022116106
:102F300007E04FF0E021096921F004014FF0E022A1
:102F4000116170477047000010B51348006840F0E9
:102F500001001149086008464068104908400E49C0
:102F60004860084600680E4908400B49086008465A
:102F7000006820F4802008600846406820F4FE00C5
:102F800048604FF41F008860FFF753FF4FF0006068
:102F90000449086010BD0000001002400000FFF866
:102FA000FFFFF6FE08ED00E010B540F225511D4888
:102FB00000F086F810B31B4800F03EF9C4B21A487E
:102FC000008800F40040C8B91748008800F4804029
:102FD00060B10A2C03D000201349088020E0124879
:102FE000008840F400401049088019E00D2C06D1FB
:102FF0000D48008840F480400B49088010E00A48E2
:103000000088C0F30D0009490C5407480088401C93
:103010000549088008460088C72801DD002008808F
:1030200010BD0000003801402400002050000020A6
:1030300010B540F225510E4800F042F8B8B10D48E5
:103040000088B0F5007F02D300200A4908800848B4
:10305000001D0088C1B2074802880088401C054B4B
:103060001880054881542021014800F007F810BD60
:1030700000440040420000201801002001F40072CA
:10308000B2F5007F00D100BFCA430280704721B172
:10309000828942F40052828104E082894DF6FF73F6
:1030A0001A408281704702460020B1F5007F00D1AE
:1030B00000BF13880B400BB1012000E000207047D7
:1030C00070B50246002400230025002040F66A1651
:1030D000B14200D100BFC1F3421501F01F03012628
:1030E00006FA03F3012D02D19689334006E0022D42
:1030F00002D1168A334001E0968A33400C12012631
:1031000006FA04F41688344013B10CB1012000E033
:10311000002070BDF0B503460024002600250020E5
:1031200040F66A17B94200D100BF1846C1F34214F5
:1031300001F01F06012707FA06F5012C01D10C301A
:1031400004E0022C01D1103000E014301AB10768FD
:103150002F43076002E00768AF430760F0BD00003F
:103160002DE9F04786B005460E460024A24600BF72
:10317000A1460027B08900B100BF2F462C8A4CF62B
:10318000FF700440F08804432C82AC894EF6F310A3
:103190000440B08831890843718908430443AC81F5
:1031A000AC8A4FF6FF400440B0890443AC8201A8CA
:1031B000FFF7ACFD1F48874202D1DDF810A001E007
:1031C000DDF80CA0A88900F4004040B10AEBCA0069
:1031D00000EB0A1031684900B0FBF1F807E00AEB98
:1031E000CA0000EB0A1031688900B0FBF1F86420D6
:1031F000B8FBF0F004012009642101FB1089A889C3
:1032000000F4004040B1322000EBC900B0FBF1F007
:1032100000F00700044308E0322000EB09106421AD
:10322000B0FBF1F000F00F0004432C8106B0BDE8C4
:10323000F08700000038014001468888C0F308008C
:103240007047C1F308028280704700BFFEE70FB4E9
:1032500030B5CBB0054601AC50A800904FF4947146
:1032600001A8009B4F9A00F071F9002000900BE03C
:1032700014F8011B2846FFF7E4FF00BF4021284651
:10328000FFF711FF0028F9D020780028F0D14BB0CB
:1032900030BC5DF814FB2DE9F04107460C4615469D
:1032A00000260DE014F8011B3846FFF7CAFF00BFE7
:1032B00040213846FFF7F7FE0028F9D0701C86B28F
:1032C000AE42EFDBBDE8F08110B5044634B9012011
:1032D0003949087039A000F001F96BE036480078F0
:1032E000002864D000203449087036480078182837
:1032F0003FD007DC072858D2DFE800F057131F2B18
:103300002F3337001C2844D006DC192835D01A2862
:1033100037D01B2849D138E01D283ED0242844D17D
:103320003FE029A000F0DAF84FF480612948FEF769
:10333000F0F801202849087038E028A000F0CEF805
:103340004FF480612348FEF7E6F800202249087018
:103350002CE025A000F0C2F828E028A000F0BEF87C
:1033600024E02BA000F0BAF820E02EA000F0B6F880
:103370001CE031A000F0B2F818E034A000F0AEF884
:1033800014E037A000F0AAF810E03AA000F0A6F888
:103390000CE03DA000F0A2F808E041A000F09EF88B
:1033A00004E045A000F09AF800E000BF02E046A06B
:1033B00000F094F810BD000002000020CAD5B5BD91
:1033C0000D0A000001000020B5C6D2D1B4F2BFAA98
:1033D0000D0A0000000C014006000020B5C6D2D145
:1033E000B9D8B1D50D0A000022B1B1BEA922CAB622
:1033F000B1F0B3C9B9A60D0A0000000022C9CFBAC6
:10340000A322CAB6B1F0B3C9B9A60D0A00000000E4
:1034100022BFAAB5C622CAB6B1F0B3C9B9A60D0A71
:103420000000000022B9D8B5C622CAB6B1F0B3C9AF
:10343000B9A60D0A0000000022B9E3D6DD22CAB603
:10344000B1F0B3C9B9A60D0A0000000022C9EEDB35
:10345000DA22CAB6B1F0B3C9B9A60D0A000000005D
:1034600022CFF2D7F3D7AA22CAB6B1F0B3C9B9A610
:103470000D0A000022CFF2D3D2D7AA22CAB6B1F0E9
:10348000B3C9B9A60D0A000022B4F2BFAABFD5B5D0
:10349000F722CAB6B1F0B3C9B9A60D0A0000000000
:1034A00022B9D8B1D5BFD5B5F722CAB6B1F0B3C9E4
:1034B000B9A60D0A0000000022BAF3CDCB22CAB68D
:1034C000B1F0B3C9B9A60000C7EBCBB5B3F6D2BB18
:1034D000BCB6BFDAC1EE0D0A000000000FB4054B08
:1034E00010B503A9044A029800F004F910BC5DF875
:1034F00014FB0000213F0008200000200FB41CB581
:103500000A46521ECDE9000207A9054B6A460698F5
:1035100000F0F0F8009A002111701CBC5DF814FB5B
:10352000233E00080FB4084B10B504A902AA039863
:1035300000F0E0F8044602A9002000F07DFC2046DF
:1035400010BC5DF814FB0000393E00087CB5491E34
:103550001C461546CDE90001044B6A462146284623
:1035600000F0C8F8009A002111707CBD233E0008CD
:1035700002E008C8121F08C1002AFAD1704770473C
:10358000002001E001C1121F002AFBD1704700009A
:103590002DE9FF5FDDE90220010DDDF838B00243BF
:1035A00018D044F61050A1F2FF3141430D140F988A
:1035B000012820D0A5EB0B00401C5FEA000A4FF069
:1035C0000004474EDFF81C91A046504616D5CAF1BC
:1035D000000728E00F98012443A2012808D0002109
:1035E00000980F9BC0E90021C0E90243BDE8FF9F9E
:1035F0006FEA0B01F4E7CBF10000DEE7074612E0CB
:10360000F80707D02246334640464946FCF7ACFF50
:10361000804689462246334610461946FCF7A4FFE9
:1036200004460E467F10002FEAD1DDE90201BAF10F
:10363000000F42464B4602DAFCF796FF01E0FDF729
:1036400005F804460E460022284BFDF787F803D8FC
:103650004FF0FF30014607E00022254B204631465F
:10366000FCF7DBFEFDF761F8102409E0002C0ADB13
:103670000A220023FCF769FE019B30321A55641EB2
:1036800050EA0102F2D1641C019AC4F111031444FE
:103690000F9A012A03D0012208430DD10AE0084302
:1036A00004D000204FF0110B0F9080E7A3EB0B0527
:1036B0006D1E0DE05B4504DD4FF0000205F10105D4
:1036C00004E003DA4FF00002A5F10105002AECD076
:1036D00000980F99C0E90231C0E9004586E7000073
:1036E000000024400000F03F300000000000F043E4
:1036F0000000E03F2DE9FF4F95B09B468946064606
:1037000000250FE2252877D100242746F84A012119
:10371000059400E0044316F8013F203B01FA03F052
:103720001042F7D130782A2811D06FF02F0330786B
:10373000A0F13002092A16D8059A44F0020402EBDF
:10374000820203EB42021044761C0590EFE759F821
:10375000042B0592002A03DA504244F400540590E9
:1037600044F00204761C30782E2816D116F8010F8A
:1037700044F004042A280DD06FF02F023078A0F115
:103780003003092B09D807EB870302EB4303C71863
:10379000761CF3E759F8047B761C30786C280FD040
:1037A00006DC4C2817D068280DD06A2814D104E014
:1037B000742810D07A280FD10DE044F400140AE0E8
:1037C00044F4801401E044F440147278824202D13F
:1037D00004F58014761C761C307866280BD013DC38
:1037E000582877D009DC002875D04528F6D046281F
:1037F000F4D047281AD19DE118E0632835D0642819
:1038000079D0652812D195E1702873D008DC67283B
:10381000F1D069286FD06E280DD06F2806D1B5E0A1
:1038200073282CD0752875D0782874D05A461799EB
:1038300090476D1C75E1C4F30250022809D003289B
:103840000DD0D9F8001004280DD00D6009F104093D
:1038500067E1D9F80010EA17C1E90052F6E7D9F894
:1038600000100D80F2E70D70F0E719F8041B8DF8D9
:10387000001000208DF80100EA46012003E059F80D
:1038800004AB4FF0FF3061074FF0000102D40DE0B0
:1038900008F101018846B9420FDA8045F8DB1AF8D1
:1038A00008100029F4D108E008F10101884681429E
:1038B000FADB1AF808100029F6D105985B46A0EB50
:1038C000080721463846179A00F094FA284400EB7E
:1038D000080507E04DE029E10DE01AF8010B5A4612
:1038E00017999047B8F10108F7D25B462146384650
:1038F000179A13E142E00A220092C4F302524FF0F9
:10390000000A022A08D059F804CB032A4FEAEC71C6
:103910000AD00DE029E02AE009F1070121F00702B1
:10392000F2E802C1914609E00FFA8CFC4FEAEC7113
:10393000042A03D14FFA8CFC4FEAEC71002907DA14
:103940000A460021DCF1000C61EB02012D2202E0AD
:10395000220504D52B228DF80420012203E0E20782
:1039600001D02022F7E7904659E00A2102E0102218
:103970000DE010214FF0000A00910BE010224FF0F3
:10398000000A44F004040827009203E008224FF0E4
:10399000000A0092C4F30252022A05D059F804CB5F
:1039A0000021032A08D009E009F1070121F00702EC
:1039B000F2E802C1914605E01FFA8CFC042A01D10D
:1039C0000CF0FF0C4FF00008220728D5702806D015
:1039D000009B83F0100353EA0A0305D00EE0402257
:1039E0008DF80420012208E05CEA010206D03022B2
:1039F0008DF804208DF8050002229046009B83F08C
:103A0000080353EA0A030AD15CEA010201D1620702
:103A100005D530228DF804204FF001087F1E58286C
:103A200004D034A003900EA802900DE036A0F9E770
:103A300053466046009AFCF788FC84460398825CF3
:103A40000298401E029002705CEA0100F0D10298D8
:103A500006A9081A00F1200A600702D524F4803470
:103A600000E00127574502DDA7EB0A0000E0002037
:103A700000EB0A01009005984144401A0590E003CC
:103A800006D45B462146179A059800F0B3F9054421
:103A9000002706E001A85A46C05D179990476D1CA3
:103AA0007F1C4745F6DBE0030CD55B462146179AA1
:103AB000059800F09FF9054404E030205A46179914
:103AC00090476D1C0099481E00900029F5DC08E025
:103AD000029802995A460078491C0291179990471A
:103AE0006D1CBAF10001AAF1010AF1DC65E10000E8
:103AF00009280100303132333435363738396162C4
:103B00006364656600000000303132333435363787
:103B100038394142434445460000000000F058F95E
:103B20000544761C307800287FF4ECAD19B02846A7
:103B3000BDE8F08F620700D4062709F1070222F0E2
:103B4000070CFCE80223E14603F000485FEA080C9A
:103B500002D00FF2702C0DE05FEA045C02D50FF288
:103B6000682C07E05FEAC47C02D00FF2602C01E011
:103B7000AFF2700C4FF0FF3823F00043CDF850C087
:103B800065280CD006DC452809D046281DD04728DA
:103B90003DD13DE0662818D067287ED138E000216D
:103BA000112F01DB112000E0781CCDE9000106A9EE
:103BB0000EA8FFF7EDFCDDE90F010E9A039100213D
:103BC000009207F1010A04914DE04FF00040009788
:103BD000CDE9011006A90EA8FFF7DAFCDDE90F0216
:103BE00003920E9B11990022DDF80CA00093049221
:103BF00011B9791C00EB010AB7EB0A0004D4C0F13B
:103C0000FF3007F1010A0490AAEB0700019044E09D
:103C1000012F00DA01270021112F01DD112000E022
:103C20003846CDE9000106A90EA8FFF7B1FCDDE991
:103C30000F010E9A0391002104910092BA462107C8
:103C40000CD40399514500DA8A46BAF1010F05DD1B
:103C5000009AAAF10101515C302908D0B84202DA79
:103C600010F1040F06DA0121CDE9011015E0AAF1E7
:103C70000101E9E7002805DC049901440491AAEB5D
:103C8000000102E0411C514500DD8A460499401ABA
:103C9000401C01904FF000400290200704D401988E
:103CA000504501DBCDF8048000208DF84F000298CC
:103CB0000DF14F07B0F1004F25D02B200E90029848
:103CC0004FF0020800280CDA404202902D200E909E
:103CD00007E00A210298FCF722FB3031029007F836
:103CE000011DB8F10001A8F10108F2DC02980028DA
:103CF000EFD1791E0E980870307800F0200040F067
:103D0000450007F8020D12A8C01B00F1070814981F
:103D1000007800B1012000EB0A01019801EBE0718D
:103D200005984144401A401E0590E00306D45B46C6
:103D30002146179A059800F05DF80544149800781C
:103D400018B15A46179990476D1CE00324D55B467D
:103D50002146179A059800F04DF805441CE0049898
:103D6000002807DBDDE90301884203DD0098405CA1
:103D7000179901E0179930205A469047049805F1A9
:103D80000105401C04900198401E019004D12E2092
:103D90005A46179990476D1CBAF10001AAF1010A21
:103DA000DDDC05E017F8010B5A46179990476D1CAA
:103DB000B8F10001A8F10108F4DC5B462146179A2E
:103DC0000598ABE62D0000002B000000200000004D
:103DD0002DE9F041044600251E461746880404D408
:103DE00005E039462020B0476D1C641EF9D52846F1
:103DF000BDE8F0812DE9F041044600251E469046BD
:103E0000C80301D5302700E02027880404D505E049
:103E100041463846B0476D1C641EF9D52846BDE8BA
:103E2000F0814A68002A06D00A68531C0B601070A3
:103E30004868401E486070470A68531C0B60107049
:103E40007047000010B56FF00400FFF767F80A48EC
:103E500000680A49B0FBF1F009490870084600788B
:103E600000EB4001C1EBC0104FF6FF7101EAC0004A
:103E70000449088010BD00000800002000127A00EC
:103E80001C0000201E0000200146114A12884A43EF
:103E90004FF0E0235A6100229A611A46126942F0FB
:103EA00001021A6100BF4FF0E022106900F0010228
:103EB0001AB100F48032002AF5D04FF0E0221269E6
:103EC00022F001024FF0E0231A6100229A6170474C
:103ED0001E0000200146114A12784A434FF0E023A9
:103EE0005A6100229A611A46126942F001021A616F
:103EF00000BF4FF0E022106900F001021AB100F497
:103F00008032002AF5D04FF0E022126922F001023F
:103F10004FF0E0231A6100229A6170471C000020D4
:103F200000BF054A128802F04002002AF9D0C2B24E
:103F3000014B1B1D1A8070470038014010B5002846
:103F400021D0114B0022001F196803E0814203D8E1
:103F50000A4649680029F9D152B11368841A9C4273
:103F600004D1006818441060104602E0506000E080
:103F7000186039B102680B1A934203D10B681A44D6
:103F800002604968416010BD48000020F0B5044659
:103F9000142C06DA01EA020523EA010685EA060086
:103FA00019E0282C04DA81EA020787EA030012E00C
:103FB0003C2C0ADA01EA020501EA030787EA050652
:103FC00002EA030787EA060005E0502C03DA81EADB
:103FD000020787EA0300F0BD2DE9F04FADF5B36DA0
:103FE00007460E4692469846DDF8BC9540254FF0B0
:103FF000360B5C20CDF89405002404E000200DF27F
:1040000054510855641C402CF8DBAE421DD0AE4222
:104010000FDD4A463146384600F052FA002405E0EA
:1040200019F804000DF254510855641C142CF7DBE8
:1040300014E0AE4212DA002404E0385D0DF254516F
:104040000855641CB442F8DB08E0002404E0385D45
:104050000DF254510855641CAC42F8DB002408E012
:104060000DF25450005D80EA0B000DF2145108551A
:10407000641C402CF4DB002405E00DF21450005DBC
:1040800015A90855641C402CF7DB002406E01AF83B
:10409000041015AA04F140001154641C4445F6DBD9
:1040A00008EB05014A4615A800F00AFA002409E0C9
:1040B0000DF25450005DDDF8941548400DF2D441E6
:1040C0000855641C402CF3DB002405E00DF2D440BD
:1040D000005D0DF80400641C402CF7DB002406E0B2
:1040E00019F8041004F140000DF80010641C142CA1
:1040F000F6DB4A4605F11401684600F0E1F90DF5DA
:10410000B36DBDE8F08F00000146142901DA0748BD
:104110000AE0282901DA064806E03C2901DA0548C8
:1041200002E0502900DA0448704700009979825A69
:10413000A1EBD96EDCBC1B8FD6C162CA4FF4A06064
:10414000FEF734F8FFF77EFEFDF7EEF9FDF753F8C2
:10415000FDF7B8FCFDF710FC4FF4E13000F0F2FA87
:104160004FF4E13000F040FB00206D4908706D49CC
:1041700008600024FEF7B4F8FCF780FCFCF726FF8B
:1041800069A17048FFF763F803E04FF4FA70FFF796
:104190007BFE6DA16EA0FCF7B5FF0028F5D178A1DC
:1041A0006848FFF754F86420FFF76EFE03E04FF411
:1041B000FA70FFF769FEFEF7EFFA0028F7D178A052
:1041C000FFF78CF979A201210846FEF757F97CA286
:1041D00001210220FEF752F97CA201210320FEF703
:1041E0004DF99BE04E480078102815D003DC48B10B
:1041F00001281DD104E011281BD0312818D100E07E
:1042000000BF1AE0012046490870FEF7E9FD10B929
:1042100031204349087010E0FDF788FA6F490870B3
:1042200008460078FFF750F800203D49087004E088
:1042300000BF00203A49087000BF00BFFCF70CFC2B
:10424000674908800988A1F16400FCF74BF88046B3
:104250006449FCF709F807466349FBF7D3FF0646B4
:10426000FCF749F880B2C0F1640502232A46072111
:104270000320FEF7E1F85A490988A1F16400FCF730
:1042800031F880465749FBF7EFFF07465749FBF7E0
:10429000B9FF0646FCF72FF880B2642190FBF1F2DB
:1042A00001FB1200C0F1640502232A460A21032003
:1042B000FEF7C2F8FCF7B8FDA0B14D4882780223A2
:1042C0000D210120FEF7B8F84948C27801231021DA
:1042D0001846FEF7B1F84648027802230A2118462C
:1042E000FEF7AAF84FF47A70FFF7CEFD4048037846
:1042F000827840A11348FEF7AAFF601C80B20446F2
:104300000A2808DB42A10F48FEF7A1FFFEF702FCD6
:104310000024FCF725FE6420FFF7B6FD62E70000ED
:104320000000002090812142436F6E6E656374200F
:104330004D51545473205365727665722E2E2E0D96
:104340000A00000000380140434F4E4E45435400E0
:1043500041542B43495053544152543D22544350ED
:10436000222C226D717474732E6865636C6F756492
:10437000732E636F6D222C313838330D0A00000024
:10438000436F6E6E656374204D51545420536572B3
:1043900076657220537563636573730D0A000000C0
:1043A000D4CBD0D0B3CCD0F20D0A000054656D70E0
:1043B000657261747572653A30302E30000000000D
:1043C00048756D69646974793A0000004C696768E2
:1043D000743A30302E3030250000000001000020FB
:1043E00004000020004035450000C84200401C4643
:1043F0003C00002050342A2A2A2A74656D7020253A
:1044000064202C68756D692025640D0A0000000089
:104410004F6E654E65745F53656E64446174610DE3
:104420000A000000F0B50B30154D20F00701002404
:10443000144A0FE003688B420BD38B4205D95E1AF6
:1044400043184768C3E9006700E04368136002C08F
:1044500004E0021D10680028ECD12046002802D19B
:10446000286808B10020F0BD064A07481060074AD6
:10447000121A22F00702C0E9002401202860D7E7C1
:104480004C000020480000201C03002018050020DC
:10449000F0B50246C2F1200C012000FA0CF0441ED7
:1044A000E54301EA040000FA02F601EA0500C2F160
:1044B000200C20FA0CF746EA07031846F0BD00006E
:1044C0002DE9F04FDDB007468A4615460AF1080986
:1044D00009F101094FEACA005B9048464FEAE971C9
:1044E00009EB91618E1148464FEAE97109EB916140
:1044F0008911A9EB81115C915C98002800DD761C84
:104500005C98C0F140008144D04604E0002007F8E8
:10451000080008F10108B8EB861FF7DB802007F8D8
:104520000A000121C1EB86115B9878545B98C0F3B7
:1045300007200221C1EB861178545B98C0F3074035
:104540000321C1EB861178545B98000E0421C1EB66
:104550008611785478485690784857907648C043EA
:1045600058907648C043599075485A904FF00008CB
:10457000A5E0002452E0102C32D24FEA881000EB64
:104580008400385C000601A941F824004FEA881035
:1045900000EB8400401C385C51F824104FF480324A
:1045A00002FB001001A941F824004FEA881000EB3B
:1045B0008400801C385C51F82410121202FB001099
:1045C00001A941F824004FEA881000EB8400C01CC8
:1045D000385C51F82410084401A941F824001CE07B
:1045E000502C1AD2E01E01AA52F82000A4F10802B1
:1045F00001AB53F822205040A4F10E0253F82220C0
:104600005040A4F1100253F8222080EA0201012058
:10461000FFF73EFF01A941F82400641C502CAAD3E7
:10462000569855905798549058985390599852903E
:104630005A98519000242AE005205599FFF728FF49
:1046400083462046529B539A5499FFF79FFC584447
:10465000009051990098084400902046FFF754FDBF
:1046600000990844009001A850F8241000980844CC
:10467000009052985190539852901E205499FFF7F1
:1046800007FF53905598549000985590641C502CF7
:10469000D2D356995598084456905799549808443F
:1046A00057905899539808445890599952980844EB
:1046B00059905A99519808445A9008F10108B04508
:1046C000FFF657AF5698E8705698000AA8705698AB
:1046D000000C68705698000E28705798E87157982B
:1046E000000AA8715798000C68715798000E28713D
:1046F0005898E8725898000AA8725898000C687286
:104700005898000E28725998E8735998000AA873AF
:104710005998000C68735998000E28735A98E874D9
:104720005A98000AA8745A98000C68745A98000E97
:1047300028745DB0BDE8F08F0123456789ABCDEFEC
:10474000F0E1D2C310B586B00446012144F2040062
:10475000FEF7CCFA4FF40070ADF8140003208DF88A
:10476000160018208DF8170005A91D48FCF7F4FD68
:104770004FF48060ADF8140004208DF8170005A9EF
:104780001748FCF7E9FD25208DF8000000208DF882
:10479000010002208DF8020001208DF80300684618
:1047A000FDF7CCFC01940020ADF80800ADF80A003C
:1047B000ADF80C00ADF810000C20ADF80E0001A90A
:1047C0000848FEF7CDFC012240F225510548FEF7CE
:1047D000A1FC01210348FEF75AFC06B010BD000001
:1047E000000801400038014010B586B004460121A0
:1047F0000420FEF77BFA01214804FEF767FA042043
:10480000ADF8140003208DF8160018208DF817005D
:1048100005A91D48FCF7A0FD0820ADF814000320F1
:104820008DF8160004208DF8170005A91648FCF72E
:1048300093FD26208DF8000000208DF801008DF8F2
:10484000020001208DF803006846FDF777FC019413
:104850000020ADF80800ADF80A00ADF80C00ADF886
:1048600010000C20ADF80E0001A90848FEF778FCF6
:10487000012240F225510548FEF74CFC0121034876
:10488000FEF705FC06B010BD0008014000440040E2
:104890006C69206D696E6700000000000000000078
:1048A000000000006B61692064656E670000000015
:1048B00000000000000000006775616E2064656EF6
:1048C0006700000000000000000000006C69616EDD
:1048D00067206475206A6961000000000000000024
:1048E0006C69616E67206475206A69616E00000002
:1048F000000000006B6169206D656E6700000000BC
:1049000000000000000000006775616E206D656E9C
:104910006700000000000000000000006775616E85
:1049200067207A686F75000000000000000000003A
:104930007368656E207A68656E00000000000000F4
:10494000000000007869616E67207A756F207A68D0
:1049500075616E00000000007869616E6720796FF4
:1049600075207A6875616E00000000006461206B3C
:104970006169206B6F6E67207469616F00000000D1
:104980006775616E206269206B6F6E672074696164
:104990006F000000686F75207475690000000000EA
:1049A0000000000000000000000000000000000007
:1049B0000000000000000000000000F800000000FF
:1049C000000000333000000000100C06100C060040
:1049D000000000000000000040C07840C0784000A7
:1049E000043F04043F040400007088FC0830000009
:1049F000001820FF211E0000F008F000E018000061
:104A000000211C031E211E0000F008887000000019
:104A10001E2123241927211010160E00000000006B
:104A20000000000000000000000000E01804020088
:104A3000000000071820400000020418E0000000F9
:104A40000040201807000000404080F080404000F7
:104A50000202010F01020200000000F0000000004D
:104A60000101011F01010100000000000000000021
:104A700080B0700000000000000000000000000096
:104A8000000101010101010100000000000000001F
:104A900000303000000000000000000080601804BA
:104AA000006018060100000000E010080810E00097
:104AB000000F102020100F00001010F80000000060
:104AC0000020203F202000000070080808887000A7
:104AD0000030282422213000003008888848300027
:104AE0000018202020110E000000C02010F8000047
:104AF00000070424243F240000F8088888080800E0
:104B00000019212020110E0000E0108888180000F4
:104B1000000F112020110E0000380808C8380800C6
:104B20000000003F00000000007088080888700046
:104B3000001C222121221C0000E010080810E000C7
:104B40000000312222110F00000000C0C000000050
:104B50000000003030000000000000800000000075
:104B6000000080600000000000008040201008006D
:104B70000001020408102000404040404040400036
:104B80000404040404040400000810204080000011
:104B90000020100804020100007048080808F00016
:104BA0000000003036010000C030C828E810E000E6
:104BB0000718272423140B000000C038E000000071
:104BC000203C23020227382008F8888888700000DB
:104BD000203F202020110E00C030080808083800AF
:104BE000071820202010080008F808080810E00026
:104BF000203F202020100F0008F88888E8081000C7
:104C0000203F20202320180008F88888E80810009A
:104C1000203F200003000000C030080808380000D2
:104C200007182020221E020008F808000008F808D3
:104C3000203F210101213F20000808F8080800005A
:104C40000020203F2020000000000808F80808008D
:104C5000C08080807F00000008F888C02818080005
:104C6000203F20012638200008F80800000000003E
:104C7000203F20202020300008F8F800F8F8080035
:104C8000203F003F003F200008F830C00008F8082F
:104C9000203F200007183F00E01008080810E0003F
:104CA0000F10202020100F0008F808080808F00056
:104CB000203F210101010000E01008080810E00079
:104CC0000F18242438504F0008F88888888870000E
:104CD000203F2000030C30200070880808083800AE
:104CE0000038202121221C00180808F808081800A4
:104CF0000000203F2000000008F808000008F80825
:104D0000001F202020201F000878880000C83808D5
:104D1000000007380E010000F80800F80008F8004D
:104D2000033C0700073C03000818688080681808E7
:104D300020302C03032C30200838C800C838080065
:104D40000000203F2000000010080808C8380800B4
:104D50002038262120201800000000FE0202020058
:104D60000000007F40404000000C30C00000000008
:104D7000000000010638C00000020202FE00000030
:104D8000004040407F0000000000040202020400D6
:104D90000000000000000000000000000000000013
:104DA00080808080808080800002020400000000FB
:104DB00000000000000000000000808080800000F3
:104DC0000019242222223F2008F8008080000000E1
:104DD000003F112020110E000000008080800000A4
:104DE000000E112020201100000000808088F800B3
:104DF000000E112020103F200000808080800000E5
:104E0000001F222222221300008080F08888881848
:104E10000020203F20200000000080808080800053
:104E2000006B94949493600008F8008080800000E8
:104E3000203F210000203F200080989800000000C3
:104E40000020203F202000000000008098980000F3
:104E500000C08080807F000008F800008080800013
:104E6000203F24022D302000000808F80000000038
:104E70000020203F202000008080808080808000F3
:104E8000203F20003F20003F808000808080000085
:104E9000203F210000203F20000080808080000013
:104EA000001F202020201F00808000808000000044
:104EB00080FFA12020110E00000000808080800073
:104EC000000E112020A0FF80808080008080800064
:104ED00020203F2120000100000080808080800091
:104EE0000033242424241900008080E08080000006
:104EF0000000001F20200000808000000080800053
:104F0000001F202020103F208080800000808080B3
:104F100000010E3008060100808000800080808043
:104F20000F300C030C300F00008080008080800068
:104F30000020312E0E312000808080000080808093
:104F400080818E7018060100008080808080800043
:104F50000021302C2221300000000000807C020261
:104F600000000000003F404000000000FF00000083
:104F700000000000FF0000000002027C8000000032
:104F80000040403F0000000000060101020204044E
:104F900000000000000000004142434445464748ED
:104FA000494A4B4C4D4E4F505152535455565758F9
:104FB000595A6162636465666768696A6B6C6D6E95
:104FC0006F707172737475767778797A30313233A5
:104FD0003435363738392B2F7F7F7F7F7F7F7F7F38
:104FE0007F7F7F7F7F7F7F7F7F7F7F7F7F7F7F7FD1
:104FF0007F7F7F7F7F7F7F7F7F7F7F7F7F7F7F7FC1
:105000007F7F7F3E7F7F7F3F3435363738393A3B6D
:105010003C3D7F7F7F407F7F7F00010203040506C8
:105020000708090A0B0C0D0E0F1011121314151698
:105030001718197F7F7F7F7F7F1A1B1C1D1E1F2063
:105040002122232425262728292A2B2C2D2E2F30D8
:105050003132337F7F7F7F7F76657273696F6E3DFC
:105060002573267265733D70726F64756374732562
:105070002532462573252532466465766963657356
:105080002525324625732665743D2564266D657495
:10509000686F643D2573267369676E3D2573000054
:1050A000C0500008000000205000000070350008CB
:1050B0001051000850000020C80C00008035000886
:1050C000000000000000000000A24A0400000000F0
:1050D00000000000010203040607080900000000A8
:1050E00000000000000000000000010203040102B3
:1050F0000304060708090204060800000000000077
:10510000000000000000000000000000000000009F
:0400000508000101ED
:00000001FF
