:020000040800F2
:10000000180B002001010008A91300084F0F000879
:10001000A51300087D0B00086B1F000800000000FE
:10002000000000000000000000000000511900085E
:10003000810B0008000000006D170008651A000819
:100040001B0100081B0100081B0100081B01000820
:100050001B0100081B0100081B0100081B01000810
:100060001B0100081B0100081B0100081B01000800
:100070001B0100081B0100081B0100081B010008F0
:100080001B0100081B0100081B0100081B010008E0
:100090001B0100081B0100081B010008830B00085E
:1000A0001B0100081B0100081B0100081B010008C0
:1000B0001B0100081B0100081B0100081B010008B0
:1000C0001B0100081B0100081B0100081B010008A0
:1000D0001B010008ED1C0008751D00081B0100082D
:1000E0001B0100081B0100081B010008DFF80CD0F1
:1000F00000F00AFC004800473D290008180B0020CA
:100100000648804706480047FEE7FEE7FEE7FEE7B1
:10011000FEE7FEE7FEE7FEE7FEE7FEE7691A0008F6
:10012000ED000008F0B480EA0102D40F4200B2EB07
:10013000410F02D20246084611464A0042D0C30D82
:10014000DDB2C1F3C752AD1A202D35DAC1F3160165
:1001500041F4000204B15242C5F1200602FA06F150
:100160002A411044B3EBD05F23D0C4B1012DA0EBE2
:10017000C35009DCF0BC4FF0004202EAC352DBB2CC
:1001800000F5000000F0ADBA400000F1807000EB17
:10019000C350A0F1807040EAD170490009E04908DD
:1001A00041EAC071A0EBC35000F50000400800EB2D
:1001B000C350F0BC00F08CBA6142012202EB410155
:1001C000001BF6E7F0BC704781F00041AAE780F021
:1001D0000040A7E780EA010210B502F000434000AA
:1001E00022D04A001FD0010E01EB1261C0F356006D
:1001F000C2F3560240F4000042F40002A0FB0220C9
:1002000000047F39140400D0401C50EA124001D48D
:100210004000491EC2B20C0604EBD010401C40083E
:10022000802A02D003E0002010BD20F00100002948
:1002300000DA0020184310BD30B480EA010202F059
:10024000004530F0004221F0004013D090B1C30DC2
:10025000D40DC2F31601C0F31600E41A41F40001F4
:1002600040F400027D34914201D3641C00E0490057
:10027000002C02DA30BC002070474FF4000000234D
:10028000914201D3891A034340084FEA4101F7D153
:1002900051B1914202D14FF0004105E002D24FF03E
:1002A000010101E06FF0010103EBC450284430BCB0
:1002B00000F00EBA2DE9FE4F804681EA0300C00F20
:1002C0000C46009021F0004123F00045B8EB0200FD
:1002D000A94105D24046214690461C460B4602469F
:1002E00023F00040104347D0270DC7F30A00C3F3A3
:1002F0000A510290401A019040286BDAC3F31300B0
:1003000040F4801B0098924620B10023D2EB030AF0
:1003100063EB0B0B01985946C0F14002504600F0C8
:10032000A6F906460D4650465946019A00F0BEF918
:1003300010EB08006141002487EA115284EAE77358
:100340001A4340D0009A62B3019A012A4FEA075239
:1003500015DC001B61EB02014FF0004202EA07527C
:10036000CDE90042001C41F5801132462B4600F0D9
:10037000F5F903B0BDE8F08F40462146F9E7001BD0
:1003800061EB0201001C41F5801300185B4120184D
:10039000A2F5001747EB030140EAD570B6196D418D
:1003A00011E06D084FEA360645EAC0754FEA07527C
:1003B000001B61EB0201001C41F5801149084FEA66
:1003C00030000019514132462B4603B0BDE8F04FD2
:1003D00000F0B5B90098012240000023D0EB0202E2
:1003E00063EBE073009821464FEAE074B8EB00003D
:1003F00061EB0401E9E783F000435BE781F0004132
:1004000058E72DE9FE4F81EA030404F0004421F08F
:10041000004100944FF0000B23F0004350EA010428
:100420005ED052EA03045BD0C3F30A54C1F30A5509
:100430002C44A4F2F3340194A0FB0254C1F3130141
:1004400041F48011C3F3130343F4801301FB02440E
:1004500000FB034E840A970A44EA815447EA835713
:10046000A4FB076802958D0A05FB07854FEA932CCC
:1004700004FB0C542705029D4FEA065847EA16373D
:10048000B5EB08056EEB070C870E920E47EA811755
:1004900042EA8312A7FB0201B6EB0B0164EB0004F6
:1004A0002B0D43EA0C335E1844EB1C50DA465146E0
:1004B000E7FB0201C5F313044FEA0B3343EA14537D
:1004C0004FEA0432019C43EA0603A4F10C040294AF
:1004D000009CCDE900B400F041F903B0BDE8F08F15
:1004E00000200146F9E7C10F80EAE0700844CA071E
:1004F0009623002100F0F5B896230022114600F063
:10050000F0B820F00040C10DC0F3160040F4000028
:100510007F2901DA00207047962903DCC1F196019A
:10052000C840704796398840704700F0004230F06C
:1005300000400AD0C10D01F56071C0F3160042EA17
:100540000151C2084007114370470020014670471F
:1005500030B5041E71F1000404DB4FF0004440424A
:1005600064EB0101141E73F1000405DB1C464FF01F
:100570000043524263EB0403994208BF904230BDEE
:1005800001F0004330B421F0004150EA010206D0EE
:100590000A0DA2F56072C1F31301002A02DC30BC1F
:1005A00000207047440F44EAC104C100E01830BC89
:1005B00000EBC25000F08CB8002801DBC0F1004015
:1005C000002901DBC1F1004181427047002801DBB5
:1005D000C0F10040002901DBC1F1004188427047B1
:1005E00030B50B46014600202022012409E021FA03
:1005F00002F59D4205D303FA02F5491B04FA02F500
:100600002844151EA2F10102F1DC30BD2DE9F05F96
:100610000546002092469B46884606468146402471
:100620001BE0284641464746224600F02FF8534635
:100630005A46C01A914110D311461846224600F07E
:1006400016F82D1A67EB01084F46224601200021BB
:1006500000F00DF817EB00094E41201EA4F1010433
:10066000DFDC484631462A464346BDE8F09F202A53
:1006700004DB203A00FA02F1002070479140C2F1F9
:10068000200320FA03F3194390407047202A04DB2B
:10069000203A21FA02F00021704721FA02F3D040FB
:1006A000C2F120029140084319467047202A06DB18
:1006B000CB17203A41FA02F043EAE07306E041FA30
:1006C00002F3D040C2F1200291400843194670471E
:1006D0000029A8BF7047401C490008BF20F0010056
:1006E000704710B4B0FA80FC00FA0CF050EA010434
:1006F00004BF10BC704749B1CCF1200421FA04F4C6
:1007000011FA0CF118BF012121430843A3EB0C019E
:10071000CB1D4FEA00614FEA102042BF002010BC01
:10072000704700EBC35010440029A4BF10BC7047B1
:10073000401C490008BF20F0010010BC704710B5F4
:10074000141E73F1000408DA401C41F100019218F4
:100750005B411A4301D120F0010010BD2DE9F04D9D
:1007600092469B4611B1B1FA81F202E0B0FA80F2F2
:1007700020329046FFF77BFF04460F4640EA0A000E
:1007800041EA0B0153465A46084313D0114653EA37
:10079000010019D0C8F140025046FFF777FF054627
:1007A0000E46504659464246FFF761FF084305D0C2
:1007B000012004E020463946BDE8F08D00200543C5
:1007C00046EAE0762C4337430A986305E40AA0EB37
:1007D00008000022FD0A44EA47540A3002D50020EE
:1007E0000146E9E7010510196941DDE908450019ED
:1007F0006941BDE8F04DA2E72DE9F04D81EA03041F
:1008000004F0004B21F0004514464FF0000A23F09D
:10081000004150EA050220D054EA01021DD0C5F380
:100820000A570246C5F31303C1F31300C1F30A5676
:1008300040F4801543F48013A7EB0608101BD6463E
:1008400008F2FD3873EB050002D308F1010801E05E
:1008500092185B41B8F1000F03DA00200146BDE8B1
:10086000F08D00204FF48011064684460EE0171BE1
:1008700073EB050705D3121B63EB050306434CEA34
:10088000010C49084FEA300092185B4150EA010719
:10089000EDD152EA030012D082EA040083EA050196
:1008A000084305D0101BAB4106D20122002306E00D
:1008B00000224FF0004302E06FF0010253101AEBE8
:1008C00006004CEB085110EB0A0041EB0B01BDE8B0
:1008D000F04DFFF734BFC1F30A52C1F3130140F2E8
:1008E000FF3341F480119A4202DA0020014670473A
:1008F00040F233439A42A2F2334202DC5242FFF703
:10090000C5BEFFF7B4BE0000064C074D06E0E06828
:1009100040F0010394E8070098471034AC42F6D346
:10092000FFF7E8FB343200085432000821B1826836
:1009300042F00102826003E0826822F001028260DC
:100940007047014600208A6802F004020AB10120C3
:1009500000E0002070470146C86C80B27047024634
:10096000002013680B400BB1012000E0002070470D
:10097000014600208A6802F008020AB1012000E066
:100980000020704730B502460020002350680F4C0D
:1009900020400D790C6844EA05242043506090689B
:1009A0000B4C2040D1E902542C434D7944EA4504D4
:1009B00020439060D06A20F470000C7C641EE4B286
:1009C000234340EA0350D06230BD0000FFFEF0FF39
:1009D000FDF7F1FFF0B504460D4600200021092D7A
:1009E00011DDE068A5F10A0606EB4607072606FAC0
:1009F00007F18843A5F10A0606EB460603FA06F15D
:100A00000843E0600CE0206905EB4507072606FA7D
:100A100007F1884305EB450603FA06F10843206118
:100A2000072A0FDA606B561E06EB86071F2606FAAA
:100A300007F18843561E06EB860605FA06F10843C1
:100A4000606322E00D2A0FDA206BD61F06EB8607C3
:100A50001F2606FA07F18843D61F06EB860605FA1D
:100A600006F10843206310E0E06AA2F10D0606EBF0
:100A700086071F2606FA07F18843A2F10D0606EB4A
:100A8000860605FA06F10843E062F0BD816841F090
:100A900008018160704721B1826842F4A00282603F
:100AA00003E0826822F4A00282607047816841F00E
:100AB000040181607047000010B501210648FFF76E
:100AC000EAFF00BF02210448FFF749FF0028F9D0E0
:100AD0000148FFF740FF10BD0024014000B587B07A
:100AE0000121480200F0BAFE0121042000F0B6FE08
:100AF0004FF4004000F096FE00208DF81B0001200E
:100B0000ADF8180003208DF81A0006A9194800F066
:100B100045F90523012200211748FFF75BFF00205C
:100B2000019004904FF46020039000208DF809009C
:100B30008DF8080001208DF8140001A90E48FFF778
:100B400021FF01210C48FFF7F1FE0B48FFF79EFF44
:100B500000BF0948FFF70CFF0128FAD00648FFF74D
:100B6000A5FF00BF0448FFF7ECFE0128FAD007B04C
:100B700000BD0000000801400024014000BFFEE766
:100B8000704710B54FF4807000F040F848B100F0A5
:100B9000EFFD4FF4807000F02DF84FF4807000F0FE
:100BA0002FF810BD0EB50121084600F057FE0821B0
:100BB000012000F0D3F84FF48070019000208DF8F0
:100BC00008000C208DF8090001208DF80A0001A80A
:100BD00000F030F817208DF8000002208DF8010099
:100BE0008DF8020001208DF80300684600F0DEFB5E
:100BF0000EBD000001490860704700001404014068
:100C000001490860704700001404014001460020BB
:100C10000022074B1B6803EA0102054B14331B68D3
:100C20000B4013B10AB1012000E000207047000022
:100C300000040140002123498279002A3AD00A4663
:100C4000126803689A430B461A600A1D126803680B
:100C50009A430B1D1A60027911440A6803681A430B
:100C60000A60184A0832126803689A43154B083321
:100C70001A601A1D126803689A43124B0C331A60EB
:100C80004279102A0ED11A1F126803681A430D4BBD
:100C900008331A601A1D126803681A43094B0C3393
:100CA0001A600DE00749427911440A6803681A4343
:100CB0000A6005E0027911440A6803689A430A60F1
:100CC000704700000004014000B589B001210220F6
:100CD00000F0B4FD0121082000F0C0FD18208DF8BF
:100CE00023000120ADF8200003208DF8220008A980
:100CF000184800F053F8184800F0F2FE0020ADF854
:100D00001A00ADF816006320ADF8180040F2CF20AD
:100D1000ADF8140000208DF81C0005A90E4800F065
:100D200093FF01A800F084FF6020ADF804000020CC
:100D3000ADF80C000120ADF806000020ADF80A0067
:100D400001A9054800F024FF0121034800F0BCFE82
:100D500009B000BD000C01400004004030B5002285
:100D60008B071C0F0F2303FA04F20B4B8C1053F864
:100D700024309343084C8D1044F8253023468C10C2
:100D800053F824308C07240F00FA04F42343024C58
:100D90008D1044F8253030BD080001402DE9F041A8
:100DA000024600250026002000230024002791F899
:100DB00003C00CF00F0591F803C00CF0100CBCF14F
:100DC000000F03D091F802C04CEA050591F800C06D
:100DD000BCF1000F31D0146800202BE04FF0010C63
:100DE0000CFA00F3B1F800C00CEA03069E4220D1D1
:100DF00083004FF00F0C0CFA03F7BC4305FA03FC19
:100E00004CEA040491F803C0BCF1280F06D14FF05E
:100E1000010C0CFA00FCC2F814C00AE091F803C0FF
:100E2000BCF1480F05D14FF0010C0CFA00FCC2F8E0
:100E300010C0401C0828D1D31460B1F800C0BCF128
:100E4000FF0F34DD546800202EE000F1080C4FF055
:100E5000010808FA0CF3B1F800C00CEA03069E4240
:100E600021D183004FF00F0C0CFA03F7BC4305FAB5
:100E700003FC4CEA040491F803C0BCF1280F05D12F
:100E800000F1080C08FA0CF8C2F8148091F803C0BD
:100E9000BCF1480F07D100F1080C4FF0010808FA27
:100EA0000CF8C2F81080401C0828CED35460BDE86E
:100EB000F0810000F0B50A4600230024002100253F
:100EC00000F00046B6F1004F02D11D4EF16901E07D
:100ED0001B4E7168C0F3034583B200F44016B6F5AB
:100EE000401F08D121F07061154E766826F07066BB
:100EF000134F7E6012E000F48016B6F5801F06D115
:100F0000032606FA05F4A14341F0706106E0460DA0
:100F1000360103FA06F6B14341F0706122B1460D85
:100F2000360103FA06F6314300F00046B6F1004FF1
:100F300002D1034EF16101E0014E7160F0BD00008D
:100F4000000001400AB1016100E04161704700BF4B
:100F5000FEE7000008B50121092000F07FFC012117
:100F60001D48FFF7A7FF8020ADF8000010208DF886
:100F7000030003208DF8020069461848FFF70EFFB2
:100F80002020ADF8000069461448FFF707FF102045
:100F9000ADF8000069461148FFF700FF0820ADF8E2
:100FA000000069460D48FFF7F9FE4020ADF800004B
:100FB00048208DF8030069460848FFF7EFFE4FF41C
:100FC0008070ADF8000004208DF8030069460348E6
:100FD000FFF7E4FE08BD000000023000000C0140F5
:100FE0002DE9F041054600240026A04605270020F3
:100FF0003A490860012001F06DFC00BF1DE007F0D8
:10100000800020B101203549091D086003E000205F
:101010003249091D0860012001F05CFC00202F49C5
:101020000C3108607806070E012001F053FC012006
:101030002B49C1F89C01601CC4B2082CDFDB0024E2
:101040001DE005F0800020B101202449091D086041
:1010500003E000202149091D0860012001F03AFC4D
:1010600000201E490C3108606806050E012001F0C1
:1010700031FC01201A49C1F89C01601CC4B2082C43
:10108000DFDB012001F026FC00241BE07006060EC9
:1010900012487838006800F0FF08012001F01AFCBF
:1010A00000200F49C1F89C01B8F1010F01D146F0B1
:1010B0000106012001F00EFC012008490C310860F6
:1010C000601CC4B2082CE1DB012001F003FC01200C
:1010D000024908603046BDE8F0810000908121425D
:1010E0000080214210B5012010490860052001F060
:1010F000CBFB00200E49C1F88C01052001F0C4FB98
:1011000001200A490860052001F0BEFB00200849C3
:10111000C1F89001052001F0B7FB01200349091D2A
:101120000860052001F0B0FB10BD00008C81214259
:10113000008021422DE9F04105460E460024042797
:10114000002039490860012001F0C4FB00BF1DE008
:1011500007F0800020B101203349091D086003E039
:1011600000203149091D0860012001F0B3FB002077
:101170002D490C3108607806070E012001F0AAFB0A
:1011800001202A49C1F89C01601CC4B2082CDFDB95
:1011900000241DE005F0800020B101202249091D36
:1011A000086003E000202049091D0860012001F0CB
:1011B00091FB00201C490C3108606806050E0120D7
:1011C00001F088FB01201949C1F89C01601CC4B2E0
:1011D000082CDFDB00241DE006F0800020B1012098
:1011E0001149091D086003E000200F49091D08602E
:1011F000012001F06FFB00200B490C3108607006E4
:10120000060E012001F066FB01200849C1F89C018F
:10121000601CC4B2082CDFDB012001F05BFB012065
:1012200001490860BDE8F08190812142008021429F
:1012300000B589B00121084600F000FB012104201F
:1012400000F00CFB18208DF823000220ADF82000E0
:1012500003208DF8220008A91A48FFF79FFD4FF0E0
:10126000804000F03DFC0020ADF81A00ADF81600FB
:101270006320ADF8180040F2CF20ADF81400002034
:101280008DF81C0005A94FF0804000F0DDFC01A89E
:1012900000F0CEFC6020ADF804000020ADF80C009A
:1012A0000120ADF806000020ADF80A0001A94FF0BA
:1012B000804000F01BFC0121880700F005FC09B00C
:1012C00000BD0000000801402DE9F34F89B08346BE
:1012D00058460A99FEF778FF82465146274800682B
:1012E000FEF720FF25490860254801685046FEF7B3
:1012F0006BFF07902248C0F800A00798FFF715F988
:10130000044600221F4BFFF77CF8CDE902011B4881
:101310000068FFF70AF980461B4A1C4BFFF771F87B
:1013200004460D4651464FF07E50FEF753FF80466F
:10133000FFF7FBF8064622462B46FEF7BBFFCDE93A
:101340000001DDE90223FEF7B5FFCDE90401FFF757
:1013500017F9069000210698FFF72EF902D2002017
:10136000069006E00A490698FFF730F901D20848CE
:10137000069006980BB0BDE8F08F000044000020F6
:10138000400000200000E03F9A9999999999B93F4F
:101390000000C84210B5044621464FF0804000F0DE
:1013A00051FC10BD00BFFEE77047000070B5002182
:1013B00000230F22C47804B3154C246804F4E064BD
:1013C000C4F5E064210AC1F10403CA40447804FA78
:1013D00003F184781440214309010E4C0678A1558D
:1013E000047804F01F050124AC4005786D11AD00B0
:1013F00005F1E025C5F8004109E0047804F01F0577
:101400000124AC40044D0678761145F8264070BDA5
:101410000CED00E000E400E080E100E0024901435F
:10142000024A1160704700000000FA050CED00E070
:1014300070B500240EE00021204600F0EAF80025F7
:1014400004E0002000F082F9681CC5B2802DF8DBB2
:10145000601CC4B2082CEEDB70BD000008B5012191
:10146000042000F0FBF914208DF8030003208DF810
:1014700002004020ADF8000069460A48FFF78EFCE4
:101480008020ADF8000069460648FFF787FC01227E
:1014900040210448FFF756FD012280210148FFF753
:1014A00051FD08BD0008014070B50546002413E059
:1014B0008020204100EA050280210E48FFF742FD0E
:1014C000012240210B48FFF73DFD00224021094841
:1014D000FFF738FD601CC4B2082CE9DB0122402173
:1014E0000448FFF72FFD002240210248FFF72AFDA4
:1014F00070BD00000008014010B50122802109489C
:10150000FFF720FD012240210648FFF71BFD0022C6
:1015100080210448FFF716FD002240210148FFF713
:1015200011FD10BD0008014010B5002280210748C0
:10153000FFF708FD012240210448FFF703FD0122C7
:1015400080210248FFF7FEFC10BD000000080140AA
:1015500070B5002406E0002500E06D1CB5F57A7F2B
:10156000FBD3641CB4F57A7FF5D3FFF777FFAE2089
:1015700000F0DCF8D52000F0D9F8802000F0D6F893
:10158000A82000F0D3F83F2000F0D0F8D32000F0DE
:10159000CDF8002000F0CAF8402000F0C7F8A120E4
:1015A00000F0C4F8C82000F0C1F8DA2000F0BEF85E
:1015B000122000F0BBF8812000F0B8F8CF2000F036
:1015C000B5F8D92000F0B2F8F12000F0AFF8DB2038
:1015D00000F0ACF8302000F0A9F8A42000F0A6F844
:1015E000A62000F0A3F88D2000F0A0F8142000F051
:1015F0009DF8AF2000F09AF8FFF71AFF70BD10B504
:101600000246012000E050430B00A1F10101FAD194
:1016100010BD70B505460C4645F0B00000F086F8E8
:10162000102141EA141000F081F804F00F0000F0DE
:101630007DF870BD2DE9F04105460E461746721E35
:10164000D206110E6A1E5206100EFFF7E2FF0024AA
:1016500009E0A7F12001134A02EB0111085D00F037
:1016600075F8601CC4B2082CF3DB721ED206110E92
:101670006A1E012303EB4202D0B2FFF7CAFF002427
:101680000BE0A7F12001074A02EB011204F1080167
:10169000505C00F05BF8601CC4B2082CF1DBBDE8C4
:1016A000F0810000442C00082DE9F04780460E46EA
:1016B00017461D46002415E0281B411E0A20FFF78F
:1016C0009EFFB7FBF0F00A21B0FBF1F201FB120024
:1016D00000F130093019C1B24A464046FFF7AAFF6F
:1016E000601CC4B2AC42E7DBBDE8F0872DE9F041F5
:1016F00080460C4615460026002712E0AA5DE01938
:10170000C1B24046FFF796FFE019102805D108F155
:10171000010000F0FF0800240027781CC7B2701CED
:10172000C6B2A85D0028E9D1BDE8F08110B5044635
:10173000FFF7E2FE7820FFF7B7FE0020FFF7B4FEC8
:101740002046FFF7B1FEFFF7EFFE10BD10B50446CF
:10175000FFF7D2FE7820FFF7A7FE4020FFF7A4FE98
:101760002046FFF7A1FEFFF7DFFE10BD7047000027
:1017700010B500242B20FFF733FC28490870002106
:101780002920FFF7D7FC00210220FFF7D3FC2348D4
:10179000007800F01000C8B1B220FFF721FC21282A
:1017A00014D1BF20FFF71CFC35280FD1BA20FFF75A
:1017B00017FC0446002C05DD042C03DC102018491E
:1017C000087006E011201649087002E01120144943
:1017D000087000212B20FFF7ADFC00211C20FFF733
:1017E000A9FC00212920FFF7A5FC00210220FFF71A
:1017F000A1FC00212B20FFF79DFC0021BA20FFF760
:1018000099FC0021BC20FFF795FC01210820FFF77F
:1018100091FC00210820FFF78DFC10BD3F00002047
:101820000000002001460020034A506820F4404098
:1018300008435060704700000010024029B1064A7A
:10184000D2690243044BDA6104E0034AD26982435D
:10185000014BDA61704700000010024029B1064ACE
:1018600092690243044B9A6104E0034A92698243FD
:10187000014B9A61704700000010024030B5002112
:101880000022002400232D4D6D6805F00C0121B1CC
:10189000042905D0082923D105E0294D056022E05F
:1018A000274D05601FE0254D6D6805F47012234D2E
:1018B0006D6805F48034022505EB92421CB9214D78
:1018C000554305600BE01D4D6D6805F400351DB1F5
:1018D0001C4D5543056002E0194D5543056002E07B
:1018E000174D056000BF00BF144D6D6805F0F00195
:1018F0000909154D6B5C0568DD4045600F4D6D684D
:1019000005F4E061090A104D6B5C4568DD408560B7
:101910000A4D6D6805F46051C90A0B4D6B5C456852
:10192000DD40C560054D6D6805F44041890B074DEC
:101930006B5CC568B5FBF3F5056130BD0010024076
:1019400000127A0000093D002A0000203A00002021
:10195000704710B500F002F810BD00000CB5002073
:10196000019000903348006840F4803031490860AD
:1019700000BF3048006800F4003000900198401C1F
:101980000190009818B90198B0F5A06FF1D12948DD
:10199000006800F4003010B10120009001E0002048
:1019A00000900098012843D12348006840F01000BF
:1019B000214908600846006820F0030008600846D6
:1019C000006840F0020008601A4840681949486001
:1019D0000846406848600846406840F480604860B7
:1019E0000846406820F47C1048600846406840F48F
:1019F000E81048600846006840F08070086000BF4A
:101A00000C48006800F000700028F9D009484068D0
:101A100020F00300074948600846406840F0020093
:101A2000486000BF0348406800F00C000828F9D166
:101A30000CBD00000010024000200240042808D124
:101A40004FF0E021096941F004014FF0E0221161FB
:101A500007E04FF0E021096921F004014FF0E02296
:101A6000116170477047000010B51348006840F0DE
:101A700001001149086008464068104908400E49B5
:101A80004860084600680E4908400B49086008464F
:101A9000006820F4802008600846406820F4FE00BA
:101AA00048604FF41F008860FFF753FF4FF000605D
:101AB0000449086010BD0000001002400000FFF85B
:101AC000FFFFF6FE08ED00E021B1028842F00102BE
:101AD000028004E002884FF6FE731A4002807047CD
:101AE00001894FF6F87211400181704770B50024EA
:101AF00000220023058C4FF6EF7635400584028CDA
:101B00008388048B48F6FF752C404FF6FF452C4028
:101B10000D884FF6FF7606EA05252C434FF6DF7554
:101B20002A400D8906EA05152A434D8806EA05155F
:101B30002A43154DA84202D0144DA8421DD14FF69C
:101B40007F752A404D894FF6FF7606EA05152A4330
:101B50004FF6BF752A408D8806EA05152A434FF6D1
:101B6000FF352B404FF2FF752B408D8906EA850526
:101B70002B43CD8906EA85052B4383800483CD88DA
:101B80000587028470BD0000002C01400034014034
:101B900070B5002400220023058C4FF6FF66354007
:101BA0000584028C8388848B4FF68F752C404FF60A
:101BB000FC752C400D882C434FF6FF552A400D89AB
:101BC0004FF6FF7606EA05252A434D8806EA0525E5
:101BD0002A43154DA84202D0144DA8421DD14FF200
:101BE000FF752A404D894FF6FF7606EA05252A4300
:101BF0004FF6FF352A408D8806EA05252A434EF622
:101C0000FF752B404DF6FF752B408D8906EA0515B3
:101C10002B43CD8906EA05152B4383808483CD8829
:101C20008587028470BD0000002C01400034014013
:101C30000021018041808180C180018141818181B9
:101C4000C181704701877047002202881D4B98426E
:101C50000ED01D4B98420BD0B0F1804F08D01B4BDB
:101C6000984205D01A4B984202D01A4B984204D1A0
:101C70004FF68F731A404B881A43174B984207D080
:101C8000164B984204D04FF6FF431A40CB881A43B4
:101C900002808B8883850B8803850A4B98420BD082
:101CA000094B984208D00E4B984205D00D4B9842F4
:101CB00002D00D4B984201D10B7A03860123838217
:101CC00070470000002C0140003401400004004037
:101CD00000080040000C00400010004000140040CC
:101CE00000400140004401400048014010B540F26E
:101CF00025511D4800F079F810B31B4800F030F969
:101D0000C4B21A48008800F40040C8B917480088D7
:101D100000F4804060B10A2C03D0002013490880F1
:101D200020E01248008840F400401049088019E083
:101D30000D2C06D10D48008840F480400B490880E6
:101D400010E00A480088C0F30D0009490C54074808
:101D50000088401C0549088008460088C72801DD26
:101D60000020088010BD000000380140280000203D
:101D70004C00002010B540F225510E4800F035F817
:101D8000B8B10D480088B0F5007F02D300200A49A1
:101D900008800848001D0088C1B2074802880088F2
:101DA000401C054B1880054881542021014800F053
:101DB00007F810BD00440040480000201401002036
:101DC00001F40072B2F5007F00D100BFCA43028067
:101DD000704721B1828942F40052828104E08289F5
:101DE0004DF6FF731A408281704770B50246002499
:101DF00000230025002040F66A16B14200D100BF42
:101E0000C1F3421501F01F03012606FA03F3012D69
:101E100002D19689334006E0022D02D1168A334062
:101E200001E0968A33400C12012606FA04F4168863
:101E3000344013B10CB1012000E0002070BDF0B5BA
:101E40000346002400260025002040F66A17B94208
:101E500000D100BF1846C1F3421401F01F0601274C
:101E600007FA06F5012C01D10C3004E0022C01D157
:101E7000103000E014301AB107682F43076002E009
:101E80000768AF430760F0BD2DE9F04786B005460F
:101E90000E460024A24600BFA1460027B08900B12B
:101EA00000BF2F462C8A4CF6FF700440F088044394
:101EB0002C82AC894EF6F3100440B0883189084377
:101EC000718908430443AC81AC8A4FF6FF4004405B
:101ED000B0890443AC8201A8FFF7D0FC1F488742B9
:101EE00002D1DDF810A001E0DDF80CA0A88900F413
:101EF000004040B10AEBCA0000EB0A10316849000B
:101F0000B0FBF1F807E00AEBCA0000EB0A103168F9
:101F10008900B0FBF1F86420B8FBF0F0040120095F
:101F2000642101FB1089A88900F4004040B13220EF
:101F300000EBC900B0FBF1F000F00700044308E03B
:101F4000322000EB09106421B0FBF1F000F00F002B
:101F500004432C8106B0BDE8F08700000038014042
:101F600001468888C0F30800704700BFFEE7000004
:101F70000FB4054B10B503A9044A029800F0CAF843
:101F800010BC5DF814FB000021290008240000208B
:101F900002E008C8121F08C1002AFAD17047704732
:101FA000002001E001C1121F002AFBD17047000090
:101FB0002DE9FF5FDDE90220010DDDF838B00243B5
:101FC00018D044F61050A1F2FF3141430D140F9880
:101FD000012820D0A5EB0B00401C5FEA000A4FF05F
:101FE0000004474EDFF81C91A046504616D5CAF1B2
:101FF000000728E00F98012443A2012808D00021FF
:1020000000980F9BC0E90021C0E90243BDE8FF9F93
:102010006FEA0B01F4E7CBF10000DEE7074612E0C0
:10202000F80707D02246334640464946FEF7E9F90D
:10203000804689462246334610461946FEF7E1F9A6
:1020400004460E467F10002FEAD1DDE90201BAF105
:10205000000F42464B4602DAFEF7D3F901E0FEF7E5
:10206000CBFB04460E460022284BFEF771FA03D83C
:102070004FF0FF30014607E00022254B2046314655
:10208000FEF718F9FEF727FC102409E0002C0ADB04
:102090000A220023FEF7BAFA019B30321A55641E59
:1020A00050EA0102F2D1641C019AC4F111031444F4
:1020B0000F9A012A03D0012208430DD10AE00843F8
:1020C00004D000204FF0110B0F9080E7A3EB0B051D
:1020D0006D1E0DE05B4504DD4FF0000205F10105CA
:1020E00004E003DA4FF00002A5F10105002AECD06C
:1020F00000980F99C0E90231C0E9004586E7000069
:10210000000024400000F03F300000000000F043D9
:102110000000E03F2DE9FF4F95B09B4689460646FB
:1021200000250FE2252877D100242746F84A01210F
:10213000059400E0044316F8013F203B01FA03F048
:102140001042F7D130782A2811D06FF02F03307861
:10215000A0F13002092A16D8059A44F0020402EBD5
:10216000820203EB42021044761C0590EFE759F817
:10217000042B0592002A03DA504244F400540590DF
:1021800044F00204761C30782E2816D116F8010F80
:1021900044F004042A280DD06FF02F023078A0F10B
:1021A0003003092B09D807EB870302EB4303C71859
:1021B000761CF3E759F8047B761C30786C280FD036
:1021C00006DC4C2817D068280DD06A2814D104E00A
:1021D000742810D07A280FD10DE044F400140AE0DE
:1021E00044F4801401E044F440147278824202D135
:1021F00004F58014761C761C307866280BD013DC2E
:10220000582877D009DC002875D04528F6D0462814
:10221000F4D047281AD19DE118E0632835D064280E
:1022200079D0652812D195E1702873D008DC672831
:10223000F1D069286FD06E280DD06F2806D1B5E097
:1022400073282CD0752875D0782874D05A461799E1
:1022500090476D1C75E1C4F30250022809D0032891
:102260000DD0D9F8001004280DD00D6009F1040933
:1022700067E1D9F80010EA17C1E90052F6E7D9F88A
:1022800000100D80F2E70D70F0E719F8041B8DF8CF
:10229000001000208DF80100EA46012003E059F803
:1022A00004AB4FF0FF3061074FF0000102D40DE0A6
:1022B00008F101018846B9420FDA8045F8DB1AF8C7
:1022C00008100029F4D108E008F101018846814294
:1022D000FADB1AF808100029F6D105985B46A0EB46
:1022E000080721463846179A00F094FA284400EB74
:1022F000080507E04DE029E10DE01AF8010B5A4608
:1023000017999047B8F10108F7D25B462146384645
:10231000179A13E142E00A220092C4F302524FF0EE
:10232000000A022A08D059F804CB032A4FEAEC71BC
:102330000AD00DE029E02AE009F1070121F00702A7
:10234000F2E802C1914609E00FFA8CFC4FEAEC7109
:10235000042A03D14FFA8CFC4FEAEC71002907DA0A
:102360000A460021DCF1000C61EB02012D2202E0A3
:10237000220504D52B228DF80420012203E0E20778
:1023800001D02022F7E7904659E00A2102E010220E
:102390000DE010214FF0000A00910BE010224FF0E9
:1023A000000A44F004040827009203E008224FF0DA
:1023B000000A0092C4F30252022A05D059F804CB55
:1023C0000021032A08D009E009F1070121F00702E2
:1023D000F2E802C1914605E01FFA8CFC042A01D103
:1023E0000CF0FF0C4FF00008220728D5702806D00B
:1023F000009B83F0100353EA0A0305D00EE040224D
:102400008DF80420012208E05CEA010206D03022A7
:102410008DF804208DF8050002229046009B83F081
:10242000080353EA0A030AD15CEA010201D16207F8
:1024300005D530228DF804204FF001087F1E582862
:1024400004D034A003900EA802900DE036A0F9E766
:1024500053466046009AFEF7D9F884460398825C9A
:102460000298401E029002705CEA0100F0D10298CE
:1024700006A9081A00F1200A600702D524F4803466
:1024800000E00127574502DDA7EB0A0000E000202D
:1024900000EB0A01009005984144401A0590E003C2
:1024A00006D45B462146179A059800F0B3F9054417
:1024B000002706E001A85A46C05D179990476D1C99
:1024C0007F1C4745F6DBE0030CD55B462146179A97
:1024D000059800F09FF9054404E030205A4617990A
:1024E00090476D1C0099481E00900029F5DC08E01B
:1024F000029802995A460078491C02911799904710
:102500006D1CBAF10001AAF1010AF1DC65E10000DD
:1025100009280100303132333435363738396162B9
:10252000636465660000000030313233343536377D
:1025300038394142434445460000000000F058F954
:102540000544761C307800287FF4ECAD19B028469D
:10255000BDE8F08F620700D4062709F1070222F0D8
:10256000070CFCE80223E14603F000485FEA080C90
:1025700002D00FF2702C0DE05FEA045C02D50FF27E
:10258000682C07E05FEAC47C02D00FF2602C01E007
:10259000AFF2700C4FF0FF3823F00043CDF850C07D
:1025A00065280CD006DC452809D046281DD04728D0
:1025B0003DD13DE0662818D067287ED138E0002163
:1025C000112F01DB112000E0781CCDE9000106A9E4
:1025D0000EA8FFF7EDFCDDE90F010E9A0391002133
:1025E000009207F1010A04914DE04FF0004000977E
:1025F000CDE9011006A90EA8FFF7DAFCDDE90F020C
:1026000003920E9B11990022DDF80CA00093049216
:1026100011B9791C00EB010AB7EB0A0004D4C0F130
:10262000FF3007F1010A0490AAEB0700019044E093
:10263000012F00DA01270021112F01DD112000E018
:102640003846CDE9000106A90EA8FFF7B1FCDDE987
:102650000F010E9A0391002104910092BA462107BE
:102660000CD40399514500DA8A46BAF1010F05DD11
:10267000009AAAF10101515C302908D0B84202DA6F
:1026800010F1040F06DA0121CDE9011015E0AAF1DD
:102690000101E9E7002805DC049901440491AAEB53
:1026A000000102E0411C514500DD8A460499401AB0
:1026B000401C01904FF000400290200704D4019884
:1026C000504501DBCDF8048000208DF84F000298C2
:1026D0000DF14F07B0F1004F25D02B200E9002983E
:1026E0004FF0020800280CDA404202902D200E9094
:1026F00007E00A210298FDF773FF3031029007F8D6
:10270000011DB8F10001A8F10108F2DC02980028CF
:10271000EFD1791E0E980870307800F0200040F05C
:10272000450007F8020D12A8C01B00F10708149815
:10273000007800B1012000EB0A01019801EBE07183
:1027400005984144401A401E0590E00306D45B46BC
:102750002146179A059800F05DF805441498007812
:1027600018B15A46179990476D1CE00324D55B4673
:102770002146179A059800F04DF805441CE004988E
:10278000002807DBDDE90301884203DD0098405C97
:10279000179901E0179930205A469047049805F19F
:1027A0000105401C04900198401E019004D12E2088
:1027B0005A46179990476D1CBAF10001AAF1010A17
:1027C000DDDC05E017F8010B5A46179990476D1CA0
:1027D000B8F10001A8F10108F4DC5B462146179A24
:1027E0000598ABE62D0000002B0000002000000043
:1027F0002DE9F041044600251E461746880404D4FE
:1028000005E039462020B0476D1C641EF9D52846E6
:10281000BDE8F0812DE9F041044600251E469046B2
:10282000C80301D5302700E02027880404D505E03F
:1028300041463846B0476D1C641EF9D52846BDE8B0
:10284000F081000010B56FF00400FFF7F7F80A48B8
:1028500000680A49B0FBF1F00949087008460078A1
:1028600000EB4001C1EBC0104FF6FF7101EAC00060
:102870000449088010BD00000C00002000127A00FE
:1028800020000020220000200146114A12884A43FD
:102890004FF0E0235A6100229A611A46126942F011
:1028A00001021A6100BF4FF0E022106900F001023E
:1028B0001AB100F48032002AF5D04FF0E0221269FC
:1028C00022F001024FF0E0231A6100229A61704762
:1028D000220000200146114A12784A434FF0E023BB
:1028E0005A6100229A611A46126942F001021A6185
:1028F00000BF4FF0E022106900F001021AB100F4AD
:102900008032002AF5D04FF0E022126922F0010255
:102910004FF0E0231A6100229A61704720000020E6
:1029200000BF054A128802F04002002AF9D0C2B264
:10293000014B1B1D1A8070470038014008B500206C
:102940005349087053490860534908705349087047
:1029500000BF00BF4FF4A060FEF760FDFFF772FFFD
:10296000FEF7F8FAFEF71EF9FEF762FCFEF7ACF987
:10297000FEF7B8FB4FF4E13000F0BEF84FF4E13061
:1029800000F00CF9FEF7E4FDFEF7A8F844A0FFF70D
:10299000EFFA46A201210846FEF7A8FE48A201214F
:1029A0000220FEF7A3FE49A201210320FEF79EFEAE
:1029B0006DE0FEF781F8494908800988A1F16400BB
:1029C000FDF791FD07464649FDF736FC06464549A9
:1029D000FDF700FC0546FDF794FD80B2C0F16404EC
:1029E0000223224607210320FEF75EFE3B490988A9
:1029F000A1F16400FDF777FD07463949FDF71CFC9E
:102A000006463949FDF7E6FB0546FDF77AFD80B23B
:102A1000642190FBF1F201FB1200C0F16404022377
:102A200022460A210320FEF73FFE3C25FEF744F82C
:102A30002A4908800988A1F16400FDF754FD834606
:102A40002749FDF7F9FB82462649FDF7C3FB81467E
:102A5000FDF757FD1FFA80F84046FDF74DFD07468C
:102A60002846FDF749FD39460090FEF72DFC064645
:102A7000FDF747FD84B22046FEF78CFC21461BA0E3
:102A8000FFF776FA4FF4FA70FFF7FEFE00BF90E70B
:102A90000000002090812142060000200700002055
:102AA000D4CBD0D0B3CCD0F20D0A000054656D70F9
:102AB000657261747572653A30302E300000000026
:102AC00048756D69646974793A0000004C696768FB
:102AD000743A30302E303025000000000400002011
:102AE000004035450000C84200401C464C45445F4C
:102AF00050494425640D0A0010B586B004460121F2
:102B000044F20400FEF7AAFE4FF40070ADF8140082
:102B100003208DF8160018208DF8170005A91D4810
:102B2000FEF73CF94FF48060ADF8140004208DF8F6
:102B3000170005A91748FEF731F925208DF8000088
:102B400000208DF8010002208DF8020001208DF890
:102B500003006846FEF72AFC01940020ADF8080047
:102B6000ADF80A00ADF80C00ADF810000C20ADF87F
:102B70000E0001A90848FFF787F9012240F225510C
:102B80000548FFF75CF901210348FFF722F906B079
:102B900010BD0000000801400038014010B586B0AB
:102BA000044601210420FEF759FE01214804FEF7E6
:102BB00045FE0420ADF8140003208DF816001820FF
:102BC0008DF8170005A91D48FEF7E8F80820ADF8B4
:102BD000140003208DF8160004208DF8170005A9B5
:102BE0001648FEF7DBF826208DF8000000208DF84F
:102BF00001008DF8020001208DF803006846FEF701
:102C0000D5FB01940020ADF80800ADF80A00ADF83E
:102C10000C00ADF810000C20ADF80E0001A908481A
:102C2000FFF732F9012240F225510548FFF707F975
:102C300001210348FFF7CDF806B010BD00080140A0
:102C40000044004000000000000000000000000000
:102C500000000000000000F8000000000000003349
:102C60003000000000100C06100C060000000000F0
:102C70000000000040C07840C0784000043F0404D9
:102C80003F040400007088FC08300000001820FF9A
:102C9000211E0000F008F000E018000000211C03D5
:102CA0001E211E0000F00888700000001E21232451
:102CB0001927211010160E0000000000000000006F
:102CC00000000000000000E01804020000000007FF
:102CD0001820400000020418E00000000040201806
:102CE00007000000404080F0804040000202010FD9
:102CF00001020200000000F0000000000101011FBD
:102D000001010100000000000000000080B0700020
:102D100000000000000000000000000000010101B0
:102D2000010101010000000000000000003030003F
:102D30000000000000000000806018040060180619
:102D40000100000000E010080810E000000F102053
:102D500020100F00001010F8000000000020203F9D
:102D60002020000000700808088870000030282427
:102D700022213000003008888848300000182020C8
:102D800020110E000000C02010F8000000070424ED
:102D9000243F240000F80888880808000019212032
:102DA00020110E0000E0108888180000000F11208C
:102DB00020110E0000380808C83808000000003F45
:102DC000000000000070880808887000001C2221A4
:102DD00021221C0000E010080810E0000000312251
:102DE00022110F00000000C0C000000000000030F1
:102DF0003000000000000080000000000000806043
:102E000000000000000080402010080000010204C3
:102E100008102000404040404040400004040404AA
:102E20000404040000081020408000000020100866
:102E300004020100007048080808F000000000309B
:102E400036010000C030C828E810E0000718272429
:102E500023140B000000C038E0000000203C2302D7
:102E60000227382008F8888888700000203F20203A
:102E700020110E00C030080808083800071820206C
:102E80002010080008F808080810E000203F202063
:102E900020100F0008F88888E8081000203F202044
:102EA0002320180008F88888E8081000203F200038
:102EB00003000000C0300808083800000718202070
:102EC000221E020008F808000008F808203F21012F
:102ED00001213F20000808F8080800000020203FDA
:102EE0002020000000000808F8080800C08080804A
:102EF0007F00000008F888C028180800203F200143
:102F00002638200008F8080000000000203F20209C
:102F10002020300008F8F800F8F80800203F003FB3
:102F2000003F200008F830C00008F808203F2000CB
:102F300007183F00E01008080810E0000F102020DC
:102F400020100F0008F808080808F000203F2101B1
:102F500001010000E01008080810E0000F18242408
:102F600038504F0008F8888888887000203F20007B
:102F7000030C302000708808080838000038202131
:102F800021221C00180808F8080818000000203F3B
:102F90002000000008F808000008F808001F2020A2
:102FA00020201F000878880000C838080000073873
:102FB0000E010000F80800F80008F800033C0700C4
:102FC000073C0300081868808068180820302C032C
:102FD000032C30200838C800C83808000000203F03
:102FE0002000000010080808C838080020382621F2
:102FF00020201800000000FE020202000000007FF6
:1030000040404000000C30C0000000000000000103
:103010000638C00000020202FE00000000404040EE
:103020007F00000000000402020204000000000013
:103030000000000000000000000000008080808090
:103040008080808000020204000000000000000078
:103050000000000000008080808000000019242211
:1030600022223F2008F8008080000000003F11204D
:1030700020110E000000008080800000000E112052
:1030800020201100000000808088F800000E112030
:1030900020103F200000808080800000001F22223E
:1030A00022221300008080F0888888180020203FAA
:1030B000202000000000808080808000006B9494BD
:1030C0009493600008F8008080800000203F210079
:1030D00000203F2000809898000000000020203F42
:1030E00020200000000000809898000000C0808030
:1030F000807F000008F8000080808000203F2402CC
:103100002D302000000808F8000000000020203FBB
:10311000202000008080808080808000203F200070
:103120003F20003F8080008080800000203F210001
:1031300000203F200000808080800000001F2020B1
:1031400020201F00808000808000000080FFA120E0
:1031500020110E000000008080808000000E1120F1
:1031600020A0FF80808080008080800020203F2180
:103170002000010000008080808080000033242433
:1031800024241900008080E0808000000000001FDF
:10319000202000008080000000808000001F202090
:1031A00020103F20808080000080808000010E3051
:1031B0000806010080800080008080800F300C03B2
:1031C0000C300F0000808000808080000020312EB5
:1031D0000E312000808080000080808080818E7091
:1031E0001806010000808080808080000021302C43
:1031F0002221300000000000807C0202000000005C
:10320000003F404000000000FF0000000000000000
:10321000FF0000000002027C800000000040403FF0
:10322000000000000006010102020404000000008A
:103230000000000054320008000000204C00000094
:10324000901F0008A03200084C000020CC0A0000AB
:10325000A01F0008000000000000000000000000A7
:1032600000A24A0400000000000000000102030464
:103270000607080900000000000000000000000030
:103280000000010203040102030406070809020406
:103290000608000000000000000000000000000020
:0400000508000101ED
:00000001FF
